{
  "contractName": "MusiChain",
  "abi": [
    {
      "inputs": [],
      "stateMutability": "nonpayable",
      "type": "constructor"
    },
    {
      "anonymous": false,
      "inputs": [
        {
          "indexed": false,
          "internalType": "address",
          "name": "user",
          "type": "address"
        },
        {
          "indexed": true,
          "internalType": "uint256",
          "name": "idArtist",
          "type": "uint256"
        },
        {
          "indexed": false,
          "internalType": "string",
          "name": "artistName",
          "type": "string"
        },
        {
          "indexed": false,
          "internalType": "uint256",
          "name": "timeOfInsertion",
          "type": "uint256"
        }
      ],
      "name": "artistAdded",
      "type": "event"
    },
    {
      "anonymous": false,
      "inputs": [
        {
          "indexed": true,
          "internalType": "address",
          "name": "user",
          "type": "address"
        },
        {
          "indexed": false,
          "internalType": "string",
          "name": "artistName",
          "type": "string"
        },
        {
          "indexed": false,
          "internalType": "string",
          "name": "songName",
          "type": "string"
        },
        {
          "indexed": false,
          "internalType": "uint256",
          "name": "timeOfPurchase",
          "type": "uint256"
        }
      ],
      "name": "purchased",
      "type": "event"
    },
    {
      "anonymous": false,
      "inputs": [
        {
          "indexed": true,
          "internalType": "address",
          "name": "user",
          "type": "address"
        },
        {
          "indexed": false,
          "internalType": "string",
          "name": "artistName",
          "type": "string"
        },
        {
          "indexed": false,
          "internalType": "string",
          "name": "songName",
          "type": "string"
        },
        {
          "indexed": false,
          "internalType": "uint256",
          "name": "timeOfPurchase",
          "type": "uint256"
        },
        {
          "indexed": false,
          "internalType": "uint256",
          "name": "expirationTime",
          "type": "uint256"
        }
      ],
      "name": "rented",
      "type": "event"
    },
    {
      "anonymous": false,
      "inputs": [
        {
          "indexed": false,
          "internalType": "address",
          "name": "user",
          "type": "address"
        },
        {
          "indexed": true,
          "internalType": "uint256",
          "name": "idArtist",
          "type": "uint256"
        },
        {
          "indexed": false,
          "internalType": "string",
          "name": "songName",
          "type": "string"
        },
        {
          "indexed": false,
          "internalType": "string",
          "name": "artistName",
          "type": "string"
        },
        {
          "indexed": false,
          "internalType": "uint256",
          "name": "timeOfInsertion",
          "type": "uint256"
        }
      ],
      "name": "songAdded",
      "type": "event"
    },
    {
      "inputs": [
        {
          "internalType": "address",
          "name": "",
          "type": "address"
        }
      ],
      "name": "artists",
      "outputs": [
        {
          "internalType": "string",
          "name": "",
          "type": "string"
        }
      ],
      "stateMutability": "view",
      "type": "function",
      "constant": true
    },
    {
      "inputs": [
        {
          "internalType": "string",
          "name": "",
          "type": "string"
        }
      ],
      "name": "artistsCheck",
      "outputs": [
        {
          "internalType": "uint256",
          "name": "",
          "type": "uint256"
        }
      ],
      "stateMutability": "view",
      "type": "function",
      "constant": true
    },
    {
      "inputs": [],
      "name": "owner",
      "outputs": [
        {
          "internalType": "address payable",
          "name": "",
          "type": "address"
        }
      ],
      "stateMutability": "view",
      "type": "function",
      "constant": true
    },
    {
      "inputs": [
        {
          "internalType": "string",
          "name": "",
          "type": "string"
        },
        {
          "internalType": "string",
          "name": "",
          "type": "string"
        }
      ],
      "name": "songs",
      "outputs": [
        {
          "internalType": "address payable",
          "name": "songOwner",
          "type": "address"
        },
        {
          "internalType": "uint256",
          "name": "songId",
          "type": "uint256"
        },
        {
          "internalType": "string",
          "name": "genre",
          "type": "string"
        },
        {
          "internalType": "string",
          "name": "album",
          "type": "string"
        },
        {
          "internalType": "uint256",
          "name": "year",
          "type": "uint256"
        },
        {
          "internalType": "uint256",
          "name": "length",
          "type": "uint256"
        },
        {
          "internalType": "uint256",
          "name": "purchasingCost",
          "type": "uint256"
        },
        {
          "internalType": "uint256",
          "name": "rent_oneday",
          "type": "uint256"
        },
        {
          "internalType": "uint256",
          "name": "rent_threedays",
          "type": "uint256"
        },
        {
          "internalType": "uint256",
          "name": "rent_oneweek",
          "type": "uint256"
        },
        {
          "internalType": "uint256",
          "name": "rent_onemonth",
          "type": "uint256"
        },
        {
          "internalType": "uint256",
          "name": "rent_oneyear",
          "type": "uint256"
        }
      ],
      "stateMutability": "view",
      "type": "function",
      "constant": true
    },
    {
      "inputs": [
        {
          "internalType": "string",
          "name": "artistName",
          "type": "string"
        }
      ],
      "name": "addArtist",
      "outputs": [],
      "stateMutability": "nonpayable",
      "type": "function"
    },
    {
      "inputs": [
        {
          "internalType": "string",
          "name": "songName",
          "type": "string"
        },
        {
          "internalType": "string",
          "name": "genre",
          "type": "string"
        },
        {
          "internalType": "string",
          "name": "album",
          "type": "string"
        },
        {
          "internalType": "uint256",
          "name": "year",
          "type": "uint256"
        },
        {
          "internalType": "uint256",
          "name": "length",
          "type": "uint256"
        }
      ],
      "name": "addSong",
      "outputs": [],
      "stateMutability": "nonpayable",
      "type": "function"
    },
    {
      "inputs": [
        {
          "internalType": "string",
          "name": "artistName",
          "type": "string"
        },
        {
          "internalType": "string",
          "name": "songName",
          "type": "string"
        },
        {
          "internalType": "uint256",
          "name": "amountArtist",
          "type": "uint256"
        },
        {
          "internalType": "uint256",
          "name": "amountMusiChain",
          "type": "uint256"
        },
        {
          "internalType": "uint256",
          "name": "option",
          "type": "uint256"
        }
      ],
      "name": "buySong",
      "outputs": [],
      "stateMutability": "payable",
      "type": "function",
      "payable": true
    }
  ],
  "bytecode": "0x608060405234801561001057600080fd5b50336000806101000a81548173ffffffffffffffffffffffffffffffffffffffff021916908373ffffffffffffffffffffffffffffffffffffffff1602179055506001600481905550600160058190555061243a806100706000396000f3fe6080604052600436106100705760003560e01c806344bd01191161004e57806344bd0119146101185780638da5cb5b14610160578063c981c1c51461018b578063de8d3073146101b457610070565b8063069dab8f14610075578063224eb928146100b25780633f75dc61146100ef575b600080fd5b34801561008157600080fd5b5061009c60048036038101906100979190611463565b6101d0565b6040516100a99190611520565b60405180910390f35b3480156100be57600080fd5b506100d960048036038101906100d49190611677565b610270565b6040516100e691906116d9565b60405180910390f35b3480156100fb57600080fd5b5061011660048036038101906101119190611720565b61029e565b005b34801561012457600080fd5b5061013f600480360381019061013a91906117ef565b6107c5565b6040516101579c9b9a99989796959493929190611888565b60405180910390f35b34801561016c57600080fd5b5061017561098e565b6040516101829190611950565b60405180910390f35b34801561019757600080fd5b506101b260048036038101906101ad9190611677565b6109b2565b005b6101ce60048036038101906101c9919061196b565b610bfa565b005b600260205280600052604060002060009150905080546101ef90611a4d565b80601f016020809104026020016040519081016040528092919081815260200182805461021b90611a4d565b80156102685780601f1061023d57610100808354040283529160200191610268565b820191906000526020600020905b81548152906001019060200180831161024b57829003601f168201915b505050505081565b6003818051602081018201805184825260208301602085012081835280955050505050506000915090505481565b3373ffffffffffffffffffffffffffffffffffffffff1660008054906101000a900473ffffffffffffffffffffffffffffffffffffffff1673ffffffffffffffffffffffffffffffffffffffff160361032c576040517f08c379a000000000000000000000000000000000000000000000000000000000815260040161032390611af0565b60405180910390fd5b6000600260003373ffffffffffffffffffffffffffffffffffffffff1673ffffffffffffffffffffffffffffffffffffffff168152602001908152602001600020805461037890611a4d565b9050116103ba576040517f08c379a00000000000000000000000000000000000000000000000000000000081526004016103b190611b5c565b60405180910390fd5b60006001600260003373ffffffffffffffffffffffffffffffffffffffff1673ffffffffffffffffffffffffffffffffffffffff16815260200190815260200160002060405161040a9190611c1f565b9081526020016040518091039020866040516104269190611c67565b90815260200160405180910390206005015414610478576040517f08c379a000000000000000000000000000000000000000000000000000000000815260040161046f90611cca565b60405180910390fd5b600066071afd498d00009050600066038d7ea4c68000905060006608e1bc9bf0400090506000661550f7dca700009050600066470de4df820000905060006702c68af0bb14000090506040518061018001604052803373ffffffffffffffffffffffffffffffffffffffff16815260200160045481526020018b81526020018a8152602001898152602001888152602001878152602001868152602001858152602001848152602001838152602001828152506001600260003373ffffffffffffffffffffffffffffffffffffffff1673ffffffffffffffffffffffffffffffffffffffff1681526020019081526020016000206040516105799190611c1f565b90815260200160405180910390208c6040516105959190611c67565b908152602001604051809103902060008201518160000160006101000a81548173ffffffffffffffffffffffffffffffffffffffff021916908373ffffffffffffffffffffffffffffffffffffffff1602179055506020820151816001015560408201518160020190816106099190611e81565b50606082015181600301908161061f9190611e81565b506080820151816004015560a0820151816005015560c0820151816006015560e082015181600701556101008201518160080155610120820151816009015561014082015181600a015561016082015181600b01559050506004600081548092919061068a90611f82565b91905055506000600260003373ffffffffffffffffffffffffffffffffffffffff1673ffffffffffffffffffffffffffffffffffffffff16815260200190815260200160002080546106db90611a4d565b80601f016020809104026020016040519081016040528092919081815260200182805461070790611a4d565b80156107545780601f1061072957610100808354040283529160200191610754565b820191906000526020600020905b81548152906001019060200180831161073757829003601f168201915b5050505050905060038160405161076b9190611c67565b9081526020016040518091039020547fdac4a438150ee6ff6d73fea55d88fde3618c09191cecd4345949df33c4b725e1338e84426040516107af9493929190611fd9565b60405180910390a2505050505050505050505050565b60018280516020810182018051848252602083016020850120818352809550505050505081805160208101820180518482526020830160208501208183528095505050505050600091509150508060000160009054906101000a900473ffffffffffffffffffffffffffffffffffffffff169080600101549080600201805461084d90611a4d565b80601f016020809104026020016040519081016040528092919081815260200182805461087990611a4d565b80156108c65780601f1061089b576101008083540402835291602001916108c6565b820191906000526020600020905b8154815290600101906020018083116108a957829003601f168201915b5050505050908060030180546108db90611a4d565b80601f016020809104026020016040519081016040528092919081815260200182805461090790611a4d565b80156109545780601f1061092957610100808354040283529160200191610954565b820191906000526020600020905b81548152906001019060200180831161093757829003601f168201915b50505050509080600401549080600501549080600601549080600701549080600801549080600901549080600a01549080600b015490508c565b60008054906101000a900473ffffffffffffffffffffffffffffffffffffffff1681565b3373ffffffffffffffffffffffffffffffffffffffff1660008054906101000a900473ffffffffffffffffffffffffffffffffffffffff1673ffffffffffffffffffffffffffffffffffffffff1603610a40576040517f08c379a0000000000000000000000000000000000000000000000000000000008152600401610a3790611af0565b60405180910390fd5b6000600382604051610a529190611c67565b90815260200160405180910390205414610aa1576040517f08c379a0000000000000000000000000000000000000000000000000000000008152600401610a9890612078565b60405180910390fd5b6000600260003373ffffffffffffffffffffffffffffffffffffffff1673ffffffffffffffffffffffffffffffffffffffff1681526020019081526020016000208054610aed90611a4d565b905014610b2f576040517f08c379a0000000000000000000000000000000000000000000000000000000008152600401610b26906120e4565b60405180910390fd5b80600260003373ffffffffffffffffffffffffffffffffffffffff1673ffffffffffffffffffffffffffffffffffffffff1681526020019081526020016000209081610b7b9190611e81565b50600554600382604051610b8f9190611c67565b90815260200160405180910390208190555060056000815480929190610bb490611f82565b91905055506005547f0327b02de13ff68e3ba6d699b67cc673a27b5eecdeae472dbc20051ab1169934338342604051610bef93929190612104565b60405180910390a250565b8484826000808203610c4b57600184604051610c169190611c67565b908152602001604051809103902083604051610c329190611c67565b9081526020016040518091039020600601549050610dd6565b60018203610c9857600184604051610c639190611c67565b908152602001604051809103902083604051610c7f9190611c67565b9081526020016040518091039020600701549050610dd5565b60028203610ce557600184604051610cb09190611c67565b908152602001604051809103902083604051610ccc9190611c67565b9081526020016040518091039020600801549050610dd4565b60038203610d3257600184604051610cfd9190611c67565b908152602001604051809103902083604051610d199190611c67565b9081526020016040518091039020600901549050610dd3565b60048203610d7f57600184604051610d4a9190611c67565b908152602001604051809103902083604051610d669190611c67565b9081526020016040518091039020600a01549050610dd2565b60058203610dcc57600184604051610d979190611c67565b908152602001604051809103902083604051610db39190611c67565b9081526020016040518091039020600b01549050610dd1565b600090505b5b5b5b5b5b803414610e18576040517f08c379a0000000000000000000000000000000000000000000000000000000008152600401610e0f9061218e565b60405180910390fd5b3373ffffffffffffffffffffffffffffffffffffffff1660008054906101000a900473ffffffffffffffffffffffffffffffffffffffff1673ffffffffffffffffffffffffffffffffffffffff1603610ea6576040517f08c379a0000000000000000000000000000000000000000000000000000000008152600401610e9d90611af0565b60405180910390fd5b60008510158015610eb8575060058511155b610ef7576040517f08c379a0000000000000000000000000000000000000000000000000000000008152600401610eee906121fa565b60405180910390fd5b3373ffffffffffffffffffffffffffffffffffffffff1660018a604051610f1e9190611c67565b908152602001604051809103902089604051610f3a9190611c67565b908152602001604051809103902060000160009054906101000a900473ffffffffffffffffffffffffffffffffffffffff1673ffffffffffffffffffffffffffffffffffffffff1603610fc2576040517f08c379a0000000000000000000000000000000000000000000000000000000008152600401610fb990612266565b60405180910390fd5b600060018a604051610fd49190611c67565b908152602001604051809103902089604051610ff09190611c67565b908152602001604051809103902060000160009054906101000a900473ffffffffffffffffffffffffffffffffffffffff1673ffffffffffffffffffffffffffffffffffffffff1688604051611045906122b7565b60006040518083038185875af1925050503d8060008114611082576040519150601f19603f3d011682016040523d82523d6000602084013e611087565b606091505b5050905060008060009054906101000a900473ffffffffffffffffffffffffffffffffffffffff1673ffffffffffffffffffffffffffffffffffffffff16886040516110d2906122b7565b60006040518083038185875af1925050503d806000811461110f576040519150601f19603f3d011682016040523d82523d6000602084013e611114565b606091505b505090508180156111225750805b611161576040517f08c379a000000000000000000000000000000000000000000000000000000000815260040161115890612318565b60405180910390fd5b600087036111c0573373ffffffffffffffffffffffffffffffffffffffff167f67854bc914bc0e601d38716f4fc3a0abb9b326b1e55ca36570738aee9c082b318c8c426040516111b393929190612338565b60405180910390a26113e4565b6001870361122f573373ffffffffffffffffffffffffffffffffffffffff167f7cbd7ceee975cdea635991dea816e4dc47f7b4f5e549ecda96c9b6059888dae48c8c426201518042611212919061237d565b60405161122294939291906123b1565b60405180910390a26113e3565b6002870361129e573373ffffffffffffffffffffffffffffffffffffffff167f7cbd7ceee975cdea635991dea816e4dc47f7b4f5e549ecda96c9b6059888dae48c8c426203f48042611281919061237d565b60405161129194939291906123b1565b60405180910390a26113e2565b6003870361130d573373ffffffffffffffffffffffffffffffffffffffff167f7cbd7ceee975cdea635991dea816e4dc47f7b4f5e549ecda96c9b6059888dae48c8c4262093a80426112f0919061237d565b60405161130094939291906123b1565b60405180910390a26113e1565b6004870361137c573373ffffffffffffffffffffffffffffffffffffffff167f7cbd7ceee975cdea635991dea816e4dc47f7b4f5e549ecda96c9b6059888dae48c8c426228de804261135f919061237d565b60405161136f94939291906123b1565b60405180910390a26113e0565b3373ffffffffffffffffffffffffffffffffffffffff167f7cbd7ceee975cdea635991dea816e4dc47f7b4f5e549ecda96c9b6059888dae48c8c426301e13380426113c7919061237d565b6040516113d794939291906123b1565b60405180910390a25b5b5b5b5b5050505050505050505050565b6000604051905090565b600080fd5b600080fd5b600073ffffffffffffffffffffffffffffffffffffffff82169050919050565b600061143082611405565b9050919050565b61144081611425565b811461144b57600080fd5b50565b60008135905061145d81611437565b92915050565b600060208284031215611479576114786113fb565b5b60006114878482850161144e565b91505092915050565b600081519050919050565b600082825260208201905092915050565b60005b838110156114ca5780820151818401526020810190506114af565b60008484015250505050565b6000601f19601f8301169050919050565b60006114f282611490565b6114fc818561149b565b935061150c8185602086016114ac565b611515816114d6565b840191505092915050565b6000602082019050818103600083015261153a81846114e7565b905092915050565b600080fd5b600080fd5b7f4e487b7100000000000000000000000000000000000000000000000000000000600052604160045260246000fd5b611584826114d6565b810181811067ffffffffffffffff821117156115a3576115a261154c565b5b80604052505050565b60006115b66113f1565b90506115c2828261157b565b919050565b600067ffffffffffffffff8211156115e2576115e161154c565b5b6115eb826114d6565b9050602081019050919050565b82818337600083830152505050565b600061161a611615846115c7565b6115ac565b90508281526020810184848401111561163657611635611547565b5b6116418482856115f8565b509392505050565b600082601f83011261165e5761165d611542565b5b813561166e848260208601611607565b91505092915050565b60006020828403121561168d5761168c6113fb565b5b600082013567ffffffffffffffff8111156116ab576116aa611400565b5b6116b784828501611649565b91505092915050565b6000819050919050565b6116d3816116c0565b82525050565b60006020820190506116ee60008301846116ca565b92915050565b6116fd816116c0565b811461170857600080fd5b50565b60008135905061171a816116f4565b92915050565b600080600080600060a0868803121561173c5761173b6113fb565b5b600086013567ffffffffffffffff81111561175a57611759611400565b5b61176688828901611649565b955050602086013567ffffffffffffffff81111561178757611786611400565b5b61179388828901611649565b945050604086013567ffffffffffffffff8111156117b4576117b3611400565b5b6117c088828901611649565b93505060606117d18882890161170b565b92505060806117e28882890161170b565b9150509295509295909350565b60008060408385031215611806576118056113fb565b5b600083013567ffffffffffffffff81111561182457611823611400565b5b61183085828601611649565b925050602083013567ffffffffffffffff81111561185157611850611400565b5b61185d85828601611649565b9150509250929050565b600061187282611405565b9050919050565b61188281611867565b82525050565b60006101808201905061189e600083018f611879565b6118ab602083018e6116ca565b81810360408301526118bd818d6114e7565b905081810360608301526118d1818c6114e7565b90506118e0608083018b6116ca565b6118ed60a083018a6116ca565b6118fa60c08301896116ca565b61190760e08301886116ca565b6119156101008301876116ca565b6119236101208301866116ca565b6119316101408301856116ca565b61193f6101608301846116ca565b9d9c50505050505050505050505050565b60006020820190506119656000830184611879565b92915050565b600080600080600060a08688031215611987576119866113fb565b5b600086013567ffffffffffffffff8111156119a5576119a4611400565b5b6119b188828901611649565b955050602086013567ffffffffffffffff8111156119d2576119d1611400565b5b6119de88828901611649565b94505060406119ef8882890161170b565b9350506060611a008882890161170b565b9250506080611a118882890161170b565b9150509295509295909350565b7f4e487b7100000000000000000000000000000000000000000000000000000000600052602260045260246000fd5b60006002820490506001821680611a6557607f821691505b602082108103611a7857611a77611a1e565b5b50919050565b7f4d757369436861696e204f776e65722063616e6e6f7420706572666f6d65207460008201527f6869730000000000000000000000000000000000000000000000000000000000602082015250565b6000611ada60238361149b565b9150611ae582611a7e565b604082019050919050565b60006020820190508181036000830152611b0981611acd565b9050919050565b7f596f7520617265206e6f7420616e206172746973747300000000000000000000600082015250565b6000611b4660168361149b565b9150611b5182611b10565b602082019050919050565b60006020820190508181036000830152611b7581611b39565b9050919050565b600081905092915050565b60008190508160005260206000209050919050565b60008154611ba981611a4d565b611bb38186611b7c565b94506001821660008114611bce5760018114611be357611c16565b60ff1983168652811515820286019350611c16565b611bec85611b87565b60005b83811015611c0e57815481890152600182019150602081019050611bef565b838801955050505b50505092915050565b6000611c2b8284611b9c565b915081905092915050565b6000611c4182611490565b611c4b8185611b7c565b9350611c5b8185602086016114ac565b80840191505092915050565b6000611c738284611c36565b915081905092915050565b7f416c72656164792070726573656e740000000000000000000000000000000000600082015250565b6000611cb4600f8361149b565b9150611cbf82611c7e565b602082019050919050565b60006020820190508181036000830152611ce381611ca7565b9050919050565b60006020601f8301049050919050565b600082821b905092915050565b600060088302611d377fffffffffffffffffffffffffffffffffffffffffffffffffffffffffffffffff82611cfa565b611d418683611cfa565b95508019841693508086168417925050509392505050565b6000819050919050565b6000611d7e611d79611d74846116c0565b611d59565b6116c0565b9050919050565b6000819050919050565b611d9883611d63565b611dac611da482611d85565b848454611d07565b825550505050565b600090565b611dc1611db4565b611dcc818484611d8f565b505050565b5b81811015611df057611de5600082611db9565b600181019050611dd2565b5050565b601f821115611e3557611e0681611b87565b611e0f84611cea565b81016020851015611e1e578190505b611e32611e2a85611cea565b830182611dd1565b50505b505050565b600082821c905092915050565b6000611e5860001984600802611e3a565b1980831691505092915050565b6000611e718383611e47565b9150826002028217905092915050565b611e8a82611490565b67ffffffffffffffff811115611ea357611ea261154c565b5b611ead8254611a4d565b611eb8828285611df4565b600060209050601f831160018114611eeb5760008415611ed9578287015190505b611ee38582611e65565b865550611f4b565b601f198416611ef986611b87565b60005b82811015611f2157848901518255600182019150602085019450602081019050611efc565b86831015611f3e5784890151611f3a601f891682611e47565b8355505b6001600288020188555050505b505050505050565b7f4e487b7100000000000000000000000000000000000000000000000000000000600052601160045260246000fd5b6000611f8d826116c0565b91507fffffffffffffffffffffffffffffffffffffffffffffffffffffffffffffffff8203611fbf57611fbe611f53565b5b600182019050919050565b611fd381611425565b82525050565b6000608082019050611fee6000830187611fca565b818103602083015261200081866114e7565b9050818103604083015261201481856114e7565b905061202360608301846116ca565b95945050505050565b7f4172746973747320616c72656164792065786973747300000000000000000000600082015250565b600061206260168361149b565b915061206d8261202c565b602082019050919050565b6000602082019050818103600083015261209181612055565b9050919050565b7f596f752061726520616c726561647920616e2061727469737400000000000000600082015250565b60006120ce60198361149b565b91506120d982612098565b602082019050919050565b600060208201905081810360008301526120fd816120c1565b9050919050565b60006060820190506121196000830186611fca565b818103602083015261212b81856114e7565b905061213a60408301846116ca565b949350505050565b7f49742773206e6f742074686520726967687420616d6f756e7400000000000000600082015250565b600061217860198361149b565b915061218382612142565b602082019050919050565b600060208201905081810360008301526121a78161216b565b9050919050565b7f4e6f7420746865207269676874206f7074696f6e000000000000000000000000600082015250565b60006121e460148361149b565b91506121ef826121ae565b602082019050919050565b60006020820190508181036000830152612213816121d7565b9050919050565b7f4172746973742063616e6e6f742062757920697473206d757369630000000000600082015250565b6000612250601b8361149b565b915061225b8261221a565b602082019050919050565b6000602082019050818103600083015261227f81612243565b9050919050565b600081905092915050565b50565b60006122a1600083612286565b91506122ac82612291565b600082019050919050565b60006122c282612294565b9150819050919050565b7f4661696c20746f2073656e642045746865720000000000000000000000000000600082015250565b600061230260128361149b565b915061230d826122cc565b602082019050919050565b60006020820190508181036000830152612331816122f5565b9050919050565b6000606082019050818103600083015261235281866114e7565b9050818103602083015261236681856114e7565b905061237560408301846116ca565b949350505050565b6000612388826116c0565b9150612393836116c0565b92508282019050808211156123ab576123aa611f53565b5b92915050565b600060808201905081810360008301526123cb81876114e7565b905081810360208301526123df81866114e7565b90506123ee60408301856116ca565b6123fb60608301846116ca565b9594505050505056fea2646970667358221220701fb1dede08b333d5e560a7ce19fa758ca514eaff8ebb83ac24310cb8f4b3c764736f6c63430008110033",
  "immutableReferences": {},
  "source": "//SPDX-License-Identifier: MIT\r\npragma solidity ^0.8.0;\r\n\r\ncontract MusiChain {\r\n    address payable public owner;\r\n    mapping(string => mapping(string => Song)) public songs; // una canzone  identificata dalla coppia (NomeArtista, NomeCanzone)\r\n    mapping(address => string) public artists; //Per verificare chi richiama la funzione addArtist non abbia gi agggiunto un artista, questo perch un account pu essere associato a solo un artista\r\n    mapping(string => uint) public artistsCheck; //per controllare che il nome dell'artista non sia gi stato usato\r\n\r\n    struct Song{\r\n        address payable songOwner; //l'indirizzo dell'artista\r\n        uint songId;\r\n        string genre;\r\n        string album;\r\n        uint year;\r\n        uint length;\r\n        uint purchasingCost;\r\n        uint rent_oneday;\r\n        uint rent_threedays;\r\n        uint rent_oneweek;\r\n        uint rent_onemonth;\r\n        uint rent_oneyear;\r\n    }\r\n    \r\n    uint private idSong; // id assegnato progressivamente ad ogni canzone inserita in MusiChain\r\n    uint private idArtist; // id assegnato progressivamente ad ogni artista inserito in MusiChain\r\n\r\n\r\n    constructor(){\r\n        owner = payable(msg.sender);\r\n        idSong = 1;\r\n        idArtist = 1;\r\n    }\r\n\r\n    event purchased(address indexed user, string artistName, string songName, uint timeOfPurchase); //evento che verr richiamato ad ogni acquisto di una canzone. Avremo quindi la lista di tutti gli acquisti\r\n    event rented(address indexed user, string artistName, string songName, uint timeOfPurchase, uint expirationTime);\r\n    event artistAdded(address user, uint indexed idArtist, string artistName, uint timeOfInsertion); //evento che verr richiamato all'aggiunta di un nuovo artista in MusiChain\r\n    event songAdded(address user, uint indexed idArtist ,string songName, string artistName, uint timeOfInsertion); //evento che verr richiamato all'aggiunta di una nuova canzone\r\n\r\n    modifier costs(string memory artistName, string memory songName, uint option){ // modificatore per il controllo della quantit di ether per procedere all'acquisto della canzone\r\n        uint amount;\r\n        if(option == 0){\r\n            amount = songs[artistName][songName].purchasingCost;\r\n        }else if(option == 1){\r\n            amount = songs[artistName][songName].rent_oneday;\r\n        }else if(option == 2){\r\n            amount = songs[artistName][songName].rent_threedays;\r\n        }else if(option == 3){\r\n            amount = songs[artistName][songName].rent_oneweek;\r\n        }else if(option == 4){\r\n            amount = songs[artistName][songName].rent_onemonth;\r\n        }else if(option == 5){\r\n            amount = songs[artistName][songName].rent_oneyear;\r\n        }else{\r\n            amount = 0;\r\n        }\r\n        \r\n        require(msg.value == amount, \"It's not the right amount\");\r\n        _;\r\n    }\r\n\r\n    modifier notOwner{ // modificatore per controllare che l'account proprietario di MusiChain non esegua operazioni non consentite come l'aggiunta di un artista o di una canzone\r\n        require(owner != msg.sender, \"MusiChain Owner cannot perfome this\");\r\n        _;\r\n    }\r\n\r\n    function addArtist(string memory artistName) external notOwner{\r\n        require(artistsCheck[artistName] == 0,\"Artists already exists\"); //controllo che l'artista non sia gi stato inserito precedentemente\r\n        require(bytes(artists[msg.sender]).length == 0 ,\"You are already an artist\"); // controllo che l'account che usa questa funzione non sia gi un artista\r\n        artists[msg.sender] = artistName;\r\n        artistsCheck[artistName] = idArtist;\r\n        idArtist++;\r\n        emit artistAdded(msg.sender, idArtist, artistName ,block.timestamp);\r\n    }\r\n    \r\n    function addSong(string memory songName, string memory genre, string memory album, uint year, uint length) external notOwner{\r\n        require(bytes(artists[msg.sender]).length > 0 ,\"You are not an artists\"); // controllo che chi utilizzi questa funzione sia un artista\r\n        require((songs[artists[msg.sender]][songName].length == 0),\"Already present\"); // controllo che la canzone non sia gi inserita\r\n        uint purchasingCost = 2000000000000000 wei; // 2,3 euro\r\n        uint rent_oneday = 1000000000000000 wei; // 1,15 euro\r\n        uint rent_threedays = 2500000000000000 wei; //2,87 euro\r\n        uint rent_oneweek = 6000000000000000 wei; //6,89 euro\r\n        uint rent_onemonth = 20000000000000000 wei; //22,98 euro\r\n        uint rent_oneyear = 200000000000000000 wei; //229,75 euro\r\n        songs[artists[msg.sender]][songName] = Song(payable(msg.sender), idSong, genre, album, year, length, purchasingCost, rent_oneday, rent_threedays,rent_oneweek,rent_onemonth,rent_oneyear); //inserisco automaticamente il nome dell'artista, in quanto solo un artista  associato ad un determinato account\r\n        idSong++; //aggiornamento progressivo dell'id da associare alle canzoni\r\n        string memory artistName = artists[msg.sender];\r\n        emit songAdded(msg.sender, artistsCheck[artistName], songName, artistName, block.timestamp);\r\n    }\r\n\r\n    function buySong(string memory artistName, string memory songName, uint amountArtist, uint amountMusiChain, uint option) external payable costs(artistName, songName, option) notOwner{ \r\n        require(option>=0 && option<=5, \"Not the right option\");\r\n        require(songs[artistName][songName].songOwner != msg.sender,\"Artist cannot buy its music\"); // controllo che l'artsta non compri la sua stessa musica\r\n        (bool sentArtist,) = songs[artistName][songName].songOwner.call{value: (amountArtist)}(\"\"); // invio degli ethers all'account dell'artista\r\n        (bool sentMusiChian,) = owner.call{value: (amountMusiChain)}(\"\"); // invio degli ethers all'acount del proprietario di MusiChain\r\n        require(sentArtist && sentMusiChian,\"Fail to send Ether\"); // controllo che le operazioni siano andate a buon fine\r\n        if(option == 0){\r\n            emit purchased(msg.sender, artistName, songName, block.timestamp);\r\n        }else if(option == 1){\r\n            emit rented(msg.sender, artistName, songName, block.timestamp, block.timestamp + 1 days);\r\n        }else if(option == 2){\r\n            emit rented(msg.sender, artistName, songName, block.timestamp, block.timestamp + (3*1 days));\r\n        }else if(option == 3){\r\n            emit rented(msg.sender, artistName, songName, block.timestamp, block.timestamp + 1 weeks);\r\n        }else if(option == 4){\r\n            emit rented(msg.sender, artistName, songName, block.timestamp, block.timestamp + (31*1 days));\r\n        }else{\r\n            emit rented(msg.sender, artistName, songName, block.timestamp, block.timestamp + (365*1 days));\r\n        }\r\n        \r\n    }\r\n\r\n}",
  "sourcePath": "C:\\Users\\sergi\\Documents\\Uni Magistrale\\Secondo Anno\\Primo Semestre\\Ing. SW\\Progetto\\MusiChainWebApp\\musichain\\contracts\\MusiChain.sol",
  "compiler": {
    "name": "solc",
    "version": "0.8.17+commit.8df45f5f.Emscripten.clang"
  },
  "schemaVersion": "3.4.10",
  "updatedAt": "2022-11-24T13:42:06.145Z",
  "networkType": "ethereum",
  "devdoc": {
    "kind": "dev",
    "methods": {},
    "version": 1
  },
  "userdoc": {
    "kind": "user",
    "methods": {},
    "version": 1
  }
}