{
  "contractName": "MusiChain",
  "abi": [
    {
      "inputs": [],
      "stateMutability": "nonpayable",
      "type": "constructor"
    },
    {
      "anonymous": false,
      "inputs": [
        {
          "indexed": false,
          "internalType": "address",
          "name": "user",
          "type": "address"
        },
        {
          "indexed": true,
          "internalType": "uint256",
          "name": "idArtist",
          "type": "uint256"
        },
        {
          "indexed": false,
          "internalType": "string",
          "name": "artistName",
          "type": "string"
        },
        {
          "indexed": false,
          "internalType": "string",
          "name": "link_avatar",
          "type": "string"
        },
        {
          "indexed": false,
          "internalType": "uint256",
          "name": "timeOfInsertion",
          "type": "uint256"
        }
      ],
      "name": "artistAdded",
      "type": "event"
    },
    {
      "anonymous": false,
      "inputs": [
        {
          "indexed": true,
          "internalType": "address",
          "name": "user",
          "type": "address"
        },
        {
          "indexed": false,
          "internalType": "string",
          "name": "artistName",
          "type": "string"
        },
        {
          "indexed": false,
          "internalType": "string",
          "name": "songName",
          "type": "string"
        },
        {
          "indexed": false,
          "internalType": "uint256",
          "name": "timeOfPurchase",
          "type": "uint256"
        },
        {
          "indexed": false,
          "internalType": "uint256",
          "name": "expirationTime",
          "type": "uint256"
        },
        {
          "indexed": false,
          "internalType": "string",
          "name": "link_cover",
          "type": "string"
        },
        {
          "indexed": false,
          "internalType": "string",
          "name": "md5",
          "type": "string"
        }
      ],
      "name": "rented",
      "type": "event"
    },
    {
      "anonymous": false,
      "inputs": [
        {
          "indexed": true,
          "internalType": "address",
          "name": "user",
          "type": "address"
        },
        {
          "indexed": true,
          "internalType": "uint256",
          "name": "idArtist",
          "type": "uint256"
        },
        {
          "indexed": true,
          "internalType": "uint256",
          "name": "id_song",
          "type": "uint256"
        },
        {
          "indexed": false,
          "internalType": "string",
          "name": "songName",
          "type": "string"
        },
        {
          "indexed": false,
          "internalType": "string",
          "name": "artistName",
          "type": "string"
        },
        {
          "indexed": false,
          "internalType": "string",
          "name": "album",
          "type": "string"
        },
        {
          "indexed": false,
          "internalType": "string",
          "name": "genre",
          "type": "string"
        },
        {
          "indexed": false,
          "internalType": "uint256",
          "name": "year",
          "type": "uint256"
        },
        {
          "indexed": false,
          "internalType": "uint256",
          "name": "timeOfInsertion",
          "type": "uint256"
        },
        {
          "indexed": false,
          "internalType": "uint256[]",
          "name": "pricing",
          "type": "uint256[]"
        },
        {
          "indexed": false,
          "internalType": "string",
          "name": "link_file",
          "type": "string"
        },
        {
          "indexed": false,
          "internalType": "string",
          "name": "link_cover",
          "type": "string"
        }
      ],
      "name": "songAdded",
      "type": "event"
    },
    {
      "inputs": [
        {
          "internalType": "address",
          "name": "",
          "type": "address"
        }
      ],
      "name": "artists",
      "outputs": [
        {
          "internalType": "string",
          "name": "",
          "type": "string"
        }
      ],
      "stateMutability": "view",
      "type": "function",
      "constant": true
    },
    {
      "inputs": [
        {
          "internalType": "string",
          "name": "",
          "type": "string"
        }
      ],
      "name": "artistsCheck",
      "outputs": [
        {
          "internalType": "uint256",
          "name": "",
          "type": "uint256"
        }
      ],
      "stateMutability": "view",
      "type": "function",
      "constant": true
    },
    {
      "inputs": [],
      "name": "owner",
      "outputs": [
        {
          "internalType": "address payable",
          "name": "",
          "type": "address"
        }
      ],
      "stateMutability": "view",
      "type": "function",
      "constant": true
    },
    {
      "inputs": [
        {
          "internalType": "string",
          "name": "",
          "type": "string"
        },
        {
          "internalType": "string",
          "name": "",
          "type": "string"
        }
      ],
      "name": "songs",
      "outputs": [
        {
          "internalType": "address payable",
          "name": "songOwner",
          "type": "address"
        },
        {
          "internalType": "uint256",
          "name": "idSong",
          "type": "uint256"
        }
      ],
      "stateMutability": "view",
      "type": "function",
      "constant": true
    },
    {
      "inputs": [
        {
          "internalType": "address",
          "name": "",
          "type": "address"
        }
      ],
      "name": "users",
      "outputs": [
        {
          "internalType": "string",
          "name": "",
          "type": "string"
        }
      ],
      "stateMutability": "view",
      "type": "function",
      "constant": true
    },
    {
      "inputs": [
        {
          "internalType": "address",
          "name": "userAddress",
          "type": "address"
        },
        {
          "internalType": "string",
          "name": "randomKey",
          "type": "string"
        }
      ],
      "name": "addUser",
      "outputs": [],
      "stateMutability": "nonpayable",
      "type": "function"
    },
    {
      "inputs": [
        {
          "internalType": "string",
          "name": "artistName",
          "type": "string"
        },
        {
          "internalType": "string",
          "name": "link_avatar",
          "type": "string"
        }
      ],
      "name": "addArtist",
      "outputs": [],
      "stateMutability": "nonpayable",
      "type": "function"
    },
    {
      "inputs": [
        {
          "internalType": "string",
          "name": "songName",
          "type": "string"
        },
        {
          "internalType": "string",
          "name": "album",
          "type": "string"
        },
        {
          "internalType": "string",
          "name": "genre",
          "type": "string"
        },
        {
          "internalType": "uint256",
          "name": "year",
          "type": "uint256"
        },
        {
          "internalType": "uint256[]",
          "name": "pricing",
          "type": "uint256[]"
        },
        {
          "internalType": "string[]",
          "name": "links",
          "type": "string[]"
        }
      ],
      "name": "addSong",
      "outputs": [],
      "stateMutability": "nonpayable",
      "type": "function"
    },
    {
      "inputs": [
        {
          "internalType": "string",
          "name": "artistName",
          "type": "string"
        },
        {
          "internalType": "string",
          "name": "songName",
          "type": "string"
        },
        {
          "internalType": "uint256",
          "name": "amountArtist",
          "type": "uint256"
        },
        {
          "internalType": "uint256",
          "name": "amountMusiChain",
          "type": "uint256"
        },
        {
          "internalType": "uint256",
          "name": "option",
          "type": "uint256"
        }
      ],
      "name": "buySong",
      "outputs": [],
      "stateMutability": "payable",
      "type": "function",
      "payable": true
    },
    {
      "inputs": [
        {
          "internalType": "string",
          "name": "artistName",
          "type": "string"
        },
        {
          "internalType": "string",
          "name": "songName",
          "type": "string"
        },
        {
          "internalType": "uint256",
          "name": "option",
          "type": "uint256"
        },
        {
          "internalType": "string",
          "name": "link_cover",
          "type": "string"
        },
        {
          "internalType": "string",
          "name": "md5",
          "type": "string"
        }
      ],
      "name": "emitRented",
      "outputs": [],
      "stateMutability": "nonpayable",
      "type": "function"
    }
  ],
  "bytecode": "0x608060405234801561001057600080fd5b50336000806101000a81548173ffffffffffffffffffffffffffffffffffffffff021916908373ffffffffffffffffffffffffffffffffffffffff16021790555060016005819055506001600681905550612781806100706000396000f3fe6080604052600436106100915760003560e01c80639e6685c7116100595780639e6685c7146101a2578063a5f577e7146101cb578063a87430ba146101f4578063b608405414610231578063de8d30731461025a57610091565b8063069dab8f14610096578063224eb928146100d357806344bd0119146101105780634b68d4311461014e5780638da5cb5b14610177575b600080fd5b3480156100a257600080fd5b506100bd60048036038101906100b891906113bd565b610276565b6040516100ca919061147a565b60405180910390f35b3480156100df57600080fd5b506100fa60048036038101906100f591906115d1565b610316565b6040516101079190611633565b60405180910390f35b34801561011c57600080fd5b506101376004803603810190610132919061164e565b610344565b6040516101459291906116e7565b60405180910390f35b34801561015a57600080fd5b5061017560048036038101906101709190611710565b6103c1565b005b34801561018357600080fd5b5061018c6104a0565b604051610199919061176c565b60405180910390f35b3480156101ae57600080fd5b506101c960048036038101906101c4919061164e565b6104c4565b005b3480156101d757600080fd5b506101f260048036038101906101ed919061195c565b61070f565b005b34801561020057600080fd5b5061021b600480360381019061021691906113bd565b610b6a565b604051610228919061147a565b60405180910390f35b34801561023d57600080fd5b5061025860048036038101906102539190611a75565b610c0a565b005b610274600480360381019061026f9190611b60565b610ed6565b005b6002602052806000526040600020600091509050805461029590611c42565b80601f01602080910402602001604051908101604052809291908181526020018280546102c190611c42565b801561030e5780601f106102e35761010080835404028352916020019161030e565b820191906000526020600020905b8154815290600101906020018083116102f157829003601f168201915b505050505081565b6003818051602081018201805184825260208301602085012081835280955050505050506000915090505481565b60018280516020810182018051848252602083016020850120818352809550505050505081805160208101820180518482526020830160208501208183528095505050505050600091509150508060000160009054906101000a900473ffffffffffffffffffffffffffffffffffffffff16908060020154905082565b3373ffffffffffffffffffffffffffffffffffffffff1660008054906101000a900473ffffffffffffffffffffffffffffffffffffffff1673ffffffffffffffffffffffffffffffffffffffff160361044f576040517f08c379a000000000000000000000000000000000000000000000000000000000815260040161044690611ce5565b60405180910390fd5b80600460008473ffffffffffffffffffffffffffffffffffffffff1673ffffffffffffffffffffffffffffffffffffffff168152602001908152602001600020908161049b9190611eb1565b505050565b60008054906101000a900473ffffffffffffffffffffffffffffffffffffffff1681565b3373ffffffffffffffffffffffffffffffffffffffff1660008054906101000a900473ffffffffffffffffffffffffffffffffffffffff1673ffffffffffffffffffffffffffffffffffffffff1603610552576040517f08c379a000000000000000000000000000000000000000000000000000000000815260040161054990611ce5565b60405180910390fd5b60006003836040516105649190611fbf565b908152602001604051809103902054146105b3576040517f08c379a00000000000000000000000000000000000000000000000000000000081526004016105aa90612022565b60405180910390fd5b6000600260003373ffffffffffffffffffffffffffffffffffffffff1673ffffffffffffffffffffffffffffffffffffffff16815260200190815260200160002080546105ff90611c42565b905014610641576040517f08c379a00000000000000000000000000000000000000000000000000000000081526004016106389061208e565b60405180910390fd5b81600260003373ffffffffffffffffffffffffffffffffffffffff1673ffffffffffffffffffffffffffffffffffffffff168152602001908152602001600020908161068d9190611eb1565b506005546003836040516106a19190611fbf565b9081526020016040518091039020819055506005547f96148d6025c63f9808b7d027cb8e5589788cdcc95d0318b0424f0b7162072268338484426040516106eb94939291906120bd565b60405180910390a2600560008154809291906107069061213f565b91905055505050565b3373ffffffffffffffffffffffffffffffffffffffff1660008054906101000a900473ffffffffffffffffffffffffffffffffffffffff1673ffffffffffffffffffffffffffffffffffffffff160361079d576040517f08c379a000000000000000000000000000000000000000000000000000000000815260040161079490611ce5565b60405180910390fd5b6000600260003373ffffffffffffffffffffffffffffffffffffffff1673ffffffffffffffffffffffffffffffffffffffff16815260200190815260200160002080546107e990611c42565b90501161082b576040517f08c379a0000000000000000000000000000000000000000000000000000000008152600401610822906121d3565b60405180910390fd5b60006001600260003373ffffffffffffffffffffffffffffffffffffffff1673ffffffffffffffffffffffffffffffffffffffff16815260200190815260200160002060405161087b9190612276565b9081526020016040518091039020876040516108979190611fbf565b908152602001604051809103902060020154146108e9576040517f08c379a00000000000000000000000000000000000000000000000000000000081526004016108e0906122d9565b60405180910390fd5b6000600260003373ffffffffffffffffffffffffffffffffffffffff1673ffffffffffffffffffffffffffffffffffffffff168152602001908152602001600020805461093590611c42565b80601f016020809104026020016040519081016040528092919081815260200182805461096190611c42565b80156109ae5780601f10610983576101008083540402835291602001916109ae565b820191906000526020600020905b81548152906001019060200180831161099157829003601f168201915b5050505050905060405180606001604052803373ffffffffffffffffffffffffffffffffffffffff1681526020018481526020016006548152506001826040516109f89190611fbf565b908152602001604051809103902088604051610a149190611fbf565b908152602001604051809103902060008201518160000160006101000a81548173ffffffffffffffffffffffffffffffffffffffff021916908373ffffffffffffffffffffffffffffffffffffffff1602179055506020820151816001019080519060200190610a859291906112e1565b5060408201518160020155905050600654600382604051610aa69190611fbf565b9081526020016040518091039020543373ffffffffffffffffffffffffffffffffffffffff167f4c2f81b35bc44c04beb1b9a357ace7a137730db4bb89fe70c3854f98a4a916608a858b8b8b428c8c600081518110610b0857610b076122f9565b5b60200260200101518d600181518110610b2457610b236122f9565b5b6020026020010151604051610b41999897969594939291906123e6565b60405180910390a460066000815480929190610b5c9061213f565b919050555050505050505050565b60046020528060005260406000206000915090508054610b8990611c42565b80601f0160208091040260200160405190810160405280929190818152602001828054610bb590611c42565b8015610c025780601f10610bd757610100808354040283529160200191610c02565b820191906000526020600020905b815481529060010190602001808311610be557829003601f168201915b505050505081565b3373ffffffffffffffffffffffffffffffffffffffff1660008054906101000a900473ffffffffffffffffffffffffffffffffffffffff1673ffffffffffffffffffffffffffffffffffffffff1603610c98576040517f08c379a0000000000000000000000000000000000000000000000000000000008152600401610c8f90611ce5565b60405180910390fd5b60008303610d0b573373ffffffffffffffffffffffffffffffffffffffff167f23c8fff2a7ad0ff215dbf41ca7a2444e2de97297ddd5f0a61192bcf83cd5e9fd8686426201518042610cea91906124a4565b8787604051610cfe969594939291906124d8565b60405180910390a2610ecf565b60018303610d7e573373ffffffffffffffffffffffffffffffffffffffff167f23c8fff2a7ad0ff215dbf41ca7a2444e2de97297ddd5f0a61192bcf83cd5e9fd8686426203f48042610d5d91906124a4565b8787604051610d71969594939291906124d8565b60405180910390a2610ece565b60028303610df1573373ffffffffffffffffffffffffffffffffffffffff167f23c8fff2a7ad0ff215dbf41ca7a2444e2de97297ddd5f0a61192bcf83cd5e9fd86864262093a8042610dd091906124a4565b8787604051610de4969594939291906124d8565b60405180910390a2610ecd565b60038303610e64573373ffffffffffffffffffffffffffffffffffffffff167f23c8fff2a7ad0ff215dbf41ca7a2444e2de97297ddd5f0a61192bcf83cd5e9fd8686426228de8042610e4391906124a4565b8787604051610e57969594939291906124d8565b60405180910390a2610ecc565b3373ffffffffffffffffffffffffffffffffffffffff167f23c8fff2a7ad0ff215dbf41ca7a2444e2de97297ddd5f0a61192bcf83cd5e9fd8686426301e1338042610eaf91906124a4565b8787604051610ec3969594939291906124d8565b60405180910390a25b5b5b5b5050505050565b848482600060048211610f4457600184604051610ef39190611fbf565b908152602001604051809103902083604051610f0f9190611fbf565b90815260200160405180910390206001018281548110610f3257610f316122f9565b5b90600052602060002001549050610f49565b600090505b803414610f8b576040517f08c379a0000000000000000000000000000000000000000000000000000000008152600401610f82906125a1565b60405180910390fd5b3373ffffffffffffffffffffffffffffffffffffffff1660008054906101000a900473ffffffffffffffffffffffffffffffffffffffff1673ffffffffffffffffffffffffffffffffffffffff1603611019576040517f08c379a000000000000000000000000000000000000000000000000000000000815260040161101090611ce5565b60405180910390fd5b6000851015801561102b575060058511155b61106a576040517f08c379a00000000000000000000000000000000000000000000000000000000081526004016110619061260d565b60405180910390fd5b3373ffffffffffffffffffffffffffffffffffffffff1660018a6040516110919190611fbf565b9081526020016040518091039020896040516110ad9190611fbf565b908152602001604051809103902060000160009054906101000a900473ffffffffffffffffffffffffffffffffffffffff1673ffffffffffffffffffffffffffffffffffffffff1603611135576040517f08c379a000000000000000000000000000000000000000000000000000000000815260040161112c90612679565b60405180910390fd5b600060018a6040516111479190611fbf565b9081526020016040518091039020896040516111639190611fbf565b908152602001604051809103902060000160009054906101000a900473ffffffffffffffffffffffffffffffffffffffff1673ffffffffffffffffffffffffffffffffffffffff16886040516111b8906126ca565b60006040518083038185875af1925050503d80600081146111f5576040519150601f19603f3d011682016040523d82523d6000602084013e6111fa565b606091505b5050905060008060009054906101000a900473ffffffffffffffffffffffffffffffffffffffff1673ffffffffffffffffffffffffffffffffffffffff1688604051611245906126ca565b60006040518083038185875af1925050503d8060008114611282576040519150601f19603f3d011682016040523d82523d6000602084013e611287565b606091505b505090508180156112955750805b6112d4576040517f08c379a00000000000000000000000000000000000000000000000000000000081526004016112cb9061272b565b60405180910390fd5b5050505050505050505050565b82805482825590600052602060002090810192821561131d579160200282015b8281111561131c578251825591602001919060010190611301565b5b50905061132a919061132e565b5090565b5b8082111561134757600081600090555060010161132f565b5090565b6000604051905090565b600080fd5b600080fd5b600073ffffffffffffffffffffffffffffffffffffffff82169050919050565b600061138a8261135f565b9050919050565b61139a8161137f565b81146113a557600080fd5b50565b6000813590506113b781611391565b92915050565b6000602082840312156113d3576113d2611355565b5b60006113e1848285016113a8565b91505092915050565b600081519050919050565b600082825260208201905092915050565b60005b83811015611424578082015181840152602081019050611409565b60008484015250505050565b6000601f19601f8301169050919050565b600061144c826113ea565b61145681856113f5565b9350611466818560208601611406565b61146f81611430565b840191505092915050565b600060208201905081810360008301526114948184611441565b905092915050565b600080fd5b600080fd5b7f4e487b7100000000000000000000000000000000000000000000000000000000600052604160045260246000fd5b6114de82611430565b810181811067ffffffffffffffff821117156114fd576114fc6114a6565b5b80604052505050565b600061151061134b565b905061151c82826114d5565b919050565b600067ffffffffffffffff82111561153c5761153b6114a6565b5b61154582611430565b9050602081019050919050565b82818337600083830152505050565b600061157461156f84611521565b611506565b9050828152602081018484840111156115905761158f6114a1565b5b61159b848285611552565b509392505050565b600082601f8301126115b8576115b761149c565b5b81356115c8848260208601611561565b91505092915050565b6000602082840312156115e7576115e6611355565b5b600082013567ffffffffffffffff8111156116055761160461135a565b5b611611848285016115a3565b91505092915050565b6000819050919050565b61162d8161161a565b82525050565b60006020820190506116486000830184611624565b92915050565b6000806040838503121561166557611664611355565b5b600083013567ffffffffffffffff8111156116835761168261135a565b5b61168f858286016115a3565b925050602083013567ffffffffffffffff8111156116b0576116af61135a565b5b6116bc858286016115a3565b9150509250929050565b60006116d18261135f565b9050919050565b6116e1816116c6565b82525050565b60006040820190506116fc60008301856116d8565b6117096020830184611624565b9392505050565b6000806040838503121561172757611726611355565b5b6000611735858286016113a8565b925050602083013567ffffffffffffffff8111156117565761175561135a565b5b611762858286016115a3565b9150509250929050565b600060208201905061178160008301846116d8565b92915050565b6117908161161a565b811461179b57600080fd5b50565b6000813590506117ad81611787565b92915050565b600067ffffffffffffffff8211156117ce576117cd6114a6565b5b602082029050602081019050919050565b600080fd5b60006117f76117f2846117b3565b611506565b9050808382526020820190506020840283018581111561181a576118196117df565b5b835b81811015611843578061182f888261179e565b84526020840193505060208101905061181c565b5050509392505050565b600082601f8301126118625761186161149c565b5b81356118728482602086016117e4565b91505092915050565b600067ffffffffffffffff821115611896576118956114a6565b5b602082029050602081019050919050565b60006118ba6118b58461187b565b611506565b905080838252602082019050602084028301858111156118dd576118dc6117df565b5b835b8181101561192457803567ffffffffffffffff8111156119025761190161149c565b5b80860161190f89826115a3565b855260208501945050506020810190506118df565b5050509392505050565b600082601f8301126119435761194261149c565b5b81356119538482602086016118a7565b91505092915050565b60008060008060008060c0878903121561197957611978611355565b5b600087013567ffffffffffffffff8111156119975761199661135a565b5b6119a389828a016115a3565b965050602087013567ffffffffffffffff8111156119c4576119c361135a565b5b6119d089828a016115a3565b955050604087013567ffffffffffffffff8111156119f1576119f061135a565b5b6119fd89828a016115a3565b9450506060611a0e89828a0161179e565b935050608087013567ffffffffffffffff811115611a2f57611a2e61135a565b5b611a3b89828a0161184d565b92505060a087013567ffffffffffffffff811115611a5c57611a5b61135a565b5b611a6889828a0161192e565b9150509295509295509295565b600080600080600060a08688031215611a9157611a90611355565b5b600086013567ffffffffffffffff811115611aaf57611aae61135a565b5b611abb888289016115a3565b955050602086013567ffffffffffffffff811115611adc57611adb61135a565b5b611ae8888289016115a3565b9450506040611af98882890161179e565b935050606086013567ffffffffffffffff811115611b1a57611b1961135a565b5b611b26888289016115a3565b925050608086013567ffffffffffffffff811115611b4757611b4661135a565b5b611b53888289016115a3565b9150509295509295909350565b600080600080600060a08688031215611b7c57611b7b611355565b5b600086013567ffffffffffffffff811115611b9a57611b9961135a565b5b611ba6888289016115a3565b955050602086013567ffffffffffffffff811115611bc757611bc661135a565b5b611bd3888289016115a3565b9450506040611be48882890161179e565b9350506060611bf58882890161179e565b9250506080611c068882890161179e565b9150509295509295909350565b7f4e487b7100000000000000000000000000000000000000000000000000000000600052602260045260246000fd5b60006002820490506001821680611c5a57607f821691505b602082108103611c6d57611c6c611c13565b5b50919050565b7f4d757369436861696e204f776e65722063616e6e6f7420706572666f6d65207460008201527f6869730000000000000000000000000000000000000000000000000000000000602082015250565b6000611ccf6023836113f5565b9150611cda82611c73565b604082019050919050565b60006020820190508181036000830152611cfe81611cc2565b9050919050565b60008190508160005260206000209050919050565b60006020601f8301049050919050565b600082821b905092915050565b600060088302611d677fffffffffffffffffffffffffffffffffffffffffffffffffffffffffffffffff82611d2a565b611d718683611d2a565b95508019841693508086168417925050509392505050565b6000819050919050565b6000611dae611da9611da48461161a565b611d89565b61161a565b9050919050565b6000819050919050565b611dc883611d93565b611ddc611dd482611db5565b848454611d37565b825550505050565b600090565b611df1611de4565b611dfc818484611dbf565b505050565b5b81811015611e2057611e15600082611de9565b600181019050611e02565b5050565b601f821115611e6557611e3681611d05565b611e3f84611d1a565b81016020851015611e4e578190505b611e62611e5a85611d1a565b830182611e01565b50505b505050565b600082821c905092915050565b6000611e8860001984600802611e6a565b1980831691505092915050565b6000611ea18383611e77565b9150826002028217905092915050565b611eba826113ea565b67ffffffffffffffff811115611ed357611ed26114a6565b5b611edd8254611c42565b611ee8828285611e24565b600060209050601f831160018114611f1b5760008415611f09578287015190505b611f138582611e95565b865550611f7b565b601f198416611f2986611d05565b60005b82811015611f5157848901518255600182019150602085019450602081019050611f2c565b86831015611f6e5784890151611f6a601f891682611e77565b8355505b6001600288020188555050505b505050505050565b600081905092915050565b6000611f99826113ea565b611fa38185611f83565b9350611fb3818560208601611406565b80840191505092915050565b6000611fcb8284611f8e565b915081905092915050565b7f4172746973747320616c72656164792065786973747300000000000000000000600082015250565b600061200c6016836113f5565b915061201782611fd6565b602082019050919050565b6000602082019050818103600083015261203b81611fff565b9050919050565b7f596f752061726520616c726561647920616e2061727469737400000000000000600082015250565b60006120786019836113f5565b915061208382612042565b602082019050919050565b600060208201905081810360008301526120a78161206b565b9050919050565b6120b78161137f565b82525050565b60006080820190506120d260008301876120ae565b81810360208301526120e48186611441565b905081810360408301526120f88185611441565b90506121076060830184611624565b95945050505050565b7f4e487b7100000000000000000000000000000000000000000000000000000000600052601160045260246000fd5b600061214a8261161a565b91507fffffffffffffffffffffffffffffffffffffffffffffffffffffffffffffffff820361217c5761217b612110565b5b600182019050919050565b7f596f7520617265206e6f7420616e206172746973747300000000000000000000600082015250565b60006121bd6016836113f5565b91506121c882612187565b602082019050919050565b600060208201905081810360008301526121ec816121b0565b9050919050565b6000815461220081611c42565b61220a8186611f83565b94506001821660008114612225576001811461223a5761226d565b60ff198316865281151582028601935061226d565b61224385611d05565b60005b8381101561226557815481890152600182019150602081019050612246565b838801955050505b50505092915050565b600061228282846121f3565b915081905092915050565b7f416c72656164792070726573656e740000000000000000000000000000000000600082015250565b60006122c3600f836113f5565b91506122ce8261228d565b602082019050919050565b600060208201905081810360008301526122f2816122b6565b9050919050565b7f4e487b7100000000000000000000000000000000000000000000000000000000600052603260045260246000fd5b600081519050919050565b600082825260208201905092915050565b6000819050602082019050919050565b61235d8161161a565b82525050565b600061236f8383612354565b60208301905092915050565b6000602082019050919050565b600061239382612328565b61239d8185612333565b93506123a883612344565b8060005b838110156123d95781516123c08882612363565b97506123cb8361237b565b9250506001810190506123ac565b5085935050505092915050565b6000610120820190508181036000830152612401818c611441565b90508181036020830152612415818b611441565b90508181036040830152612429818a611441565b9050818103606083015261243d8189611441565b905061244c6080830188611624565b61245960a0830187611624565b81810360c083015261246b8186612388565b905081810360e083015261247f8185611441565b90508181036101008301526124948184611441565b90509a9950505050505050505050565b60006124af8261161a565b91506124ba8361161a565b92508282019050808211156124d2576124d1612110565b5b92915050565b600060c08201905081810360008301526124f28189611441565b905081810360208301526125068188611441565b90506125156040830187611624565b6125226060830186611624565b81810360808301526125348185611441565b905081810360a08301526125488184611441565b9050979650505050505050565b7f49742773206e6f742074686520726967687420616d6f756e7400000000000000600082015250565b600061258b6019836113f5565b915061259682612555565b602082019050919050565b600060208201905081810360008301526125ba8161257e565b9050919050565b7f4e6f7420746865207269676874206f7074696f6e000000000000000000000000600082015250565b60006125f76014836113f5565b9150612602826125c1565b602082019050919050565b60006020820190508181036000830152612626816125ea565b9050919050565b7f4172746973742063616e6e6f742062757920697473206d757369630000000000600082015250565b6000612663601b836113f5565b915061266e8261262d565b602082019050919050565b6000602082019050818103600083015261269281612656565b9050919050565b600081905092915050565b50565b60006126b4600083612699565b91506126bf826126a4565b600082019050919050565b60006126d5826126a7565b9150819050919050565b7f4661696c20746f2073656e642045746865720000000000000000000000000000600082015250565b60006127156012836113f5565b9150612720826126df565b602082019050919050565b6000602082019050818103600083015261274481612708565b905091905056fea26469706673582212201e5b97828ed3dd1056d695a2fbac8f038447211de5276ec608e6484b0c73ffeb64736f6c63430008110033",
  "immutableReferences": {},
  "source": "//SPDX-License-Identifier: MIT\r\npragma solidity ^0.8.0;\r\n\r\ncontract MusiChain {\r\n    address payable public owner;\r\n    mapping(string => mapping(string => Song)) public songs; // una canzone  identificata dalla coppia (NomeArtista, NomeCanzone)\r\n    mapping(address => string) public artists; //Per verificare chi richiama la funzione addArtist non abbia gi agggiunto un artista, questo perch un account pu essere associato a solo un artista\r\n    mapping(string => uint) public artistsCheck; //per controllare che il nome dell'artista non sia gi stato usato\r\n    mapping(address => string) public users;\r\n    struct Song{\r\n        address payable songOwner; //l'indirizzo dell'artista\r\n        uint[] pricing;\r\n        uint idSong;\r\n    }\r\n    \r\n    uint private idArtist; // id assegnato progressivamente ad ogni artista inserito in MusiChain\r\n    uint private idSong;\r\n\r\n    constructor(){\r\n        owner = payable(msg.sender);\r\n        idArtist = 1;\r\n        idSong = 1;\r\n    }\r\n\r\n    event rented(address indexed user, string artistName, string songName, uint timeOfPurchase, uint expirationTime, string link_cover, string md5);\r\n    event artistAdded(address user, uint indexed idArtist, string artistName, string link_avatar, uint timeOfInsertion); //evento che verr richiamato all'aggiunta di un nuovo artista in MusiChain\r\n    event songAdded(address indexed user, uint indexed idArtist, uint indexed id_song, string songName, string artistName, string album, string genre, uint year, uint timeOfInsertion, uint[] pricing, string link_file, string link_cover); //evento che verr richiamato all'aggiunta di una nuova canzone\r\n\r\n    modifier costs(string memory artistName, string memory songName, uint option){ // modificatore per il controllo della quantit di ether per procedere all'acquisto della canzone\r\n        uint amount;\r\n        if(option <=4){\r\n            amount = songs[artistName][songName].pricing[option];\r\n        }else{\r\n            amount = 0;\r\n        }\r\n        \r\n        require(msg.value == amount, \"It's not the right amount\");\r\n        _;\r\n    }\r\n\r\n    modifier notOwner{ // modificatore per controllare che l'account proprietario di MusiChain non esegua operazioni non consentite come l'aggiunta di un artista o di una canzone\r\n        require(owner != msg.sender, \"MusiChain Owner cannot perfome this\");\r\n        _;\r\n    }\r\n\r\n    function addUser(address userAddress, string memory randomKey) external notOwner{\r\n        users[userAddress] = randomKey;\r\n    }\r\n\r\n    function addArtist(string memory artistName, string memory link_avatar) external notOwner{\r\n        require(artistsCheck[artistName] == 0,\"Artists already exists\"); //controllo che l'artista non sia gi stato inserito precedentemente\r\n        require(bytes(artists[msg.sender]).length == 0 ,\"You are already an artist\"); // controllo che l'account che usa questa funzione non sia gi un artista\r\n        artists[msg.sender] = artistName;\r\n        artistsCheck[artistName] = idArtist;\r\n        emit artistAdded(msg.sender, idArtist, artistName , link_avatar, block.timestamp);\r\n        idArtist++;\r\n    }\r\n    \r\n    function addSong(string memory songName, string memory album, string memory genre, uint year, uint[] memory pricing, string[] memory links) external notOwner{\r\n        require(bytes(artists[msg.sender]).length > 0 ,\"You are not an artists\"); // controllo che chi utilizzi questa funzione sia un artista\r\n        require((songs[artists[msg.sender]][songName].idSong == 0),\"Already present\"); // controllo che la canzone non sia gi inserita\r\n        string memory artistName = artists[msg.sender];\r\n        songs[artistName][songName] = Song(payable(msg.sender), pricing, idSong); //inserisco automaticamente il nome dell'artista, in quanto solo un artista  associato ad un determinato account\r\n\r\n        emit songAdded(msg.sender, artistsCheck[artistName],idSong, songName, artistName, album, genre, year, block.timestamp, pricing, links[0], links[1]);\r\n        idSong++;\r\n    }\r\n\r\n    function buySong(string memory artistName, string memory songName, uint amountArtist, uint amountMusiChain, uint option) external payable costs(artistName, songName, option) notOwner{ \r\n        require(option>=0 && option<=5, \"Not the right option\");\r\n        require(songs[artistName][songName].songOwner != msg.sender,\"Artist cannot buy its music\"); // controllo che l'artsta non compri la sua stessa musica\r\n        (bool sentArtist,) = songs[artistName][songName].songOwner.call{value: (amountArtist)}(\"\"); // invio degli ethers all'account dell'artista\r\n        (bool sentMusiChian,) = owner.call{value: (amountMusiChain)}(\"\"); // invio degli ethers all'acount del proprietario di MusiChain\r\n        require(sentArtist && sentMusiChian,\"Fail to send Ether\"); // controllo che le operazioni siano andate a buon fine\r\n    }\r\n\r\n    function emitRented(string memory artistName, string memory songName, uint option, string memory link_cover, string memory md5) external notOwner{\r\n        if(option == 0){\r\n            emit rented(msg.sender, artistName, songName, block.timestamp, block.timestamp + 1 days, link_cover, md5);\r\n        }else if(option == 1){\r\n            emit rented(msg.sender, artistName, songName, block.timestamp, block.timestamp + (3*1 days), link_cover, md5);\r\n        }else if(option == 2){\r\n            emit rented(msg.sender, artistName, songName, block.timestamp, block.timestamp + 1 weeks, link_cover, md5);\r\n        }else if(option == 3){\r\n            emit rented(msg.sender, artistName, songName, block.timestamp, block.timestamp + (31*1 days), link_cover, md5);\r\n        }else{\r\n            emit rented(msg.sender, artistName, songName, block.timestamp, block.timestamp + (365*1 days), link_cover, md5);\r\n        }\r\n    }\r\n\r\n}",
  "sourcePath": "C:\\Users\\sergi\\Documents\\Uni Magistrale\\Secondo Anno\\Primo Semestre\\Ing. SW\\Progetto\\MusiChainWebApp\\musichain\\contracts\\MusiChain.sol",
  "compiler": {
    "name": "solc",
    "version": "0.8.17+commit.8df45f5f.Emscripten.clang"
  },
  "schemaVersion": "3.4.10",
  "updatedAt": "2022-12-21T13:06:56.686Z",
  "networkType": "ethereum",
  "devdoc": {
    "kind": "dev",
    "methods": {},
    "version": 1
  },
  "userdoc": {
    "kind": "user",
    "methods": {},
    "version": 1
  }
}