{
  "contractName": "MusiChain",
  "abi": [
    {
      "inputs": [],
      "stateMutability": "nonpayable",
      "type": "constructor"
    },
    {
      "anonymous": false,
      "inputs": [
        {
          "indexed": false,
          "internalType": "address",
          "name": "user",
          "type": "address"
        },
        {
          "indexed": true,
          "internalType": "uint256",
          "name": "idArtist",
          "type": "uint256"
        },
        {
          "indexed": false,
          "internalType": "string",
          "name": "artistName",
          "type": "string"
        },
        {
          "indexed": false,
          "internalType": "string",
          "name": "link_avatar",
          "type": "string"
        },
        {
          "indexed": false,
          "internalType": "uint256",
          "name": "timeOfInsertion",
          "type": "uint256"
        }
      ],
      "name": "artistAdded",
      "type": "event"
    },
    {
      "anonymous": false,
      "inputs": [
        {
          "indexed": true,
          "internalType": "address",
          "name": "user",
          "type": "address"
        },
        {
          "indexed": false,
          "internalType": "string",
          "name": "artistName",
          "type": "string"
        },
        {
          "indexed": false,
          "internalType": "string",
          "name": "songName",
          "type": "string"
        },
        {
          "indexed": false,
          "internalType": "uint256",
          "name": "timeOfPurchase",
          "type": "uint256"
        },
        {
          "indexed": false,
          "internalType": "uint256",
          "name": "expirationTime",
          "type": "uint256"
        },
        {
          "indexed": false,
          "internalType": "string",
          "name": "link_cover",
          "type": "string"
        }
      ],
      "name": "rented",
      "type": "event"
    },
    {
      "anonymous": false,
      "inputs": [
        {
          "indexed": true,
          "internalType": "address",
          "name": "user",
          "type": "address"
        },
        {
          "indexed": true,
          "internalType": "uint256",
          "name": "idArtist",
          "type": "uint256"
        },
        {
          "indexed": true,
          "internalType": "uint256",
          "name": "id_song",
          "type": "uint256"
        },
        {
          "indexed": false,
          "internalType": "string",
          "name": "songName",
          "type": "string"
        },
        {
          "indexed": false,
          "internalType": "string",
          "name": "artistName",
          "type": "string"
        },
        {
          "indexed": false,
          "internalType": "string",
          "name": "album",
          "type": "string"
        },
        {
          "indexed": false,
          "internalType": "string",
          "name": "genre",
          "type": "string"
        },
        {
          "indexed": false,
          "internalType": "uint256",
          "name": "year",
          "type": "uint256"
        },
        {
          "indexed": false,
          "internalType": "uint256",
          "name": "timeOfInsertion",
          "type": "uint256"
        },
        {
          "indexed": false,
          "internalType": "uint256[]",
          "name": "pricing",
          "type": "uint256[]"
        },
        {
          "indexed": false,
          "internalType": "string",
          "name": "link_file",
          "type": "string"
        },
        {
          "indexed": false,
          "internalType": "string",
          "name": "link_cover",
          "type": "string"
        }
      ],
      "name": "songAdded",
      "type": "event"
    },
    {
      "inputs": [
        {
          "internalType": "address",
          "name": "",
          "type": "address"
        }
      ],
      "name": "artists",
      "outputs": [
        {
          "internalType": "string",
          "name": "",
          "type": "string"
        }
      ],
      "stateMutability": "view",
      "type": "function",
      "constant": true
    },
    {
      "inputs": [
        {
          "internalType": "string",
          "name": "",
          "type": "string"
        }
      ],
      "name": "artistsCheck",
      "outputs": [
        {
          "internalType": "uint256",
          "name": "",
          "type": "uint256"
        }
      ],
      "stateMutability": "view",
      "type": "function",
      "constant": true
    },
    {
      "inputs": [],
      "name": "owner",
      "outputs": [
        {
          "internalType": "address payable",
          "name": "",
          "type": "address"
        }
      ],
      "stateMutability": "view",
      "type": "function",
      "constant": true
    },
    {
      "inputs": [
        {
          "internalType": "string",
          "name": "",
          "type": "string"
        },
        {
          "internalType": "string",
          "name": "",
          "type": "string"
        }
      ],
      "name": "songs",
      "outputs": [
        {
          "internalType": "address payable",
          "name": "songOwner",
          "type": "address"
        },
        {
          "internalType": "uint256",
          "name": "idSong",
          "type": "uint256"
        }
      ],
      "stateMutability": "view",
      "type": "function",
      "constant": true
    },
    {
      "inputs": [
        {
          "internalType": "string",
          "name": "artistName",
          "type": "string"
        },
        {
          "internalType": "string",
          "name": "link_avatar",
          "type": "string"
        }
      ],
      "name": "addArtist",
      "outputs": [],
      "stateMutability": "nonpayable",
      "type": "function"
    },
    {
      "inputs": [
        {
          "internalType": "string",
          "name": "songName",
          "type": "string"
        },
        {
          "internalType": "string",
          "name": "album",
          "type": "string"
        },
        {
          "internalType": "string",
          "name": "genre",
          "type": "string"
        },
        {
          "internalType": "uint256",
          "name": "year",
          "type": "uint256"
        },
        {
          "internalType": "uint256[]",
          "name": "pricing",
          "type": "uint256[]"
        },
        {
          "internalType": "string[]",
          "name": "links",
          "type": "string[]"
        }
      ],
      "name": "addSong",
      "outputs": [],
      "stateMutability": "nonpayable",
      "type": "function"
    },
    {
      "inputs": [
        {
          "internalType": "string",
          "name": "artistName",
          "type": "string"
        },
        {
          "internalType": "string",
          "name": "songName",
          "type": "string"
        },
        {
          "internalType": "uint256",
          "name": "amountArtist",
          "type": "uint256"
        },
        {
          "internalType": "uint256",
          "name": "amountMusiChain",
          "type": "uint256"
        },
        {
          "internalType": "uint256",
          "name": "option",
          "type": "uint256"
        },
        {
          "internalType": "string",
          "name": "link_cover",
          "type": "string"
        }
      ],
      "name": "buySong",
      "outputs": [],
      "stateMutability": "payable",
      "type": "function",
      "payable": true
    }
  ],
  "bytecode": "0x608060405234801561001057600080fd5b50336000806101000a81548173ffffffffffffffffffffffffffffffffffffffff021916908373ffffffffffffffffffffffffffffffffffffffff16021790555060016004819055506001600581905550612386806100706000396000f3fe6080604052600436106100705760003560e01c80638da5cb5b1161004e5780638da5cb5b1461012d5780639e6685c714610158578063a5f577e714610181578063b0430e8a146101aa57610070565b8063069dab8f14610075578063224eb928146100b257806344bd0119146100ef575b600080fd5b34801561008157600080fd5b5061009c600480360381019061009791906110f0565b6101c6565b6040516100a991906111ad565b60405180910390f35b3480156100be57600080fd5b506100d960048036038101906100d49190611304565b610266565b6040516100e69190611366565b60405180910390f35b3480156100fb57600080fd5b5061011660048036038101906101119190611381565b610294565b60405161012492919061141a565b60405180910390f35b34801561013957600080fd5b50610142610311565b60405161014f9190611443565b60405180910390f35b34801561016457600080fd5b5061017f600480360381019061017a9190611381565b610335565b005b34801561018d57600080fd5b506101a860048036038101906101a39190611633565b610580565b005b6101c460048036038101906101bf919061174c565b6109db565b005b600260205280600052604060002060009150905080546101e59061185c565b80601f01602080910402602001604051908101604052809291908181526020018280546102119061185c565b801561025e5780601f106102335761010080835404028352916020019161025e565b820191906000526020600020905b81548152906001019060200180831161024157829003601f168201915b505050505081565b6003818051602081018201805184825260208301602085012081835280955050505050506000915090505481565b60018280516020810182018051848252602083016020850120818352809550505050505081805160208101820180518482526020830160208501208183528095505050505050600091509150508060000160009054906101000a900473ffffffffffffffffffffffffffffffffffffffff16908060020154905082565b60008054906101000a900473ffffffffffffffffffffffffffffffffffffffff1681565b3373ffffffffffffffffffffffffffffffffffffffff1660008054906101000a900473ffffffffffffffffffffffffffffffffffffffff1673ffffffffffffffffffffffffffffffffffffffff16036103c3576040517f08c379a00000000000000000000000000000000000000000000000000000000081526004016103ba906118ff565b60405180910390fd5b60006003836040516103d5919061195b565b90815260200160405180910390205414610424576040517f08c379a000000000000000000000000000000000000000000000000000000000815260040161041b906119be565b60405180910390fd5b6000600260003373ffffffffffffffffffffffffffffffffffffffff1673ffffffffffffffffffffffffffffffffffffffff16815260200190815260200160002080546104709061185c565b9050146104b2576040517f08c379a00000000000000000000000000000000000000000000000000000000081526004016104a990611a2a565b60405180910390fd5b81600260003373ffffffffffffffffffffffffffffffffffffffff1673ffffffffffffffffffffffffffffffffffffffff16815260200190815260200160002090816104fe9190611bf6565b50600454600383604051610512919061195b565b9081526020016040518091039020819055506004547f96148d6025c63f9808b7d027cb8e5589788cdcc95d0318b0424f0b71620722683384844260405161055c9493929190611cd7565b60405180910390a26004600081548092919061057790611d59565b91905055505050565b3373ffffffffffffffffffffffffffffffffffffffff1660008054906101000a900473ffffffffffffffffffffffffffffffffffffffff1673ffffffffffffffffffffffffffffffffffffffff160361060e576040517f08c379a0000000000000000000000000000000000000000000000000000000008152600401610605906118ff565b60405180910390fd5b6000600260003373ffffffffffffffffffffffffffffffffffffffff1673ffffffffffffffffffffffffffffffffffffffff168152602001908152602001600020805461065a9061185c565b90501161069c576040517f08c379a000000000000000000000000000000000000000000000000000000000815260040161069390611ded565b60405180910390fd5b60006001600260003373ffffffffffffffffffffffffffffffffffffffff1673ffffffffffffffffffffffffffffffffffffffff1681526020019081526020016000206040516106ec9190611e90565b908152602001604051809103902087604051610708919061195b565b9081526020016040518091039020600201541461075a576040517f08c379a000000000000000000000000000000000000000000000000000000000815260040161075190611ef3565b60405180910390fd5b6000600260003373ffffffffffffffffffffffffffffffffffffffff1673ffffffffffffffffffffffffffffffffffffffff16815260200190815260200160002080546107a69061185c565b80601f01602080910402602001604051908101604052809291908181526020018280546107d29061185c565b801561081f5780601f106107f45761010080835404028352916020019161081f565b820191906000526020600020905b81548152906001019060200180831161080257829003601f168201915b5050505050905060405180606001604052803373ffffffffffffffffffffffffffffffffffffffff168152602001848152602001600554815250600182604051610869919061195b565b908152602001604051809103902088604051610885919061195b565b908152602001604051809103902060008201518160000160006101000a81548173ffffffffffffffffffffffffffffffffffffffff021916908373ffffffffffffffffffffffffffffffffffffffff16021790555060208201518160010190805190602001906108f6929190611014565b5060408201518160020155905050600554600382604051610917919061195b565b9081526020016040518091039020543373ffffffffffffffffffffffffffffffffffffffff167f4c2f81b35bc44c04beb1b9a357ace7a137730db4bb89fe70c3854f98a4a916608a858b8b8b428c8c60008151811061097957610978611f13565b5b60200260200101518d60018151811061099557610994611f13565b5b60200260200101516040516109b299989796959493929190612000565b60405180910390a4600560008154809291906109cd90611d59565b919050555050505050505050565b858583600060048211610a49576001846040516109f8919061195b565b908152602001604051809103902083604051610a14919061195b565b90815260200160405180910390206001018281548110610a3757610a36611f13565b5b90600052602060002001549050610a4e565b600090505b803414610a90576040517f08c379a0000000000000000000000000000000000000000000000000000000008152600401610a879061210a565b60405180910390fd5b3373ffffffffffffffffffffffffffffffffffffffff1660008054906101000a900473ffffffffffffffffffffffffffffffffffffffff1673ffffffffffffffffffffffffffffffffffffffff1603610b1e576040517f08c379a0000000000000000000000000000000000000000000000000000000008152600401610b15906118ff565b60405180910390fd5b60008610158015610b30575060058611155b610b6f576040517f08c379a0000000000000000000000000000000000000000000000000000000008152600401610b6690612176565b60405180910390fd5b3373ffffffffffffffffffffffffffffffffffffffff1660018b604051610b96919061195b565b90815260200160405180910390208a604051610bb2919061195b565b908152602001604051809103902060000160009054906101000a900473ffffffffffffffffffffffffffffffffffffffff1673ffffffffffffffffffffffffffffffffffffffff1603610c3a576040517f08c379a0000000000000000000000000000000000000000000000000000000008152600401610c31906121e2565b60405180910390fd5b600060018b604051610c4c919061195b565b90815260200160405180910390208a604051610c68919061195b565b908152602001604051809103902060000160009054906101000a900473ffffffffffffffffffffffffffffffffffffffff1673ffffffffffffffffffffffffffffffffffffffff1689604051610cbd90612233565b60006040518083038185875af1925050503d8060008114610cfa576040519150601f19603f3d011682016040523d82523d6000602084013e610cff565b606091505b5050905060008060009054906101000a900473ffffffffffffffffffffffffffffffffffffffff1673ffffffffffffffffffffffffffffffffffffffff1689604051610d4a90612233565b60006040518083038185875af1925050503d8060008114610d87576040519150601f19603f3d011682016040523d82523d6000602084013e610d8c565b606091505b50509050818015610d9a5750805b610dd9576040517f08c379a0000000000000000000000000000000000000000000000000000000008152600401610dd090612294565b60405180910390fd5b60008803610e4a573373ffffffffffffffffffffffffffffffffffffffff167f683c5f4d026c1c8682bf2c365add34f6b447e71fdcfb005be8c719d4f732cd188d8d426201518042610e2b91906122b4565b8c604051610e3d9594939291906122e8565b60405180910390a2611006565b60018803610ebb573373ffffffffffffffffffffffffffffffffffffffff167f683c5f4d026c1c8682bf2c365add34f6b447e71fdcfb005be8c719d4f732cd188d8d426203f48042610e9c91906122b4565b8c604051610eae9594939291906122e8565b60405180910390a2611005565b60028803610f2c573373ffffffffffffffffffffffffffffffffffffffff167f683c5f4d026c1c8682bf2c365add34f6b447e71fdcfb005be8c719d4f732cd188d8d4262093a8042610f0d91906122b4565b8c604051610f1f9594939291906122e8565b60405180910390a2611004565b60038803610f9d573373ffffffffffffffffffffffffffffffffffffffff167f683c5f4d026c1c8682bf2c365add34f6b447e71fdcfb005be8c719d4f732cd188d8d426228de8042610f7e91906122b4565b8c604051610f909594939291906122e8565b60405180910390a2611003565b3373ffffffffffffffffffffffffffffffffffffffff167f683c5f4d026c1c8682bf2c365add34f6b447e71fdcfb005be8c719d4f732cd188d8d426301e1338042610fe891906122b4565b8c604051610ffa9594939291906122e8565b60405180910390a25b5b5b5b505050505050505050505050565b828054828255906000526020600020908101928215611050579160200282015b8281111561104f578251825591602001919060010190611034565b5b50905061105d9190611061565b5090565b5b8082111561107a576000816000905550600101611062565b5090565b6000604051905090565b600080fd5b600080fd5b600073ffffffffffffffffffffffffffffffffffffffff82169050919050565b60006110bd82611092565b9050919050565b6110cd816110b2565b81146110d857600080fd5b50565b6000813590506110ea816110c4565b92915050565b60006020828403121561110657611105611088565b5b6000611114848285016110db565b91505092915050565b600081519050919050565b600082825260208201905092915050565b60005b8381101561115757808201518184015260208101905061113c565b60008484015250505050565b6000601f19601f8301169050919050565b600061117f8261111d565b6111898185611128565b9350611199818560208601611139565b6111a281611163565b840191505092915050565b600060208201905081810360008301526111c78184611174565b905092915050565b600080fd5b600080fd5b7f4e487b7100000000000000000000000000000000000000000000000000000000600052604160045260246000fd5b61121182611163565b810181811067ffffffffffffffff821117156112305761122f6111d9565b5b80604052505050565b600061124361107e565b905061124f8282611208565b919050565b600067ffffffffffffffff82111561126f5761126e6111d9565b5b61127882611163565b9050602081019050919050565b82818337600083830152505050565b60006112a76112a284611254565b611239565b9050828152602081018484840111156112c3576112c26111d4565b5b6112ce848285611285565b509392505050565b600082601f8301126112eb576112ea6111cf565b5b81356112fb848260208601611294565b91505092915050565b60006020828403121561131a57611319611088565b5b600082013567ffffffffffffffff8111156113385761133761108d565b5b611344848285016112d6565b91505092915050565b6000819050919050565b6113608161134d565b82525050565b600060208201905061137b6000830184611357565b92915050565b6000806040838503121561139857611397611088565b5b600083013567ffffffffffffffff8111156113b6576113b561108d565b5b6113c2858286016112d6565b925050602083013567ffffffffffffffff8111156113e3576113e261108d565b5b6113ef858286016112d6565b9150509250929050565b600061140482611092565b9050919050565b611414816113f9565b82525050565b600060408201905061142f600083018561140b565b61143c6020830184611357565b9392505050565b6000602082019050611458600083018461140b565b92915050565b6114678161134d565b811461147257600080fd5b50565b6000813590506114848161145e565b92915050565b600067ffffffffffffffff8211156114a5576114a46111d9565b5b602082029050602081019050919050565b600080fd5b60006114ce6114c98461148a565b611239565b905080838252602082019050602084028301858111156114f1576114f06114b6565b5b835b8181101561151a57806115068882611475565b8452602084019350506020810190506114f3565b5050509392505050565b600082601f830112611539576115386111cf565b5b81356115498482602086016114bb565b91505092915050565b600067ffffffffffffffff82111561156d5761156c6111d9565b5b602082029050602081019050919050565b600061159161158c84611552565b611239565b905080838252602082019050602084028301858111156115b4576115b36114b6565b5b835b818110156115fb57803567ffffffffffffffff8111156115d9576115d86111cf565b5b8086016115e689826112d6565b855260208501945050506020810190506115b6565b5050509392505050565b600082601f83011261161a576116196111cf565b5b813561162a84826020860161157e565b91505092915050565b60008060008060008060c087890312156116505761164f611088565b5b600087013567ffffffffffffffff81111561166e5761166d61108d565b5b61167a89828a016112d6565b965050602087013567ffffffffffffffff81111561169b5761169a61108d565b5b6116a789828a016112d6565b955050604087013567ffffffffffffffff8111156116c8576116c761108d565b5b6116d489828a016112d6565b94505060606116e589828a01611475565b935050608087013567ffffffffffffffff8111156117065761170561108d565b5b61171289828a01611524565b92505060a087013567ffffffffffffffff8111156117335761173261108d565b5b61173f89828a01611605565b9150509295509295509295565b60008060008060008060c0878903121561176957611768611088565b5b600087013567ffffffffffffffff8111156117875761178661108d565b5b61179389828a016112d6565b965050602087013567ffffffffffffffff8111156117b4576117b361108d565b5b6117c089828a016112d6565b95505060406117d189828a01611475565b94505060606117e289828a01611475565b93505060806117f389828a01611475565b92505060a087013567ffffffffffffffff8111156118145761181361108d565b5b61182089828a016112d6565b9150509295509295509295565b7f4e487b7100000000000000000000000000000000000000000000000000000000600052602260045260246000fd5b6000600282049050600182168061187457607f821691505b6020821081036118875761188661182d565b5b50919050565b7f4d757369436861696e204f776e65722063616e6e6f7420706572666f6d65207460008201527f6869730000000000000000000000000000000000000000000000000000000000602082015250565b60006118e9602383611128565b91506118f48261188d565b604082019050919050565b60006020820190508181036000830152611918816118dc565b9050919050565b600081905092915050565b60006119358261111d565b61193f818561191f565b935061194f818560208601611139565b80840191505092915050565b6000611967828461192a565b915081905092915050565b7f4172746973747320616c72656164792065786973747300000000000000000000600082015250565b60006119a8601683611128565b91506119b382611972565b602082019050919050565b600060208201905081810360008301526119d78161199b565b9050919050565b7f596f752061726520616c726561647920616e2061727469737400000000000000600082015250565b6000611a14601983611128565b9150611a1f826119de565b602082019050919050565b60006020820190508181036000830152611a4381611a07565b9050919050565b60008190508160005260206000209050919050565b60006020601f8301049050919050565b600082821b905092915050565b600060088302611aac7fffffffffffffffffffffffffffffffffffffffffffffffffffffffffffffffff82611a6f565b611ab68683611a6f565b95508019841693508086168417925050509392505050565b6000819050919050565b6000611af3611aee611ae98461134d565b611ace565b61134d565b9050919050565b6000819050919050565b611b0d83611ad8565b611b21611b1982611afa565b848454611a7c565b825550505050565b600090565b611b36611b29565b611b41818484611b04565b505050565b5b81811015611b6557611b5a600082611b2e565b600181019050611b47565b5050565b601f821115611baa57611b7b81611a4a565b611b8484611a5f565b81016020851015611b93578190505b611ba7611b9f85611a5f565b830182611b46565b50505b505050565b600082821c905092915050565b6000611bcd60001984600802611baf565b1980831691505092915050565b6000611be68383611bbc565b9150826002028217905092915050565b611bff8261111d565b67ffffffffffffffff811115611c1857611c176111d9565b5b611c22825461185c565b611c2d828285611b69565b600060209050601f831160018114611c605760008415611c4e578287015190505b611c588582611bda565b865550611cc0565b601f198416611c6e86611a4a565b60005b82811015611c9657848901518255600182019150602085019450602081019050611c71565b86831015611cb35784890151611caf601f891682611bbc565b8355505b6001600288020188555050505b505050505050565b611cd1816110b2565b82525050565b6000608082019050611cec6000830187611cc8565b8181036020830152611cfe8186611174565b90508181036040830152611d128185611174565b9050611d216060830184611357565b95945050505050565b7f4e487b7100000000000000000000000000000000000000000000000000000000600052601160045260246000fd5b6000611d648261134d565b91507fffffffffffffffffffffffffffffffffffffffffffffffffffffffffffffffff8203611d9657611d95611d2a565b5b600182019050919050565b7f596f7520617265206e6f7420616e206172746973747300000000000000000000600082015250565b6000611dd7601683611128565b9150611de282611da1565b602082019050919050565b60006020820190508181036000830152611e0681611dca565b9050919050565b60008154611e1a8161185c565b611e24818661191f565b94506001821660008114611e3f5760018114611e5457611e87565b60ff1983168652811515820286019350611e87565b611e5d85611a4a565b60005b83811015611e7f57815481890152600182019150602081019050611e60565b838801955050505b50505092915050565b6000611e9c8284611e0d565b915081905092915050565b7f416c72656164792070726573656e740000000000000000000000000000000000600082015250565b6000611edd600f83611128565b9150611ee882611ea7565b602082019050919050565b60006020820190508181036000830152611f0c81611ed0565b9050919050565b7f4e487b7100000000000000000000000000000000000000000000000000000000600052603260045260246000fd5b600081519050919050565b600082825260208201905092915050565b6000819050602082019050919050565b611f778161134d565b82525050565b6000611f898383611f6e565b60208301905092915050565b6000602082019050919050565b6000611fad82611f42565b611fb78185611f4d565b9350611fc283611f5e565b8060005b83811015611ff3578151611fda8882611f7d565b9750611fe583611f95565b925050600181019050611fc6565b5085935050505092915050565b600061012082019050818103600083015261201b818c611174565b9050818103602083015261202f818b611174565b90508181036040830152612043818a611174565b905081810360608301526120578189611174565b90506120666080830188611357565b61207360a0830187611357565b81810360c08301526120858186611fa2565b905081810360e08301526120998185611174565b90508181036101008301526120ae8184611174565b90509a9950505050505050505050565b7f49742773206e6f742074686520726967687420616d6f756e7400000000000000600082015250565b60006120f4601983611128565b91506120ff826120be565b602082019050919050565b60006020820190508181036000830152612123816120e7565b9050919050565b7f4e6f7420746865207269676874206f7074696f6e000000000000000000000000600082015250565b6000612160601483611128565b915061216b8261212a565b602082019050919050565b6000602082019050818103600083015261218f81612153565b9050919050565b7f4172746973742063616e6e6f742062757920697473206d757369630000000000600082015250565b60006121cc601b83611128565b91506121d782612196565b602082019050919050565b600060208201905081810360008301526121fb816121bf565b9050919050565b600081905092915050565b50565b600061221d600083612202565b91506122288261220d565b600082019050919050565b600061223e82612210565b9150819050919050565b7f4661696c20746f2073656e642045746865720000000000000000000000000000600082015250565b600061227e601283611128565b915061228982612248565b602082019050919050565b600060208201905081810360008301526122ad81612271565b9050919050565b60006122bf8261134d565b91506122ca8361134d565b92508282019050808211156122e2576122e1611d2a565b5b92915050565b600060a08201905081810360008301526123028188611174565b905081810360208301526123168187611174565b90506123256040830186611357565b6123326060830185611357565b81810360808301526123448184611174565b9050969550505050505056fea264697066735822122069a28d966810f4d19dd0746d223732ecfa517ac2e72d3709e6bb6dcf4480189b64736f6c63430008110033",
  "immutableReferences": {},
  "source": "//SPDX-License-Identifier: MIT\r\npragma solidity ^0.8.0;\r\n\r\ncontract MusiChain {\r\n    address payable public owner;\r\n    mapping(string => mapping(string => Song)) public songs; // una canzone  identificata dalla coppia (NomeArtista, NomeCanzone)\r\n    mapping(address => string) public artists; //Per verificare chi richiama la funzione addArtist non abbia gi agggiunto un artista, questo perch un account pu essere associato a solo un artista\r\n    mapping(string => uint) public artistsCheck; //per controllare che il nome dell'artista non sia gi stato usato\r\n\r\n    struct Song{\r\n        address payable songOwner; //l'indirizzo dell'artista\r\n        uint[] pricing;\r\n        uint idSong;\r\n    }\r\n    \r\n    uint private idArtist; // id assegnato progressivamente ad ogni artista inserito in MusiChain\r\n    uint private idSong;\r\n\r\n    constructor(){\r\n        owner = payable(msg.sender);\r\n        idArtist = 1;\r\n        idSong = 1;\r\n    }\r\n\r\n    event rented(address indexed user, string artistName, string songName, uint timeOfPurchase, uint expirationTime, string link_cover);\r\n    event artistAdded(address user, uint indexed idArtist, string artistName, string link_avatar, uint timeOfInsertion); //evento che verr richiamato all'aggiunta di un nuovo artista in MusiChain\r\n    event songAdded(address indexed user, uint indexed idArtist, uint indexed id_song, string songName, string artistName, string album, string genre, uint year, uint timeOfInsertion, uint[] pricing, string link_file, string link_cover); //evento che verr richiamato all'aggiunta di una nuova canzone\r\n\r\n    modifier costs(string memory artistName, string memory songName, uint option){ // modificatore per il controllo della quantit di ether per procedere all'acquisto della canzone\r\n        uint amount;\r\n        if(option <=4){\r\n            amount = songs[artistName][songName].pricing[option];\r\n        }else{\r\n            amount = 0;\r\n        }\r\n        \r\n        require(msg.value == amount, \"It's not the right amount\");\r\n        _;\r\n    }\r\n\r\n    modifier notOwner{ // modificatore per controllare che l'account proprietario di MusiChain non esegua operazioni non consentite come l'aggiunta di un artista o di una canzone\r\n        require(owner != msg.sender, \"MusiChain Owner cannot perfome this\");\r\n        _;\r\n    }\r\n\r\n\r\n    function addArtist(string memory artistName, string memory link_avatar) external notOwner{\r\n        require(artistsCheck[artistName] == 0,\"Artists already exists\"); //controllo che l'artista non sia gi stato inserito precedentemente\r\n        require(bytes(artists[msg.sender]).length == 0 ,\"You are already an artist\"); // controllo che l'account che usa questa funzione non sia gi un artista\r\n        artists[msg.sender] = artistName;\r\n        artistsCheck[artistName] = idArtist;\r\n        emit artistAdded(msg.sender, idArtist, artistName , link_avatar, block.timestamp);\r\n        idArtist++;\r\n    }\r\n    \r\n    function addSong(string memory songName, string memory album, string memory genre, uint year, uint[] memory pricing, string[] memory links) external notOwner{\r\n        require(bytes(artists[msg.sender]).length > 0 ,\"You are not an artists\"); // controllo che chi utilizzi questa funzione sia un artista\r\n        require((songs[artists[msg.sender]][songName].idSong == 0),\"Already present\"); // controllo che la canzone non sia gi inserita\r\n        string memory artistName = artists[msg.sender];\r\n        songs[artistName][songName] = Song(payable(msg.sender), pricing, idSong); //inserisco automaticamente il nome dell'artista, in quanto solo un artista  associato ad un determinato account\r\n\r\n        emit songAdded(msg.sender, artistsCheck[artistName],idSong, songName, artistName, album, genre, year, block.timestamp, pricing, links[0], links[1]);\r\n        idSong++;\r\n    }\r\n\r\n    function buySong(string memory artistName, string memory songName, uint amountArtist, uint amountMusiChain, uint option, string memory link_cover) external payable costs(artistName, songName, option) notOwner{ \r\n        require(option>=0 && option<=5, \"Not the right option\");\r\n        require(songs[artistName][songName].songOwner != msg.sender,\"Artist cannot buy its music\"); // controllo che l'artsta non compri la sua stessa musica\r\n        (bool sentArtist,) = songs[artistName][songName].songOwner.call{value: (amountArtist)}(\"\"); // invio degli ethers all'account dell'artista\r\n        (bool sentMusiChian,) = owner.call{value: (amountMusiChain)}(\"\"); // invio degli ethers all'acount del proprietario di MusiChain\r\n        require(sentArtist && sentMusiChian,\"Fail to send Ether\"); // controllo che le operazioni siano andate a buon fine\r\n        if(option == 0){\r\n            emit rented(msg.sender, artistName, songName, block.timestamp, block.timestamp + 1 days, link_cover);\r\n        }else if(option == 1){\r\n            emit rented(msg.sender, artistName, songName, block.timestamp, block.timestamp + (3*1 days), link_cover);\r\n        }else if(option == 2){\r\n            emit rented(msg.sender, artistName, songName, block.timestamp, block.timestamp + 1 weeks, link_cover);\r\n        }else if(option == 3){\r\n            emit rented(msg.sender, artistName, songName, block.timestamp, block.timestamp + (31*1 days), link_cover);\r\n        }else{\r\n            emit rented(msg.sender, artistName, songName, block.timestamp, block.timestamp + (365*1 days), link_cover);\r\n        }\r\n        \r\n    }\r\n\r\n}",
  "sourcePath": "C:\\Users\\sergi\\Documents\\Uni Magistrale\\Secondo Anno\\Primo Semestre\\Ing. SW\\Progetto\\MusiChainWebApp\\musichain\\contracts\\MusiChain.sol",
  "compiler": {
    "name": "solc",
    "version": "0.8.17+commit.8df45f5f.Emscripten.clang"
  },
  "schemaVersion": "3.4.10",
  "updatedAt": "2022-12-10T11:11:19.237Z",
  "networkType": "ethereum",
  "devdoc": {
    "kind": "dev",
    "methods": {},
    "version": 1
  },
  "userdoc": {
    "kind": "user",
    "methods": {},
    "version": 1
  }
}