{
  "contractName": "MusiChain",
  "abi": [
    {
      "inputs": [],
      "stateMutability": "nonpayable",
      "type": "constructor"
    },
    {
      "anonymous": false,
      "inputs": [
        {
          "indexed": false,
          "internalType": "address",
          "name": "user",
          "type": "address"
        },
        {
          "indexed": true,
          "internalType": "uint256",
          "name": "idArtist",
          "type": "uint256"
        },
        {
          "indexed": false,
          "internalType": "string",
          "name": "artistName",
          "type": "string"
        },
        {
          "indexed": false,
          "internalType": "uint256",
          "name": "timeOfInsertion",
          "type": "uint256"
        }
      ],
      "name": "artistAdded",
      "type": "event"
    },
    {
      "anonymous": false,
      "inputs": [
        {
          "indexed": true,
          "internalType": "address",
          "name": "user",
          "type": "address"
        },
        {
          "indexed": true,
          "internalType": "uint256",
          "name": "idArtist",
          "type": "uint256"
        },
        {
          "indexed": false,
          "internalType": "string",
          "name": "artistName",
          "type": "string"
        },
        {
          "indexed": false,
          "internalType": "string",
          "name": "songName",
          "type": "string"
        },
        {
          "indexed": false,
          "internalType": "uint256",
          "name": "timeOfPurchase",
          "type": "uint256"
        },
        {
          "indexed": false,
          "internalType": "uint256",
          "name": "expirationTime",
          "type": "uint256"
        }
      ],
      "name": "rented",
      "type": "event"
    },
    {
      "anonymous": false,
      "inputs": [
        {
          "indexed": true,
          "internalType": "address",
          "name": "user",
          "type": "address"
        },
        {
          "indexed": true,
          "internalType": "uint256",
          "name": "idArtist",
          "type": "uint256"
        },
        {
          "indexed": true,
          "internalType": "uint256",
          "name": "idSong",
          "type": "uint256"
        },
        {
          "indexed": false,
          "internalType": "string",
          "name": "songName",
          "type": "string"
        },
        {
          "indexed": false,
          "internalType": "string",
          "name": "artistName",
          "type": "string"
        },
        {
          "indexed": false,
          "internalType": "string",
          "name": "album",
          "type": "string"
        },
        {
          "indexed": false,
          "internalType": "string",
          "name": "genre",
          "type": "string"
        },
        {
          "indexed": false,
          "internalType": "uint256",
          "name": "year",
          "type": "uint256"
        },
        {
          "indexed": false,
          "internalType": "uint256",
          "name": "timeOfInsertion",
          "type": "uint256"
        },
        {
          "indexed": false,
          "internalType": "uint256[]",
          "name": "pricing",
          "type": "uint256[]"
        },
        {
          "indexed": false,
          "internalType": "string",
          "name": "link_file",
          "type": "string"
        },
        {
          "indexed": false,
          "internalType": "string",
          "name": "link_cover",
          "type": "string"
        }
      ],
      "name": "songAdded",
      "type": "event"
    },
    {
      "inputs": [
        {
          "internalType": "address",
          "name": "",
          "type": "address"
        }
      ],
      "name": "artists",
      "outputs": [
        {
          "internalType": "string",
          "name": "",
          "type": "string"
        }
      ],
      "stateMutability": "view",
      "type": "function",
      "constant": true
    },
    {
      "inputs": [
        {
          "internalType": "string",
          "name": "",
          "type": "string"
        }
      ],
      "name": "artistsCheck",
      "outputs": [
        {
          "internalType": "uint256",
          "name": "",
          "type": "uint256"
        }
      ],
      "stateMutability": "view",
      "type": "function",
      "constant": true
    },
    {
      "inputs": [],
      "name": "owner",
      "outputs": [
        {
          "internalType": "address payable",
          "name": "",
          "type": "address"
        }
      ],
      "stateMutability": "view",
      "type": "function",
      "constant": true
    },
    {
      "inputs": [
        {
          "internalType": "string",
          "name": "",
          "type": "string"
        },
        {
          "internalType": "string",
          "name": "",
          "type": "string"
        }
      ],
      "name": "songs",
      "outputs": [
        {
          "internalType": "address payable",
          "name": "songOwner",
          "type": "address"
        },
        {
          "internalType": "uint256",
          "name": "idSong",
          "type": "uint256"
        }
      ],
      "stateMutability": "view",
      "type": "function",
      "constant": true
    },
    {
      "inputs": [
        {
          "internalType": "string",
          "name": "artistName",
          "type": "string"
        }
      ],
      "name": "addArtist",
      "outputs": [],
      "stateMutability": "nonpayable",
      "type": "function"
    },
    {
      "inputs": [
        {
          "internalType": "string",
          "name": "songName",
          "type": "string"
        },
        {
          "internalType": "string",
          "name": "album",
          "type": "string"
        },
        {
          "internalType": "string",
          "name": "genre",
          "type": "string"
        },
        {
          "internalType": "uint256",
          "name": "year",
          "type": "uint256"
        },
        {
          "internalType": "uint256[]",
          "name": "pricing",
          "type": "uint256[]"
        },
        {
          "internalType": "string[]",
          "name": "links",
          "type": "string[]"
        }
      ],
      "name": "addSong",
      "outputs": [],
      "stateMutability": "nonpayable",
      "type": "function"
    },
    {
      "inputs": [
        {
          "internalType": "string",
          "name": "artistName",
          "type": "string"
        },
        {
          "internalType": "string",
          "name": "songName",
          "type": "string"
        },
        {
          "internalType": "uint256",
          "name": "amountArtist",
          "type": "uint256"
        },
        {
          "internalType": "uint256",
          "name": "amountMusiChain",
          "type": "uint256"
        },
        {
          "internalType": "uint256",
          "name": "option",
          "type": "uint256"
        }
      ],
      "name": "buySong",
      "outputs": [],
      "stateMutability": "payable",
      "type": "function",
      "payable": true
    }
  ],
  "bytecode": "0x608060405234801561001057600080fd5b50336000806101000a81548173ffffffffffffffffffffffffffffffffffffffff021916908373ffffffffffffffffffffffffffffffffffffffff160217905550600160048190555060016005819055506123bb806100706000396000f3fe6080604052600436106100705760003560e01c80638da5cb5b1161004e5780638da5cb5b1461012d578063a5f577e714610158578063c981c1c514610181578063de8d3073146101aa57610070565b8063069dab8f14610075578063224eb928146100b257806344bd0119146100ef575b600080fd5b34801561008157600080fd5b5061009c6004803603810190610097919061117d565b6101c6565b6040516100a9919061123a565b60405180910390f35b3480156100be57600080fd5b506100d960048036038101906100d49190611391565b610266565b6040516100e691906113f3565b60405180910390f35b3480156100fb57600080fd5b506101166004803603810190610111919061140e565b610294565b6040516101249291906114a7565b60405180910390f35b34801561013957600080fd5b50610142610311565b60405161014f91906114d0565b60405180910390f35b34801561016457600080fd5b5061017f600480360381019061017a91906116c0565b610335565b005b34801561018d57600080fd5b506101a860048036038101906101a39190611391565b610790565b005b6101c460048036038101906101bf91906117d9565b6109d8565b005b600260205280600052604060002060009150905080546101e5906118bb565b80601f0160208091040260200160405190810160405280929190818152602001828054610211906118bb565b801561025e5780601f106102335761010080835404028352916020019161025e565b820191906000526020600020905b81548152906001019060200180831161024157829003601f168201915b505050505081565b6003818051602081018201805184825260208301602085012081835280955050505050506000915090505481565b60018280516020810182018051848252602083016020850120818352809550505050505081805160208101820180518482526020830160208501208183528095505050505050600091509150508060000160009054906101000a900473ffffffffffffffffffffffffffffffffffffffff16908060020154905082565b60008054906101000a900473ffffffffffffffffffffffffffffffffffffffff1681565b3373ffffffffffffffffffffffffffffffffffffffff1660008054906101000a900473ffffffffffffffffffffffffffffffffffffffff1673ffffffffffffffffffffffffffffffffffffffff16036103c3576040517f08c379a00000000000000000000000000000000000000000000000000000000081526004016103ba9061195e565b60405180910390fd5b6000600260003373ffffffffffffffffffffffffffffffffffffffff1673ffffffffffffffffffffffffffffffffffffffff168152602001908152602001600020805461040f906118bb565b905011610451576040517f08c379a0000000000000000000000000000000000000000000000000000000008152600401610448906119ca565b60405180910390fd5b60006001600260003373ffffffffffffffffffffffffffffffffffffffff1673ffffffffffffffffffffffffffffffffffffffff1681526020019081526020016000206040516104a19190611a8d565b9081526020016040518091039020876040516104bd9190611ad5565b9081526020016040518091039020600201541461050f576040517f08c379a000000000000000000000000000000000000000000000000000000000815260040161050690611b38565b60405180910390fd5b6000600260003373ffffffffffffffffffffffffffffffffffffffff1673ffffffffffffffffffffffffffffffffffffffff168152602001908152602001600020805461055b906118bb565b80601f0160208091040260200160405190810160405280929190818152602001828054610587906118bb565b80156105d45780601f106105a9576101008083540402835291602001916105d4565b820191906000526020600020905b8154815290600101906020018083116105b757829003601f168201915b5050505050905060405180606001604052803373ffffffffffffffffffffffffffffffffffffffff16815260200184815260200160055481525060018260405161061e9190611ad5565b90815260200160405180910390208860405161063a9190611ad5565b908152602001604051809103902060008201518160000160006101000a81548173ffffffffffffffffffffffffffffffffffffffff021916908373ffffffffffffffffffffffffffffffffffffffff16021790555060208201518160010190805190602001906106ab9291906110a1565b50604082015181600201559050506005546003826040516106cc9190611ad5565b9081526020016040518091039020543373ffffffffffffffffffffffffffffffffffffffff167f4c2f81b35bc44c04beb1b9a357ace7a137730db4bb89fe70c3854f98a4a916608a858b8b8b428c8c60008151811061072e5761072d611b58565b5b60200260200101518d60018151811061074a57610749611b58565b5b602002602001015160405161076799989796959493929190611c45565b60405180910390a46005600081548092919061078290611d32565b919050555050505050505050565b3373ffffffffffffffffffffffffffffffffffffffff1660008054906101000a900473ffffffffffffffffffffffffffffffffffffffff1673ffffffffffffffffffffffffffffffffffffffff160361081e576040517f08c379a00000000000000000000000000000000000000000000000000000000081526004016108159061195e565b60405180910390fd5b60006003826040516108309190611ad5565b9081526020016040518091039020541461087f576040517f08c379a000000000000000000000000000000000000000000000000000000000815260040161087690611dc6565b60405180910390fd5b6000600260003373ffffffffffffffffffffffffffffffffffffffff1673ffffffffffffffffffffffffffffffffffffffff16815260200190815260200160002080546108cb906118bb565b90501461090d576040517f08c379a000000000000000000000000000000000000000000000000000000000815260040161090490611e32565b60405180910390fd5b80600260003373ffffffffffffffffffffffffffffffffffffffff1673ffffffffffffffffffffffffffffffffffffffff16815260200190815260200160002090816109599190611fe9565b5060045460038260405161096d9190611ad5565b9081526020016040518091039020819055506004547f0327b02de13ff68e3ba6d699b67cc673a27b5eecdeae472dbc20051ab11699343383426040516109b5939291906120ca565b60405180910390a2600460008154809291906109d090611d32565b919050555050565b848482600060048211610a46576001846040516109f59190611ad5565b908152602001604051809103902083604051610a119190611ad5565b90815260200160405180910390206001018281548110610a3457610a33611b58565b5b90600052602060002001549050610a4b565b600090505b803414610a8d576040517f08c379a0000000000000000000000000000000000000000000000000000000008152600401610a8490612154565b60405180910390fd5b3373ffffffffffffffffffffffffffffffffffffffff1660008054906101000a900473ffffffffffffffffffffffffffffffffffffffff1673ffffffffffffffffffffffffffffffffffffffff1603610b1b576040517f08c379a0000000000000000000000000000000000000000000000000000000008152600401610b129061195e565b60405180910390fd5b60008510158015610b2d575060058511155b610b6c576040517f08c379a0000000000000000000000000000000000000000000000000000000008152600401610b63906121c0565b60405180910390fd5b3373ffffffffffffffffffffffffffffffffffffffff1660018a604051610b939190611ad5565b908152602001604051809103902089604051610baf9190611ad5565b908152602001604051809103902060000160009054906101000a900473ffffffffffffffffffffffffffffffffffffffff1673ffffffffffffffffffffffffffffffffffffffff1603610c37576040517f08c379a0000000000000000000000000000000000000000000000000000000008152600401610c2e9061222c565b60405180910390fd5b600060018a604051610c499190611ad5565b908152602001604051809103902089604051610c659190611ad5565b908152602001604051809103902060000160009054906101000a900473ffffffffffffffffffffffffffffffffffffffff1673ffffffffffffffffffffffffffffffffffffffff1688604051610cba9061227d565b60006040518083038185875af1925050503d8060008114610cf7576040519150601f19603f3d011682016040523d82523d6000602084013e610cfc565b606091505b5050905060008060009054906101000a900473ffffffffffffffffffffffffffffffffffffffff1673ffffffffffffffffffffffffffffffffffffffff1688604051610d479061227d565b60006040518083038185875af1925050503d8060008114610d84576040519150601f19603f3d011682016040523d82523d6000602084013e610d89565b606091505b50509050818015610d975750805b610dd6576040517f08c379a0000000000000000000000000000000000000000000000000000000008152600401610dcd906122de565b60405180910390fd5b60008703610e645760038b604051610dee9190611ad5565b9081526020016040518091039020543373ffffffffffffffffffffffffffffffffffffffff167fec387e146bb52b33215648f715bdb4aa036a470ca15207bf60f69b926277a9cd8d8d426201518042610e4791906122fe565b604051610e579493929190612332565b60405180910390a3611094565b60018703610ef25760038b604051610e7c9190611ad5565b9081526020016040518091039020543373ffffffffffffffffffffffffffffffffffffffff167fec387e146bb52b33215648f715bdb4aa036a470ca15207bf60f69b926277a9cd8d8d426203f48042610ed591906122fe565b604051610ee59493929190612332565b60405180910390a3611093565b60028703610f805760038b604051610f0a9190611ad5565b9081526020016040518091039020543373ffffffffffffffffffffffffffffffffffffffff167fec387e146bb52b33215648f715bdb4aa036a470ca15207bf60f69b926277a9cd8d8d4262093a8042610f6391906122fe565b604051610f739493929190612332565b60405180910390a3611092565b6003870361100e5760038b604051610f989190611ad5565b9081526020016040518091039020543373ffffffffffffffffffffffffffffffffffffffff167fec387e146bb52b33215648f715bdb4aa036a470ca15207bf60f69b926277a9cd8d8d426228de8042610ff191906122fe565b6040516110019493929190612332565b60405180910390a3611091565b60038b60405161101e9190611ad5565b9081526020016040518091039020543373ffffffffffffffffffffffffffffffffffffffff167fec387e146bb52b33215648f715bdb4aa036a470ca15207bf60f69b926277a9cd8d8d426301e133804261107891906122fe565b6040516110889493929190612332565b60405180910390a35b5b5b5b5050505050505050505050565b8280548282559060005260206000209081019282156110dd579160200282015b828111156110dc5782518255916020019190600101906110c1565b5b5090506110ea91906110ee565b5090565b5b808211156111075760008160009055506001016110ef565b5090565b6000604051905090565b600080fd5b600080fd5b600073ffffffffffffffffffffffffffffffffffffffff82169050919050565b600061114a8261111f565b9050919050565b61115a8161113f565b811461116557600080fd5b50565b60008135905061117781611151565b92915050565b60006020828403121561119357611192611115565b5b60006111a184828501611168565b91505092915050565b600081519050919050565b600082825260208201905092915050565b60005b838110156111e45780820151818401526020810190506111c9565b60008484015250505050565b6000601f19601f8301169050919050565b600061120c826111aa565b61121681856111b5565b93506112268185602086016111c6565b61122f816111f0565b840191505092915050565b600060208201905081810360008301526112548184611201565b905092915050565b600080fd5b600080fd5b7f4e487b7100000000000000000000000000000000000000000000000000000000600052604160045260246000fd5b61129e826111f0565b810181811067ffffffffffffffff821117156112bd576112bc611266565b5b80604052505050565b60006112d061110b565b90506112dc8282611295565b919050565b600067ffffffffffffffff8211156112fc576112fb611266565b5b611305826111f0565b9050602081019050919050565b82818337600083830152505050565b600061133461132f846112e1565b6112c6565b9050828152602081018484840111156113505761134f611261565b5b61135b848285611312565b509392505050565b600082601f8301126113785761137761125c565b5b8135611388848260208601611321565b91505092915050565b6000602082840312156113a7576113a6611115565b5b600082013567ffffffffffffffff8111156113c5576113c461111a565b5b6113d184828501611363565b91505092915050565b6000819050919050565b6113ed816113da565b82525050565b600060208201905061140860008301846113e4565b92915050565b6000806040838503121561142557611424611115565b5b600083013567ffffffffffffffff8111156114435761144261111a565b5b61144f85828601611363565b925050602083013567ffffffffffffffff8111156114705761146f61111a565b5b61147c85828601611363565b9150509250929050565b60006114918261111f565b9050919050565b6114a181611486565b82525050565b60006040820190506114bc6000830185611498565b6114c960208301846113e4565b9392505050565b60006020820190506114e56000830184611498565b92915050565b6114f4816113da565b81146114ff57600080fd5b50565b600081359050611511816114eb565b92915050565b600067ffffffffffffffff82111561153257611531611266565b5b602082029050602081019050919050565b600080fd5b600061155b61155684611517565b6112c6565b9050808382526020820190506020840283018581111561157e5761157d611543565b5b835b818110156115a757806115938882611502565b845260208401935050602081019050611580565b5050509392505050565b600082601f8301126115c6576115c561125c565b5b81356115d6848260208601611548565b91505092915050565b600067ffffffffffffffff8211156115fa576115f9611266565b5b602082029050602081019050919050565b600061161e611619846115df565b6112c6565b9050808382526020820190506020840283018581111561164157611640611543565b5b835b8181101561168857803567ffffffffffffffff8111156116665761166561125c565b5b8086016116738982611363565b85526020850194505050602081019050611643565b5050509392505050565b600082601f8301126116a7576116a661125c565b5b81356116b784826020860161160b565b91505092915050565b60008060008060008060c087890312156116dd576116dc611115565b5b600087013567ffffffffffffffff8111156116fb576116fa61111a565b5b61170789828a01611363565b965050602087013567ffffffffffffffff8111156117285761172761111a565b5b61173489828a01611363565b955050604087013567ffffffffffffffff8111156117555761175461111a565b5b61176189828a01611363565b945050606061177289828a01611502565b935050608087013567ffffffffffffffff8111156117935761179261111a565b5b61179f89828a016115b1565b92505060a087013567ffffffffffffffff8111156117c0576117bf61111a565b5b6117cc89828a01611692565b9150509295509295509295565b600080600080600060a086880312156117f5576117f4611115565b5b600086013567ffffffffffffffff8111156118135761181261111a565b5b61181f88828901611363565b955050602086013567ffffffffffffffff8111156118405761183f61111a565b5b61184c88828901611363565b945050604061185d88828901611502565b935050606061186e88828901611502565b925050608061187f88828901611502565b9150509295509295909350565b7f4e487b7100000000000000000000000000000000000000000000000000000000600052602260045260246000fd5b600060028204905060018216806118d357607f821691505b6020821081036118e6576118e561188c565b5b50919050565b7f4d757369436861696e204f776e65722063616e6e6f7420706572666f6d65207460008201527f6869730000000000000000000000000000000000000000000000000000000000602082015250565b60006119486023836111b5565b9150611953826118ec565b604082019050919050565b600060208201905081810360008301526119778161193b565b9050919050565b7f596f7520617265206e6f7420616e206172746973747300000000000000000000600082015250565b60006119b46016836111b5565b91506119bf8261197e565b602082019050919050565b600060208201905081810360008301526119e3816119a7565b9050919050565b600081905092915050565b60008190508160005260206000209050919050565b60008154611a17816118bb565b611a2181866119ea565b94506001821660008114611a3c5760018114611a5157611a84565b60ff1983168652811515820286019350611a84565b611a5a856119f5565b60005b83811015611a7c57815481890152600182019150602081019050611a5d565b838801955050505b50505092915050565b6000611a998284611a0a565b915081905092915050565b6000611aaf826111aa565b611ab981856119ea565b9350611ac98185602086016111c6565b80840191505092915050565b6000611ae18284611aa4565b915081905092915050565b7f416c72656164792070726573656e740000000000000000000000000000000000600082015250565b6000611b22600f836111b5565b9150611b2d82611aec565b602082019050919050565b60006020820190508181036000830152611b5181611b15565b9050919050565b7f4e487b7100000000000000000000000000000000000000000000000000000000600052603260045260246000fd5b600081519050919050565b600082825260208201905092915050565b6000819050602082019050919050565b611bbc816113da565b82525050565b6000611bce8383611bb3565b60208301905092915050565b6000602082019050919050565b6000611bf282611b87565b611bfc8185611b92565b9350611c0783611ba3565b8060005b83811015611c38578151611c1f8882611bc2565b9750611c2a83611bda565b925050600181019050611c0b565b5085935050505092915050565b6000610120820190508181036000830152611c60818c611201565b90508181036020830152611c74818b611201565b90508181036040830152611c88818a611201565b90508181036060830152611c9c8189611201565b9050611cab60808301886113e4565b611cb860a08301876113e4565b81810360c0830152611cca8186611be7565b905081810360e0830152611cde8185611201565b9050818103610100830152611cf38184611201565b90509a9950505050505050505050565b7f4e487b7100000000000000000000000000000000000000000000000000000000600052601160045260246000fd5b6000611d3d826113da565b91507fffffffffffffffffffffffffffffffffffffffffffffffffffffffffffffffff8203611d6f57611d6e611d03565b5b600182019050919050565b7f4172746973747320616c72656164792065786973747300000000000000000000600082015250565b6000611db06016836111b5565b9150611dbb82611d7a565b602082019050919050565b60006020820190508181036000830152611ddf81611da3565b9050919050565b7f596f752061726520616c726561647920616e2061727469737400000000000000600082015250565b6000611e1c6019836111b5565b9150611e2782611de6565b602082019050919050565b60006020820190508181036000830152611e4b81611e0f565b9050919050565b60006020601f8301049050919050565b600082821b905092915050565b600060088302611e9f7fffffffffffffffffffffffffffffffffffffffffffffffffffffffffffffffff82611e62565b611ea98683611e62565b95508019841693508086168417925050509392505050565b6000819050919050565b6000611ee6611ee1611edc846113da565b611ec1565b6113da565b9050919050565b6000819050919050565b611f0083611ecb565b611f14611f0c82611eed565b848454611e6f565b825550505050565b600090565b611f29611f1c565b611f34818484611ef7565b505050565b5b81811015611f5857611f4d600082611f21565b600181019050611f3a565b5050565b601f821115611f9d57611f6e816119f5565b611f7784611e52565b81016020851015611f86578190505b611f9a611f9285611e52565b830182611f39565b50505b505050565b600082821c905092915050565b6000611fc060001984600802611fa2565b1980831691505092915050565b6000611fd98383611faf565b9150826002028217905092915050565b611ff2826111aa565b67ffffffffffffffff81111561200b5761200a611266565b5b61201582546118bb565b612020828285611f5c565b600060209050601f8311600181146120535760008415612041578287015190505b61204b8582611fcd565b8655506120b3565b601f198416612061866119f5565b60005b8281101561208957848901518255600182019150602085019450602081019050612064565b868310156120a657848901516120a2601f891682611faf565b8355505b6001600288020188555050505b505050505050565b6120c48161113f565b82525050565b60006060820190506120df60008301866120bb565b81810360208301526120f18185611201565b905061210060408301846113e4565b949350505050565b7f49742773206e6f742074686520726967687420616d6f756e7400000000000000600082015250565b600061213e6019836111b5565b915061214982612108565b602082019050919050565b6000602082019050818103600083015261216d81612131565b9050919050565b7f4e6f7420746865207269676874206f7074696f6e000000000000000000000000600082015250565b60006121aa6014836111b5565b91506121b582612174565b602082019050919050565b600060208201905081810360008301526121d98161219d565b9050919050565b7f4172746973742063616e6e6f742062757920697473206d757369630000000000600082015250565b6000612216601b836111b5565b9150612221826121e0565b602082019050919050565b6000602082019050818103600083015261224581612209565b9050919050565b600081905092915050565b50565b600061226760008361224c565b915061227282612257565b600082019050919050565b60006122888261225a565b9150819050919050565b7f4661696c20746f2073656e642045746865720000000000000000000000000000600082015250565b60006122c86012836111b5565b91506122d382612292565b602082019050919050565b600060208201905081810360008301526122f7816122bb565b9050919050565b6000612309826113da565b9150612314836113da565b925082820190508082111561232c5761232b611d03565b5b92915050565b6000608082019050818103600083015261234c8187611201565b905081810360208301526123608186611201565b905061236f60408301856113e4565b61237c60608301846113e4565b9594505050505056fea2646970667358221220d3848e7cd54e2671c29fda05a775fc2c7ed2dec33c48307cf16d724b906a90f464736f6c63430008110033",
  "immutableReferences": {},
  "source": "//SPDX-License-Identifier: MIT\r\npragma solidity ^0.8.0;\r\n\r\ncontract MusiChain {\r\n    address payable public owner;\r\n    mapping(string => mapping(string => Song)) public songs; // una canzone  identificata dalla coppia (NomeArtista, NomeCanzone)\r\n    mapping(address => string) public artists; //Per verificare chi richiama la funzione addArtist non abbia gi agggiunto un artista, questo perch un account pu essere associato a solo un artista\r\n    mapping(string => uint) public artistsCheck; //per controllare che il nome dell'artista non sia gi stato usato\r\n\r\n    struct Song{\r\n        address payable songOwner; //l'indirizzo dell'artista\r\n        uint[] pricing;\r\n        uint idSong;\r\n    }\r\n    \r\n    uint private idArtist; // id assegnato progressivamente ad ogni artista inserito in MusiChain\r\n    uint private idSong;\r\n\r\n    constructor(){\r\n        owner = payable(msg.sender);\r\n        idArtist = 1;\r\n        idSong = 1;\r\n    }\r\n\r\n    event rented(address indexed user, uint indexed idArtist, string artistName, string songName, uint timeOfPurchase, uint expirationTime);\r\n    event artistAdded(address user, uint indexed idArtist, string artistName, uint timeOfInsertion); //evento che verr richiamato all'aggiunta di un nuovo artista in MusiChain\r\n    event songAdded(address indexed user, uint indexed idArtist, uint indexed idSong, string songName, string artistName, string album, string genre, uint year, uint timeOfInsertion, uint[] pricing, string link_file, string link_cover); //evento che verr richiamato all'aggiunta di una nuova canzone\r\n\r\n    modifier costs(string memory artistName, string memory songName, uint option){ // modificatore per il controllo della quantit di ether per procedere all'acquisto della canzone\r\n        uint amount;\r\n        if(option <=4){\r\n            amount = songs[artistName][songName].pricing[option];\r\n        }else{\r\n            amount = 0;\r\n        }\r\n        \r\n        require(msg.value == amount, \"It's not the right amount\");\r\n        _;\r\n    }\r\n\r\n    modifier notOwner{ // modificatore per controllare che l'account proprietario di MusiChain non esegua operazioni non consentite come l'aggiunta di un artista o di una canzone\r\n        require(owner != msg.sender, \"MusiChain Owner cannot perfome this\");\r\n        _;\r\n    }\r\n\r\n\r\n    function addArtist(string memory artistName) external notOwner{\r\n        require(artistsCheck[artistName] == 0,\"Artists already exists\"); //controllo che l'artista non sia gi stato inserito precedentemente\r\n        require(bytes(artists[msg.sender]).length == 0 ,\"You are already an artist\"); // controllo che l'account che usa questa funzione non sia gi un artista\r\n        artists[msg.sender] = artistName;\r\n        artistsCheck[artistName] = idArtist;\r\n        emit artistAdded(msg.sender, idArtist, artistName ,block.timestamp);\r\n        idArtist++;\r\n    }\r\n    \r\n    function addSong(string memory songName, string memory album, string memory genre, uint year, uint[] memory pricing, string[] memory links) external notOwner{\r\n        require(bytes(artists[msg.sender]).length > 0 ,\"You are not an artists\"); // controllo che chi utilizzi questa funzione sia un artista\r\n        require((songs[artists[msg.sender]][songName].idSong == 0),\"Already present\"); // controllo che la canzone non sia gi inserita\r\n        string memory artistName = artists[msg.sender];\r\n        songs[artistName][songName] = Song(payable(msg.sender), pricing, idSong); //inserisco automaticamente il nome dell'artista, in quanto solo un artista  associato ad un determinato account\r\n\r\n        emit songAdded(msg.sender, artistsCheck[artistName],idSong, songName, artistName, album, genre, year, block.timestamp, pricing, links[0], links[1]);\r\n        idSong++;\r\n    }\r\n\r\n    function buySong(string memory artistName, string memory songName, uint amountArtist, uint amountMusiChain, uint option) external payable costs(artistName, songName, option) notOwner{ \r\n        require(option>=0 && option<=5, \"Not the right option\");\r\n        require(songs[artistName][songName].songOwner != msg.sender,\"Artist cannot buy its music\"); // controllo che l'artsta non compri la sua stessa musica\r\n        (bool sentArtist,) = songs[artistName][songName].songOwner.call{value: (amountArtist)}(\"\"); // invio degli ethers all'account dell'artista\r\n        (bool sentMusiChian,) = owner.call{value: (amountMusiChain)}(\"\"); // invio degli ethers all'acount del proprietario di MusiChain\r\n        require(sentArtist && sentMusiChian,\"Fail to send Ether\"); // controllo che le operazioni siano andate a buon fine\r\n        if(option == 0){\r\n            emit rented(msg.sender, artistsCheck[artistName], artistName, songName, block.timestamp, block.timestamp + 1 days);\r\n        }else if(option == 1){\r\n            emit rented(msg.sender, artistsCheck[artistName], artistName, songName, block.timestamp, block.timestamp + (3*1 days));\r\n        }else if(option == 2){\r\n            emit rented(msg.sender, artistsCheck[artistName], artistName, songName, block.timestamp, block.timestamp + 1 weeks);\r\n        }else if(option == 3){\r\n            emit rented(msg.sender, artistsCheck[artistName], artistName, songName, block.timestamp, block.timestamp + (31*1 days));\r\n        }else{\r\n            emit rented(msg.sender, artistsCheck[artistName], artistName, songName, block.timestamp, block.timestamp + (365*1 days));\r\n        }\r\n        \r\n    }\r\n\r\n}",
  "sourcePath": "C:\\Users\\sergi\\Documents\\Uni Magistrale\\Secondo Anno\\Primo Semestre\\Ing. SW\\Progetto\\MusiChainWebApp\\musichain\\contracts\\MusiChain.sol",
  "compiler": {
    "name": "solc",
    "version": "0.8.17+commit.8df45f5f.Emscripten.clang"
  },
  "schemaVersion": "3.4.10",
  "updatedAt": "2022-12-08T16:15:59.374Z",
  "networkType": "ethereum",
  "devdoc": {
    "kind": "dev",
    "methods": {},
    "version": 1
  },
  "userdoc": {
    "kind": "user",
    "methods": {},
    "version": 1
  }
}