{
  "contractName": "MusiChain",
  "abi": [
    {
      "inputs": [],
      "stateMutability": "nonpayable",
      "type": "constructor"
    },
    {
      "anonymous": false,
      "inputs": [
        {
          "indexed": false,
          "internalType": "address",
          "name": "user",
          "type": "address"
        },
        {
          "indexed": true,
          "internalType": "uint256",
          "name": "idArtist",
          "type": "uint256"
        },
        {
          "indexed": false,
          "internalType": "string",
          "name": "artistName",
          "type": "string"
        },
        {
          "indexed": false,
          "internalType": "string",
          "name": "link_avatar",
          "type": "string"
        },
        {
          "indexed": false,
          "internalType": "uint256",
          "name": "timeOfInsertion",
          "type": "uint256"
        }
      ],
      "name": "artistAdded",
      "type": "event"
    },
    {
      "anonymous": false,
      "inputs": [
        {
          "indexed": true,
          "internalType": "address",
          "name": "user",
          "type": "address"
        },
        {
          "indexed": true,
          "internalType": "uint256",
          "name": "idArtist",
          "type": "uint256"
        },
        {
          "indexed": false,
          "internalType": "string",
          "name": "artistName",
          "type": "string"
        },
        {
          "indexed": false,
          "internalType": "string",
          "name": "songName",
          "type": "string"
        },
        {
          "indexed": false,
          "internalType": "uint256",
          "name": "timeOfPurchase",
          "type": "uint256"
        },
        {
          "indexed": false,
          "internalType": "uint256",
          "name": "expirationTime",
          "type": "uint256"
        }
      ],
      "name": "rented",
      "type": "event"
    },
    {
      "anonymous": false,
      "inputs": [
        {
          "indexed": true,
          "internalType": "address",
          "name": "user",
          "type": "address"
        },
        {
          "indexed": true,
          "internalType": "uint256",
          "name": "idArtist",
          "type": "uint256"
        },
        {
          "indexed": true,
          "internalType": "uint256",
          "name": "idSong",
          "type": "uint256"
        },
        {
          "indexed": false,
          "internalType": "string",
          "name": "songName",
          "type": "string"
        },
        {
          "indexed": false,
          "internalType": "string",
          "name": "artistName",
          "type": "string"
        },
        {
          "indexed": false,
          "internalType": "string",
          "name": "album",
          "type": "string"
        },
        {
          "indexed": false,
          "internalType": "string",
          "name": "genre",
          "type": "string"
        },
        {
          "indexed": false,
          "internalType": "uint256",
          "name": "year",
          "type": "uint256"
        },
        {
          "indexed": false,
          "internalType": "uint256",
          "name": "timeOfInsertion",
          "type": "uint256"
        },
        {
          "indexed": false,
          "internalType": "uint256[]",
          "name": "pricing",
          "type": "uint256[]"
        },
        {
          "indexed": false,
          "internalType": "string",
          "name": "link_file",
          "type": "string"
        },
        {
          "indexed": false,
          "internalType": "string",
          "name": "link_cover",
          "type": "string"
        }
      ],
      "name": "songAdded",
      "type": "event"
    },
    {
      "inputs": [
        {
          "internalType": "address",
          "name": "",
          "type": "address"
        }
      ],
      "name": "artists",
      "outputs": [
        {
          "internalType": "string",
          "name": "",
          "type": "string"
        }
      ],
      "stateMutability": "view",
      "type": "function",
      "constant": true
    },
    {
      "inputs": [
        {
          "internalType": "string",
          "name": "",
          "type": "string"
        }
      ],
      "name": "artistsCheck",
      "outputs": [
        {
          "internalType": "uint256",
          "name": "",
          "type": "uint256"
        }
      ],
      "stateMutability": "view",
      "type": "function",
      "constant": true
    },
    {
      "inputs": [],
      "name": "owner",
      "outputs": [
        {
          "internalType": "address payable",
          "name": "",
          "type": "address"
        }
      ],
      "stateMutability": "view",
      "type": "function",
      "constant": true
    },
    {
      "inputs": [
        {
          "internalType": "string",
          "name": "",
          "type": "string"
        },
        {
          "internalType": "string",
          "name": "",
          "type": "string"
        }
      ],
      "name": "songs",
      "outputs": [
        {
          "internalType": "address payable",
          "name": "songOwner",
          "type": "address"
        },
        {
          "internalType": "uint256",
          "name": "idSong",
          "type": "uint256"
        }
      ],
      "stateMutability": "view",
      "type": "function",
      "constant": true
    },
    {
      "inputs": [
        {
          "internalType": "string",
          "name": "artistName",
          "type": "string"
        },
        {
          "internalType": "string",
          "name": "link_avatar",
          "type": "string"
        }
      ],
      "name": "addArtist",
      "outputs": [],
      "stateMutability": "nonpayable",
      "type": "function"
    },
    {
      "inputs": [
        {
          "internalType": "string",
          "name": "songName",
          "type": "string"
        },
        {
          "internalType": "string",
          "name": "album",
          "type": "string"
        },
        {
          "internalType": "string",
          "name": "genre",
          "type": "string"
        },
        {
          "internalType": "uint256",
          "name": "year",
          "type": "uint256"
        },
        {
          "internalType": "uint256[]",
          "name": "pricing",
          "type": "uint256[]"
        },
        {
          "internalType": "string[]",
          "name": "links",
          "type": "string[]"
        }
      ],
      "name": "addSong",
      "outputs": [],
      "stateMutability": "nonpayable",
      "type": "function"
    },
    {
      "inputs": [
        {
          "internalType": "string",
          "name": "artistName",
          "type": "string"
        },
        {
          "internalType": "string",
          "name": "songName",
          "type": "string"
        },
        {
          "internalType": "uint256",
          "name": "amountArtist",
          "type": "uint256"
        },
        {
          "internalType": "uint256",
          "name": "amountMusiChain",
          "type": "uint256"
        },
        {
          "internalType": "uint256",
          "name": "option",
          "type": "uint256"
        }
      ],
      "name": "buySong",
      "outputs": [],
      "stateMutability": "payable",
      "type": "function",
      "payable": true
    }
  ],
  "bytecode": "0x608060405234801561001057600080fd5b50336000806101000a81548173ffffffffffffffffffffffffffffffffffffffff021916908373ffffffffffffffffffffffffffffffffffffffff160217905550600160048190555060016005819055506123d3806100706000396000f3fe6080604052600436106100705760003560e01c80638da5cb5b1161004e5780638da5cb5b1461012d5780639e6685c714610158578063a5f577e714610181578063de8d3073146101aa57610070565b8063069dab8f14610075578063224eb928146100b257806344bd0119146100ef575b600080fd5b34801561008157600080fd5b5061009c60048036038101906100979190611180565b6101c6565b6040516100a9919061123d565b60405180910390f35b3480156100be57600080fd5b506100d960048036038101906100d49190611394565b610266565b6040516100e691906113f6565b60405180910390f35b3480156100fb57600080fd5b5061011660048036038101906101119190611411565b610294565b6040516101249291906114aa565b60405180910390f35b34801561013957600080fd5b50610142610311565b60405161014f91906114d3565b60405180910390f35b34801561016457600080fd5b5061017f600480360381019061017a9190611411565b610335565b005b34801561018d57600080fd5b506101a860048036038101906101a391906116c3565b610580565b005b6101c460048036038101906101bf91906117dc565b6109db565b005b600260205280600052604060002060009150905080546101e5906118be565b80601f0160208091040260200160405190810160405280929190818152602001828054610211906118be565b801561025e5780601f106102335761010080835404028352916020019161025e565b820191906000526020600020905b81548152906001019060200180831161024157829003601f168201915b505050505081565b6003818051602081018201805184825260208301602085012081835280955050505050506000915090505481565b60018280516020810182018051848252602083016020850120818352809550505050505081805160208101820180518482526020830160208501208183528095505050505050600091509150508060000160009054906101000a900473ffffffffffffffffffffffffffffffffffffffff16908060020154905082565b60008054906101000a900473ffffffffffffffffffffffffffffffffffffffff1681565b3373ffffffffffffffffffffffffffffffffffffffff1660008054906101000a900473ffffffffffffffffffffffffffffffffffffffff1673ffffffffffffffffffffffffffffffffffffffff16036103c3576040517f08c379a00000000000000000000000000000000000000000000000000000000081526004016103ba90611961565b60405180910390fd5b60006003836040516103d591906119bd565b90815260200160405180910390205414610424576040517f08c379a000000000000000000000000000000000000000000000000000000000815260040161041b90611a20565b60405180910390fd5b6000600260003373ffffffffffffffffffffffffffffffffffffffff1673ffffffffffffffffffffffffffffffffffffffff1681526020019081526020016000208054610470906118be565b9050146104b2576040517f08c379a00000000000000000000000000000000000000000000000000000000081526004016104a990611a8c565b60405180910390fd5b81600260003373ffffffffffffffffffffffffffffffffffffffff1673ffffffffffffffffffffffffffffffffffffffff16815260200190815260200160002090816104fe9190611c58565b5060045460038360405161051291906119bd565b9081526020016040518091039020819055506004547f96148d6025c63f9808b7d027cb8e5589788cdcc95d0318b0424f0b71620722683384844260405161055c9493929190611d39565b60405180910390a26004600081548092919061057790611dbb565b91905055505050565b3373ffffffffffffffffffffffffffffffffffffffff1660008054906101000a900473ffffffffffffffffffffffffffffffffffffffff1673ffffffffffffffffffffffffffffffffffffffff160361060e576040517f08c379a000000000000000000000000000000000000000000000000000000000815260040161060590611961565b60405180910390fd5b6000600260003373ffffffffffffffffffffffffffffffffffffffff1673ffffffffffffffffffffffffffffffffffffffff168152602001908152602001600020805461065a906118be565b90501161069c576040517f08c379a000000000000000000000000000000000000000000000000000000000815260040161069390611e4f565b60405180910390fd5b60006001600260003373ffffffffffffffffffffffffffffffffffffffff1673ffffffffffffffffffffffffffffffffffffffff1681526020019081526020016000206040516106ec9190611ef2565b90815260200160405180910390208760405161070891906119bd565b9081526020016040518091039020600201541461075a576040517f08c379a000000000000000000000000000000000000000000000000000000000815260040161075190611f55565b60405180910390fd5b6000600260003373ffffffffffffffffffffffffffffffffffffffff1673ffffffffffffffffffffffffffffffffffffffff16815260200190815260200160002080546107a6906118be565b80601f01602080910402602001604051908101604052809291908181526020018280546107d2906118be565b801561081f5780601f106107f45761010080835404028352916020019161081f565b820191906000526020600020905b81548152906001019060200180831161080257829003601f168201915b5050505050905060405180606001604052803373ffffffffffffffffffffffffffffffffffffffff16815260200184815260200160055481525060018260405161086991906119bd565b90815260200160405180910390208860405161088591906119bd565b908152602001604051809103902060008201518160000160006101000a81548173ffffffffffffffffffffffffffffffffffffffff021916908373ffffffffffffffffffffffffffffffffffffffff16021790555060208201518160010190805190602001906108f69291906110a4565b506040820151816002015590505060055460038260405161091791906119bd565b9081526020016040518091039020543373ffffffffffffffffffffffffffffffffffffffff167f4c2f81b35bc44c04beb1b9a357ace7a137730db4bb89fe70c3854f98a4a916608a858b8b8b428c8c60008151811061097957610978611f75565b5b60200260200101518d60018151811061099557610994611f75565b5b60200260200101516040516109b299989796959493929190612062565b60405180910390a4600560008154809291906109cd90611dbb565b919050555050505050505050565b848482600060048211610a49576001846040516109f891906119bd565b908152602001604051809103902083604051610a1491906119bd565b90815260200160405180910390206001018281548110610a3757610a36611f75565b5b90600052602060002001549050610a4e565b600090505b803414610a90576040517f08c379a0000000000000000000000000000000000000000000000000000000008152600401610a879061216c565b60405180910390fd5b3373ffffffffffffffffffffffffffffffffffffffff1660008054906101000a900473ffffffffffffffffffffffffffffffffffffffff1673ffffffffffffffffffffffffffffffffffffffff1603610b1e576040517f08c379a0000000000000000000000000000000000000000000000000000000008152600401610b1590611961565b60405180910390fd5b60008510158015610b30575060058511155b610b6f576040517f08c379a0000000000000000000000000000000000000000000000000000000008152600401610b66906121d8565b60405180910390fd5b3373ffffffffffffffffffffffffffffffffffffffff1660018a604051610b9691906119bd565b908152602001604051809103902089604051610bb291906119bd565b908152602001604051809103902060000160009054906101000a900473ffffffffffffffffffffffffffffffffffffffff1673ffffffffffffffffffffffffffffffffffffffff1603610c3a576040517f08c379a0000000000000000000000000000000000000000000000000000000008152600401610c3190612244565b60405180910390fd5b600060018a604051610c4c91906119bd565b908152602001604051809103902089604051610c6891906119bd565b908152602001604051809103902060000160009054906101000a900473ffffffffffffffffffffffffffffffffffffffff1673ffffffffffffffffffffffffffffffffffffffff1688604051610cbd90612295565b60006040518083038185875af1925050503d8060008114610cfa576040519150601f19603f3d011682016040523d82523d6000602084013e610cff565b606091505b5050905060008060009054906101000a900473ffffffffffffffffffffffffffffffffffffffff1673ffffffffffffffffffffffffffffffffffffffff1688604051610d4a90612295565b60006040518083038185875af1925050503d8060008114610d87576040519150601f19603f3d011682016040523d82523d6000602084013e610d8c565b606091505b50509050818015610d9a5750805b610dd9576040517f08c379a0000000000000000000000000000000000000000000000000000000008152600401610dd0906122f6565b60405180910390fd5b60008703610e675760038b604051610df191906119bd565b9081526020016040518091039020543373ffffffffffffffffffffffffffffffffffffffff167fec387e146bb52b33215648f715bdb4aa036a470ca15207bf60f69b926277a9cd8d8d426201518042610e4a9190612316565b604051610e5a949392919061234a565b60405180910390a3611097565b60018703610ef55760038b604051610e7f91906119bd565b9081526020016040518091039020543373ffffffffffffffffffffffffffffffffffffffff167fec387e146bb52b33215648f715bdb4aa036a470ca15207bf60f69b926277a9cd8d8d426203f48042610ed89190612316565b604051610ee8949392919061234a565b60405180910390a3611096565b60028703610f835760038b604051610f0d91906119bd565b9081526020016040518091039020543373ffffffffffffffffffffffffffffffffffffffff167fec387e146bb52b33215648f715bdb4aa036a470ca15207bf60f69b926277a9cd8d8d4262093a8042610f669190612316565b604051610f76949392919061234a565b60405180910390a3611095565b600387036110115760038b604051610f9b91906119bd565b9081526020016040518091039020543373ffffffffffffffffffffffffffffffffffffffff167fec387e146bb52b33215648f715bdb4aa036a470ca15207bf60f69b926277a9cd8d8d426228de8042610ff49190612316565b604051611004949392919061234a565b60405180910390a3611094565b60038b60405161102191906119bd565b9081526020016040518091039020543373ffffffffffffffffffffffffffffffffffffffff167fec387e146bb52b33215648f715bdb4aa036a470ca15207bf60f69b926277a9cd8d8d426301e133804261107b9190612316565b60405161108b949392919061234a565b60405180910390a35b5b5b5b5050505050505050505050565b8280548282559060005260206000209081019282156110e0579160200282015b828111156110df5782518255916020019190600101906110c4565b5b5090506110ed91906110f1565b5090565b5b8082111561110a5760008160009055506001016110f2565b5090565b6000604051905090565b600080fd5b600080fd5b600073ffffffffffffffffffffffffffffffffffffffff82169050919050565b600061114d82611122565b9050919050565b61115d81611142565b811461116857600080fd5b50565b60008135905061117a81611154565b92915050565b60006020828403121561119657611195611118565b5b60006111a48482850161116b565b91505092915050565b600081519050919050565b600082825260208201905092915050565b60005b838110156111e75780820151818401526020810190506111cc565b60008484015250505050565b6000601f19601f8301169050919050565b600061120f826111ad565b61121981856111b8565b93506112298185602086016111c9565b611232816111f3565b840191505092915050565b600060208201905081810360008301526112578184611204565b905092915050565b600080fd5b600080fd5b7f4e487b7100000000000000000000000000000000000000000000000000000000600052604160045260246000fd5b6112a1826111f3565b810181811067ffffffffffffffff821117156112c0576112bf611269565b5b80604052505050565b60006112d361110e565b90506112df8282611298565b919050565b600067ffffffffffffffff8211156112ff576112fe611269565b5b611308826111f3565b9050602081019050919050565b82818337600083830152505050565b6000611337611332846112e4565b6112c9565b90508281526020810184848401111561135357611352611264565b5b61135e848285611315565b509392505050565b600082601f83011261137b5761137a61125f565b5b813561138b848260208601611324565b91505092915050565b6000602082840312156113aa576113a9611118565b5b600082013567ffffffffffffffff8111156113c8576113c761111d565b5b6113d484828501611366565b91505092915050565b6000819050919050565b6113f0816113dd565b82525050565b600060208201905061140b60008301846113e7565b92915050565b6000806040838503121561142857611427611118565b5b600083013567ffffffffffffffff8111156114465761144561111d565b5b61145285828601611366565b925050602083013567ffffffffffffffff8111156114735761147261111d565b5b61147f85828601611366565b9150509250929050565b600061149482611122565b9050919050565b6114a481611489565b82525050565b60006040820190506114bf600083018561149b565b6114cc60208301846113e7565b9392505050565b60006020820190506114e8600083018461149b565b92915050565b6114f7816113dd565b811461150257600080fd5b50565b600081359050611514816114ee565b92915050565b600067ffffffffffffffff82111561153557611534611269565b5b602082029050602081019050919050565b600080fd5b600061155e6115598461151a565b6112c9565b9050808382526020820190506020840283018581111561158157611580611546565b5b835b818110156115aa57806115968882611505565b845260208401935050602081019050611583565b5050509392505050565b600082601f8301126115c9576115c861125f565b5b81356115d984826020860161154b565b91505092915050565b600067ffffffffffffffff8211156115fd576115fc611269565b5b602082029050602081019050919050565b600061162161161c846115e2565b6112c9565b9050808382526020820190506020840283018581111561164457611643611546565b5b835b8181101561168b57803567ffffffffffffffff8111156116695761166861125f565b5b8086016116768982611366565b85526020850194505050602081019050611646565b5050509392505050565b600082601f8301126116aa576116a961125f565b5b81356116ba84826020860161160e565b91505092915050565b60008060008060008060c087890312156116e0576116df611118565b5b600087013567ffffffffffffffff8111156116fe576116fd61111d565b5b61170a89828a01611366565b965050602087013567ffffffffffffffff81111561172b5761172a61111d565b5b61173789828a01611366565b955050604087013567ffffffffffffffff8111156117585761175761111d565b5b61176489828a01611366565b945050606061177589828a01611505565b935050608087013567ffffffffffffffff8111156117965761179561111d565b5b6117a289828a016115b4565b92505060a087013567ffffffffffffffff8111156117c3576117c261111d565b5b6117cf89828a01611695565b9150509295509295509295565b600080600080600060a086880312156117f8576117f7611118565b5b600086013567ffffffffffffffff8111156118165761181561111d565b5b61182288828901611366565b955050602086013567ffffffffffffffff8111156118435761184261111d565b5b61184f88828901611366565b945050604061186088828901611505565b935050606061187188828901611505565b925050608061188288828901611505565b9150509295509295909350565b7f4e487b7100000000000000000000000000000000000000000000000000000000600052602260045260246000fd5b600060028204905060018216806118d657607f821691505b6020821081036118e9576118e861188f565b5b50919050565b7f4d757369436861696e204f776e65722063616e6e6f7420706572666f6d65207460008201527f6869730000000000000000000000000000000000000000000000000000000000602082015250565b600061194b6023836111b8565b9150611956826118ef565b604082019050919050565b6000602082019050818103600083015261197a8161193e565b9050919050565b600081905092915050565b6000611997826111ad565b6119a18185611981565b93506119b18185602086016111c9565b80840191505092915050565b60006119c9828461198c565b915081905092915050565b7f4172746973747320616c72656164792065786973747300000000000000000000600082015250565b6000611a0a6016836111b8565b9150611a15826119d4565b602082019050919050565b60006020820190508181036000830152611a39816119fd565b9050919050565b7f596f752061726520616c726561647920616e2061727469737400000000000000600082015250565b6000611a766019836111b8565b9150611a8182611a40565b602082019050919050565b60006020820190508181036000830152611aa581611a69565b9050919050565b60008190508160005260206000209050919050565b60006020601f8301049050919050565b600082821b905092915050565b600060088302611b0e7fffffffffffffffffffffffffffffffffffffffffffffffffffffffffffffffff82611ad1565b611b188683611ad1565b95508019841693508086168417925050509392505050565b6000819050919050565b6000611b55611b50611b4b846113dd565b611b30565b6113dd565b9050919050565b6000819050919050565b611b6f83611b3a565b611b83611b7b82611b5c565b848454611ade565b825550505050565b600090565b611b98611b8b565b611ba3818484611b66565b505050565b5b81811015611bc757611bbc600082611b90565b600181019050611ba9565b5050565b601f821115611c0c57611bdd81611aac565b611be684611ac1565b81016020851015611bf5578190505b611c09611c0185611ac1565b830182611ba8565b50505b505050565b600082821c905092915050565b6000611c2f60001984600802611c11565b1980831691505092915050565b6000611c488383611c1e565b9150826002028217905092915050565b611c61826111ad565b67ffffffffffffffff811115611c7a57611c79611269565b5b611c8482546118be565b611c8f828285611bcb565b600060209050601f831160018114611cc25760008415611cb0578287015190505b611cba8582611c3c565b865550611d22565b601f198416611cd086611aac565b60005b82811015611cf857848901518255600182019150602085019450602081019050611cd3565b86831015611d155784890151611d11601f891682611c1e565b8355505b6001600288020188555050505b505050505050565b611d3381611142565b82525050565b6000608082019050611d4e6000830187611d2a565b8181036020830152611d608186611204565b90508181036040830152611d748185611204565b9050611d8360608301846113e7565b95945050505050565b7f4e487b7100000000000000000000000000000000000000000000000000000000600052601160045260246000fd5b6000611dc6826113dd565b91507fffffffffffffffffffffffffffffffffffffffffffffffffffffffffffffffff8203611df857611df7611d8c565b5b600182019050919050565b7f596f7520617265206e6f7420616e206172746973747300000000000000000000600082015250565b6000611e396016836111b8565b9150611e4482611e03565b602082019050919050565b60006020820190508181036000830152611e6881611e2c565b9050919050565b60008154611e7c816118be565b611e868186611981565b94506001821660008114611ea15760018114611eb657611ee9565b60ff1983168652811515820286019350611ee9565b611ebf85611aac565b60005b83811015611ee157815481890152600182019150602081019050611ec2565b838801955050505b50505092915050565b6000611efe8284611e6f565b915081905092915050565b7f416c72656164792070726573656e740000000000000000000000000000000000600082015250565b6000611f3f600f836111b8565b9150611f4a82611f09565b602082019050919050565b60006020820190508181036000830152611f6e81611f32565b9050919050565b7f4e487b7100000000000000000000000000000000000000000000000000000000600052603260045260246000fd5b600081519050919050565b600082825260208201905092915050565b6000819050602082019050919050565b611fd9816113dd565b82525050565b6000611feb8383611fd0565b60208301905092915050565b6000602082019050919050565b600061200f82611fa4565b6120198185611faf565b935061202483611fc0565b8060005b8381101561205557815161203c8882611fdf565b975061204783611ff7565b925050600181019050612028565b5085935050505092915050565b600061012082019050818103600083015261207d818c611204565b90508181036020830152612091818b611204565b905081810360408301526120a5818a611204565b905081810360608301526120b98189611204565b90506120c860808301886113e7565b6120d560a08301876113e7565b81810360c08301526120e78186612004565b905081810360e08301526120fb8185611204565b90508181036101008301526121108184611204565b90509a9950505050505050505050565b7f49742773206e6f742074686520726967687420616d6f756e7400000000000000600082015250565b60006121566019836111b8565b915061216182612120565b602082019050919050565b6000602082019050818103600083015261218581612149565b9050919050565b7f4e6f7420746865207269676874206f7074696f6e000000000000000000000000600082015250565b60006121c26014836111b8565b91506121cd8261218c565b602082019050919050565b600060208201905081810360008301526121f1816121b5565b9050919050565b7f4172746973742063616e6e6f742062757920697473206d757369630000000000600082015250565b600061222e601b836111b8565b9150612239826121f8565b602082019050919050565b6000602082019050818103600083015261225d81612221565b9050919050565b600081905092915050565b50565b600061227f600083612264565b915061228a8261226f565b600082019050919050565b60006122a082612272565b9150819050919050565b7f4661696c20746f2073656e642045746865720000000000000000000000000000600082015250565b60006122e06012836111b8565b91506122eb826122aa565b602082019050919050565b6000602082019050818103600083015261230f816122d3565b9050919050565b6000612321826113dd565b915061232c836113dd565b925082820190508082111561234457612343611d8c565b5b92915050565b600060808201905081810360008301526123648187611204565b905081810360208301526123788186611204565b905061238760408301856113e7565b61239460608301846113e7565b9594505050505056fea26469706673582212209514569bf4b79e51666252e8b8e92e495885d83f6fcc5c3de82e8466b80c622364736f6c63430008110033",
  "immutableReferences": {},
  "source": "//SPDX-License-Identifier: MIT\r\npragma solidity ^0.8.0;\r\n\r\ncontract MusiChain {\r\n    address payable public owner;\r\n    mapping(string => mapping(string => Song)) public songs; // una canzone  identificata dalla coppia (NomeArtista, NomeCanzone)\r\n    mapping(address => string) public artists; //Per verificare chi richiama la funzione addArtist non abbia gi agggiunto un artista, questo perch un account pu essere associato a solo un artista\r\n    mapping(string => uint) public artistsCheck; //per controllare che il nome dell'artista non sia gi stato usato\r\n\r\n    struct Song{\r\n        address payable songOwner; //l'indirizzo dell'artista\r\n        uint[] pricing;\r\n        uint idSong;\r\n    }\r\n    \r\n    uint private idArtist; // id assegnato progressivamente ad ogni artista inserito in MusiChain\r\n    uint private idSong;\r\n\r\n    constructor(){\r\n        owner = payable(msg.sender);\r\n        idArtist = 1;\r\n        idSong = 1;\r\n    }\r\n\r\n    event rented(address indexed user, uint indexed idArtist, string artistName, string songName, uint timeOfPurchase, uint expirationTime);\r\n    event artistAdded(address user, uint indexed idArtist, string artistName, string link_avatar, uint timeOfInsertion); //evento che verr richiamato all'aggiunta di un nuovo artista in MusiChain\r\n    event songAdded(address indexed user, uint indexed idArtist, uint indexed idSong, string songName, string artistName, string album, string genre, uint year, uint timeOfInsertion, uint[] pricing, string link_file, string link_cover); //evento che verr richiamato all'aggiunta di una nuova canzone\r\n\r\n    modifier costs(string memory artistName, string memory songName, uint option){ // modificatore per il controllo della quantit di ether per procedere all'acquisto della canzone\r\n        uint amount;\r\n        if(option <=4){\r\n            amount = songs[artistName][songName].pricing[option];\r\n        }else{\r\n            amount = 0;\r\n        }\r\n        \r\n        require(msg.value == amount, \"It's not the right amount\");\r\n        _;\r\n    }\r\n\r\n    modifier notOwner{ // modificatore per controllare che l'account proprietario di MusiChain non esegua operazioni non consentite come l'aggiunta di un artista o di una canzone\r\n        require(owner != msg.sender, \"MusiChain Owner cannot perfome this\");\r\n        _;\r\n    }\r\n\r\n\r\n    function addArtist(string memory artistName, string memory link_avatar) external notOwner{\r\n        require(artistsCheck[artistName] == 0,\"Artists already exists\"); //controllo che l'artista non sia gi stato inserito precedentemente\r\n        require(bytes(artists[msg.sender]).length == 0 ,\"You are already an artist\"); // controllo che l'account che usa questa funzione non sia gi un artista\r\n        artists[msg.sender] = artistName;\r\n        artistsCheck[artistName] = idArtist;\r\n        emit artistAdded(msg.sender, idArtist, artistName , link_avatar, block.timestamp);\r\n        idArtist++;\r\n    }\r\n    \r\n    function addSong(string memory songName, string memory album, string memory genre, uint year, uint[] memory pricing, string[] memory links) external notOwner{\r\n        require(bytes(artists[msg.sender]).length > 0 ,\"You are not an artists\"); // controllo che chi utilizzi questa funzione sia un artista\r\n        require((songs[artists[msg.sender]][songName].idSong == 0),\"Already present\"); // controllo che la canzone non sia gi inserita\r\n        string memory artistName = artists[msg.sender];\r\n        songs[artistName][songName] = Song(payable(msg.sender), pricing, idSong); //inserisco automaticamente il nome dell'artista, in quanto solo un artista  associato ad un determinato account\r\n\r\n        emit songAdded(msg.sender, artistsCheck[artistName],idSong, songName, artistName, album, genre, year, block.timestamp, pricing, links[0], links[1]);\r\n        idSong++;\r\n    }\r\n\r\n    function buySong(string memory artistName, string memory songName, uint amountArtist, uint amountMusiChain, uint option) external payable costs(artistName, songName, option) notOwner{ \r\n        require(option>=0 && option<=5, \"Not the right option\");\r\n        require(songs[artistName][songName].songOwner != msg.sender,\"Artist cannot buy its music\"); // controllo che l'artsta non compri la sua stessa musica\r\n        (bool sentArtist,) = songs[artistName][songName].songOwner.call{value: (amountArtist)}(\"\"); // invio degli ethers all'account dell'artista\r\n        (bool sentMusiChian,) = owner.call{value: (amountMusiChain)}(\"\"); // invio degli ethers all'acount del proprietario di MusiChain\r\n        require(sentArtist && sentMusiChian,\"Fail to send Ether\"); // controllo che le operazioni siano andate a buon fine\r\n        if(option == 0){\r\n            emit rented(msg.sender, artistsCheck[artistName], artistName, songName, block.timestamp, block.timestamp + 1 days);\r\n        }else if(option == 1){\r\n            emit rented(msg.sender, artistsCheck[artistName], artistName, songName, block.timestamp, block.timestamp + (3*1 days));\r\n        }else if(option == 2){\r\n            emit rented(msg.sender, artistsCheck[artistName], artistName, songName, block.timestamp, block.timestamp + 1 weeks);\r\n        }else if(option == 3){\r\n            emit rented(msg.sender, artistsCheck[artistName], artistName, songName, block.timestamp, block.timestamp + (31*1 days));\r\n        }else{\r\n            emit rented(msg.sender, artistsCheck[artistName], artistName, songName, block.timestamp, block.timestamp + (365*1 days));\r\n        }\r\n        \r\n    }\r\n\r\n}",
  "sourcePath": "C:\\Users\\sergi\\Documents\\Uni Magistrale\\Secondo Anno\\Primo Semestre\\Ing. SW\\Progetto\\MusiChainWebApp\\musichain\\contracts\\MusiChain.sol",
  "compiler": {
    "name": "solc",
    "version": "0.8.17+commit.8df45f5f.Emscripten.clang"
  },
  "schemaVersion": "3.4.10",
  "updatedAt": "2022-12-09T16:45:52.729Z",
  "networkType": "ethereum",
  "devdoc": {
    "kind": "dev",
    "methods": {},
    "version": 1
  },
  "userdoc": {
    "kind": "user",
    "methods": {},
    "version": 1
  }
}