{
  "contractName": "MusiChain",
  "abi": [
    {
      "inputs": [],
      "stateMutability": "nonpayable",
      "type": "constructor"
    },
    {
      "anonymous": false,
      "inputs": [
        {
          "indexed": false,
          "internalType": "address",
          "name": "user",
          "type": "address"
        },
        {
          "indexed": true,
          "internalType": "uint256",
          "name": "idArtist",
          "type": "uint256"
        },
        {
          "indexed": false,
          "internalType": "string",
          "name": "artistName",
          "type": "string"
        },
        {
          "indexed": false,
          "internalType": "uint256",
          "name": "timeOfInsertion",
          "type": "uint256"
        }
      ],
      "name": "artistAdded",
      "type": "event"
    },
    {
      "anonymous": false,
      "inputs": [
        {
          "indexed": true,
          "internalType": "address",
          "name": "user",
          "type": "address"
        },
        {
          "indexed": true,
          "internalType": "uint256",
          "name": "idArtist",
          "type": "uint256"
        },
        {
          "indexed": false,
          "internalType": "string",
          "name": "artistName",
          "type": "string"
        },
        {
          "indexed": false,
          "internalType": "string",
          "name": "songName",
          "type": "string"
        },
        {
          "indexed": false,
          "internalType": "uint256",
          "name": "timeOfPurchase",
          "type": "uint256"
        }
      ],
      "name": "purchased",
      "type": "event"
    },
    {
      "anonymous": false,
      "inputs": [
        {
          "indexed": true,
          "internalType": "address",
          "name": "user",
          "type": "address"
        },
        {
          "indexed": true,
          "internalType": "uint256",
          "name": "idArtist",
          "type": "uint256"
        },
        {
          "indexed": false,
          "internalType": "string",
          "name": "artistName",
          "type": "string"
        },
        {
          "indexed": false,
          "internalType": "string",
          "name": "songName",
          "type": "string"
        },
        {
          "indexed": false,
          "internalType": "uint256",
          "name": "timeOfPurchase",
          "type": "uint256"
        },
        {
          "indexed": false,
          "internalType": "uint256",
          "name": "expirationTime",
          "type": "uint256"
        }
      ],
      "name": "rented",
      "type": "event"
    },
    {
      "anonymous": false,
      "inputs": [
        {
          "indexed": false,
          "internalType": "address",
          "name": "user",
          "type": "address"
        },
        {
          "indexed": true,
          "internalType": "uint256",
          "name": "idArtist",
          "type": "uint256"
        },
        {
          "indexed": false,
          "internalType": "string",
          "name": "songName",
          "type": "string"
        },
        {
          "indexed": false,
          "internalType": "string",
          "name": "artistName",
          "type": "string"
        },
        {
          "indexed": false,
          "internalType": "uint256",
          "name": "timeOfInsertion",
          "type": "uint256"
        }
      ],
      "name": "songAdded",
      "type": "event"
    },
    {
      "inputs": [
        {
          "internalType": "address",
          "name": "",
          "type": "address"
        }
      ],
      "name": "artists",
      "outputs": [
        {
          "internalType": "string",
          "name": "",
          "type": "string"
        }
      ],
      "stateMutability": "view",
      "type": "function",
      "constant": true
    },
    {
      "inputs": [
        {
          "internalType": "string",
          "name": "",
          "type": "string"
        }
      ],
      "name": "artistsCheck",
      "outputs": [
        {
          "internalType": "uint256",
          "name": "",
          "type": "uint256"
        }
      ],
      "stateMutability": "view",
      "type": "function",
      "constant": true
    },
    {
      "inputs": [],
      "name": "owner",
      "outputs": [
        {
          "internalType": "address payable",
          "name": "",
          "type": "address"
        }
      ],
      "stateMutability": "view",
      "type": "function",
      "constant": true
    },
    {
      "inputs": [
        {
          "internalType": "string",
          "name": "",
          "type": "string"
        },
        {
          "internalType": "string",
          "name": "",
          "type": "string"
        }
      ],
      "name": "songs",
      "outputs": [
        {
          "internalType": "address payable",
          "name": "songOwner",
          "type": "address"
        },
        {
          "internalType": "string",
          "name": "genre",
          "type": "string"
        },
        {
          "internalType": "string",
          "name": "album",
          "type": "string"
        },
        {
          "internalType": "uint256",
          "name": "year",
          "type": "uint256"
        },
        {
          "internalType": "uint256",
          "name": "purchasingCost",
          "type": "uint256"
        },
        {
          "internalType": "uint256",
          "name": "rent_oneday",
          "type": "uint256"
        },
        {
          "internalType": "uint256",
          "name": "rent_threedays",
          "type": "uint256"
        },
        {
          "internalType": "uint256",
          "name": "rent_oneweek",
          "type": "uint256"
        },
        {
          "internalType": "uint256",
          "name": "rent_onemonth",
          "type": "uint256"
        },
        {
          "internalType": "uint256",
          "name": "rent_oneyear",
          "type": "uint256"
        }
      ],
      "stateMutability": "view",
      "type": "function",
      "constant": true
    },
    {
      "inputs": [
        {
          "internalType": "string",
          "name": "artistName",
          "type": "string"
        }
      ],
      "name": "addArtist",
      "outputs": [],
      "stateMutability": "nonpayable",
      "type": "function"
    },
    {
      "inputs": [
        {
          "internalType": "string",
          "name": "songName",
          "type": "string"
        },
        {
          "internalType": "string",
          "name": "genre",
          "type": "string"
        },
        {
          "internalType": "string",
          "name": "album",
          "type": "string"
        },
        {
          "internalType": "uint256",
          "name": "year",
          "type": "uint256"
        }
      ],
      "name": "addSong",
      "outputs": [],
      "stateMutability": "nonpayable",
      "type": "function"
    },
    {
      "inputs": [
        {
          "internalType": "string",
          "name": "artistName",
          "type": "string"
        },
        {
          "internalType": "string",
          "name": "songName",
          "type": "string"
        },
        {
          "internalType": "uint256",
          "name": "amountArtist",
          "type": "uint256"
        },
        {
          "internalType": "uint256",
          "name": "amountMusiChain",
          "type": "uint256"
        },
        {
          "internalType": "uint256",
          "name": "option",
          "type": "uint256"
        }
      ],
      "name": "buySong",
      "outputs": [],
      "stateMutability": "payable",
      "type": "function",
      "payable": true
    }
  ],
  "bytecode": "0x608060405234801561001057600080fd5b50336000806101000a81548173ffffffffffffffffffffffffffffffffffffffff021916908373ffffffffffffffffffffffffffffffffffffffff1602179055506001600481905550612477806100686000396000f3fe6080604052600436106100705760003560e01c80638da5cb5b1161004e5780638da5cb5b14610135578063c981c1c514610160578063de8d307314610189578063f29b4165146101a557610070565b8063069dab8f14610075578063224eb928146100b257806344bd0119146100ef575b600080fd5b34801561008157600080fd5b5061009c600480360381019061009791906114d2565b6101ce565b6040516100a9919061158f565b60405180910390f35b3480156100be57600080fd5b506100d960048036038101906100d491906116e6565b61026e565b6040516100e69190611748565b60405180910390f35b3480156100fb57600080fd5b5061011660048036038101906101119190611763565b61029c565b60405161012c9a999897969594939291906117fc565b60405180910390f35b34801561014157600080fd5b5061014a610459565b60405161015791906118a6565b60405180910390f35b34801561016c57600080fd5b50610187600480360381019061018291906116e6565b61047d565b005b6101a3600480360381019061019e91906118ed565b6106c5565b005b3480156101b157600080fd5b506101cc60048036038101906101c791906119a0565b610f76565b005b600260205280600052604060002060009150905080546101ed90611a8a565b80601f016020809104026020016040519081016040528092919081815260200182805461021990611a8a565b80156102665780601f1061023b57610100808354040283529160200191610266565b820191906000526020600020905b81548152906001019060200180831161024957829003601f168201915b505050505081565b6003818051602081018201805184825260208301602085012081835280955050505050506000915090505481565b60018280516020810182018051848252602083016020850120818352809550505050505081805160208101820180518482526020830160208501208183528095505050505050600091509150508060000160009054906101000a900473ffffffffffffffffffffffffffffffffffffffff169080600101805461031e90611a8a565b80601f016020809104026020016040519081016040528092919081815260200182805461034a90611a8a565b80156103975780601f1061036c57610100808354040283529160200191610397565b820191906000526020600020905b81548152906001019060200180831161037a57829003601f168201915b5050505050908060020180546103ac90611a8a565b80601f01602080910402602001604051908101604052809291908181526020018280546103d890611a8a565b80156104255780601f106103fa57610100808354040283529160200191610425565b820191906000526020600020905b81548152906001019060200180831161040857829003601f168201915b505050505090806003015490806004015490806005015490806006015490806007015490806008015490806009015490508a565b60008054906101000a900473ffffffffffffffffffffffffffffffffffffffff1681565b3373ffffffffffffffffffffffffffffffffffffffff1660008054906101000a900473ffffffffffffffffffffffffffffffffffffffff1673ffffffffffffffffffffffffffffffffffffffff160361050b576040517f08c379a000000000000000000000000000000000000000000000000000000000815260040161050290611b2d565b60405180910390fd5b600060038260405161051d9190611b89565b9081526020016040518091039020541461056c576040517f08c379a000000000000000000000000000000000000000000000000000000000815260040161056390611bec565b60405180910390fd5b6000600260003373ffffffffffffffffffffffffffffffffffffffff1673ffffffffffffffffffffffffffffffffffffffff16815260200190815260200160002080546105b890611a8a565b9050146105fa576040517f08c379a00000000000000000000000000000000000000000000000000000000081526004016105f190611c58565b60405180910390fd5b80600260003373ffffffffffffffffffffffffffffffffffffffff1673ffffffffffffffffffffffffffffffffffffffff16815260200190815260200160002090816106469190611e24565b5060045460038260405161065a9190611b89565b9081526020016040518091039020819055506004547f0327b02de13ff68e3ba6d699b67cc673a27b5eecdeae472dbc20051ab11699343383426040516106a293929190611f05565b60405180910390a2600460008154809291906106bd90611f72565b919050555050565b8484826000808203610716576001846040516106e19190611b89565b9081526020016040518091039020836040516106fd9190611b89565b90815260200160405180910390206004015490506108a1565b600182036107635760018460405161072e9190611b89565b90815260200160405180910390208360405161074a9190611b89565b90815260200160405180910390206005015490506108a0565b600282036107b05760018460405161077b9190611b89565b9081526020016040518091039020836040516107979190611b89565b908152602001604051809103902060060154905061089f565b600382036107fd576001846040516107c89190611b89565b9081526020016040518091039020836040516107e49190611b89565b908152602001604051809103902060070154905061089e565b6004820361084a576001846040516108159190611b89565b9081526020016040518091039020836040516108319190611b89565b908152602001604051809103902060080154905061089d565b60058203610897576001846040516108629190611b89565b90815260200160405180910390208360405161087e9190611b89565b908152602001604051809103902060090154905061089c565b600090505b5b5b5b5b5b8034146108e3576040517f08c379a00000000000000000000000000000000000000000000000000000000081526004016108da90612006565b60405180910390fd5b3373ffffffffffffffffffffffffffffffffffffffff1660008054906101000a900473ffffffffffffffffffffffffffffffffffffffff1673ffffffffffffffffffffffffffffffffffffffff1603610971576040517f08c379a000000000000000000000000000000000000000000000000000000000815260040161096890611b2d565b60405180910390fd5b60008510158015610983575060058511155b6109c2576040517f08c379a00000000000000000000000000000000000000000000000000000000081526004016109b990612072565b60405180910390fd5b3373ffffffffffffffffffffffffffffffffffffffff1660018a6040516109e99190611b89565b908152602001604051809103902089604051610a059190611b89565b908152602001604051809103902060000160009054906101000a900473ffffffffffffffffffffffffffffffffffffffff1673ffffffffffffffffffffffffffffffffffffffff1603610a8d576040517f08c379a0000000000000000000000000000000000000000000000000000000008152600401610a84906120de565b60405180910390fd5b600060018a604051610a9f9190611b89565b908152602001604051809103902089604051610abb9190611b89565b908152602001604051809103902060000160009054906101000a900473ffffffffffffffffffffffffffffffffffffffff1673ffffffffffffffffffffffffffffffffffffffff1688604051610b109061212f565b60006040518083038185875af1925050503d8060008114610b4d576040519150601f19603f3d011682016040523d82523d6000602084013e610b52565b606091505b5050905060008060009054906101000a900473ffffffffffffffffffffffffffffffffffffffff1673ffffffffffffffffffffffffffffffffffffffff1688604051610b9d9061212f565b60006040518083038185875af1925050503d8060008114610bda576040519150601f19603f3d011682016040523d82523d6000602084013e610bdf565b606091505b50509050818015610bed5750805b610c2c576040517f08c379a0000000000000000000000000000000000000000000000000000000008152600401610c2390612190565b60405180910390fd5b60008703610caa5760038b604051610c449190611b89565b9081526020016040518091039020543373ffffffffffffffffffffffffffffffffffffffff167f2b4806ec2750d9bb921bdcca8b61f9cf999419d6cc875cfb20933eba0bec84908d8d42604051610c9d939291906121b0565b60405180910390a3610f69565b60018703610d385760038b604051610cc29190611b89565b9081526020016040518091039020543373ffffffffffffffffffffffffffffffffffffffff167fec387e146bb52b33215648f715bdb4aa036a470ca15207bf60f69b926277a9cd8d8d426201518042610d1b91906121f5565b604051610d2b9493929190612229565b60405180910390a3610f68565b60028703610dc65760038b604051610d509190611b89565b9081526020016040518091039020543373ffffffffffffffffffffffffffffffffffffffff167fec387e146bb52b33215648f715bdb4aa036a470ca15207bf60f69b926277a9cd8d8d426203f48042610da991906121f5565b604051610db99493929190612229565b60405180910390a3610f67565b60038703610e545760038b604051610dde9190611b89565b9081526020016040518091039020543373ffffffffffffffffffffffffffffffffffffffff167fec387e146bb52b33215648f715bdb4aa036a470ca15207bf60f69b926277a9cd8d8d4262093a8042610e3791906121f5565b604051610e479493929190612229565b60405180910390a3610f66565b60048703610ee25760038b604051610e6c9190611b89565b9081526020016040518091039020543373ffffffffffffffffffffffffffffffffffffffff167fec387e146bb52b33215648f715bdb4aa036a470ca15207bf60f69b926277a9cd8d8d426228de8042610ec591906121f5565b604051610ed59493929190612229565b60405180910390a3610f65565b60038b604051610ef29190611b89565b9081526020016040518091039020543373ffffffffffffffffffffffffffffffffffffffff167fec387e146bb52b33215648f715bdb4aa036a470ca15207bf60f69b926277a9cd8d8d426301e1338042610f4c91906121f5565b604051610f5c9493929190612229565b60405180910390a35b5b5b5b5b5050505050505050505050565b3373ffffffffffffffffffffffffffffffffffffffff1660008054906101000a900473ffffffffffffffffffffffffffffffffffffffff1673ffffffffffffffffffffffffffffffffffffffff1603611004576040517f08c379a0000000000000000000000000000000000000000000000000000000008152600401610ffb90611b2d565b60405180910390fd5b6000600260003373ffffffffffffffffffffffffffffffffffffffff1673ffffffffffffffffffffffffffffffffffffffff168152602001908152602001600020805461105090611a8a565b905011611092576040517f08c379a0000000000000000000000000000000000000000000000000000000008152600401611089906122c8565b60405180910390fd5b60006001600260003373ffffffffffffffffffffffffffffffffffffffff1673ffffffffffffffffffffffffffffffffffffffff1681526020019081526020016000206040516110e2919061236b565b9081526020016040518091039020856040516110fe9190611b89565b90815260200160405180910390206003015414611150576040517f08c379a0000000000000000000000000000000000000000000000000000000008152600401611147906123ce565b60405180910390fd5b600066071afd498d00009050600066038d7ea4c68000905060006608e1bc9bf0400090506000661550f7dca700009050600066470de4df820000905060006702c68af0bb14000090506040518061014001604052803373ffffffffffffffffffffffffffffffffffffffff1681526020018a8152602001898152602001888152602001878152602001868152602001858152602001848152602001838152602001828152506001600260003373ffffffffffffffffffffffffffffffffffffffff1673ffffffffffffffffffffffffffffffffffffffff168152602001908152602001600020604051611243919061236b565b90815260200160405180910390208b60405161125f9190611b89565b908152602001604051809103902060008201518160000160006101000a81548173ffffffffffffffffffffffffffffffffffffffff021916908373ffffffffffffffffffffffffffffffffffffffff16021790555060208201518160010190816112c99190611e24565b5060408201518160020190816112df9190611e24565b50606082015181600301556080820151816004015560a0820151816005015560c0820151816006015560e08201518160070155610100820151816008015561012082015181600901559050506000600260003373ffffffffffffffffffffffffffffffffffffffff1673ffffffffffffffffffffffffffffffffffffffff168152602001908152602001600020805461137790611a8a565b80601f01602080910402602001604051908101604052809291908181526020018280546113a390611a8a565b80156113f05780601f106113c5576101008083540402835291602001916113f0565b820191906000526020600020905b8154815290600101906020018083116113d357829003601f168201915b505050505090506003816040516114079190611b89565b9081526020016040518091039020547fdac4a438150ee6ff6d73fea55d88fde3618c09191cecd4345949df33c4b725e1338d844260405161144b94939291906123ee565b60405180910390a25050505050505050505050565b6000604051905090565b600080fd5b600080fd5b600073ffffffffffffffffffffffffffffffffffffffff82169050919050565b600061149f82611474565b9050919050565b6114af81611494565b81146114ba57600080fd5b50565b6000813590506114cc816114a6565b92915050565b6000602082840312156114e8576114e761146a565b5b60006114f6848285016114bd565b91505092915050565b600081519050919050565b600082825260208201905092915050565b60005b8381101561153957808201518184015260208101905061151e565b60008484015250505050565b6000601f19601f8301169050919050565b6000611561826114ff565b61156b818561150a565b935061157b81856020860161151b565b61158481611545565b840191505092915050565b600060208201905081810360008301526115a98184611556565b905092915050565b600080fd5b600080fd5b7f4e487b7100000000000000000000000000000000000000000000000000000000600052604160045260246000fd5b6115f382611545565b810181811067ffffffffffffffff82111715611612576116116115bb565b5b80604052505050565b6000611625611460565b905061163182826115ea565b919050565b600067ffffffffffffffff821115611651576116506115bb565b5b61165a82611545565b9050602081019050919050565b82818337600083830152505050565b600061168961168484611636565b61161b565b9050828152602081018484840111156116a5576116a46115b6565b5b6116b0848285611667565b509392505050565b600082601f8301126116cd576116cc6115b1565b5b81356116dd848260208601611676565b91505092915050565b6000602082840312156116fc576116fb61146a565b5b600082013567ffffffffffffffff81111561171a5761171961146f565b5b611726848285016116b8565b91505092915050565b6000819050919050565b6117428161172f565b82525050565b600060208201905061175d6000830184611739565b92915050565b6000806040838503121561177a5761177961146a565b5b600083013567ffffffffffffffff8111156117985761179761146f565b5b6117a4858286016116b8565b925050602083013567ffffffffffffffff8111156117c5576117c461146f565b5b6117d1858286016116b8565b9150509250929050565b60006117e682611474565b9050919050565b6117f6816117db565b82525050565b600061014082019050611812600083018d6117ed565b8181036020830152611824818c611556565b90508181036040830152611838818b611556565b9050611847606083018a611739565b6118546080830189611739565b61186160a0830188611739565b61186e60c0830187611739565b61187b60e0830186611739565b611889610100830185611739565b611897610120830184611739565b9b9a5050505050505050505050565b60006020820190506118bb60008301846117ed565b92915050565b6118ca8161172f565b81146118d557600080fd5b50565b6000813590506118e7816118c1565b92915050565b600080600080600060a086880312156119095761190861146a565b5b600086013567ffffffffffffffff8111156119275761192661146f565b5b611933888289016116b8565b955050602086013567ffffffffffffffff8111156119545761195361146f565b5b611960888289016116b8565b9450506040611971888289016118d8565b9350506060611982888289016118d8565b9250506080611993888289016118d8565b9150509295509295909350565b600080600080608085870312156119ba576119b961146a565b5b600085013567ffffffffffffffff8111156119d8576119d761146f565b5b6119e4878288016116b8565b945050602085013567ffffffffffffffff811115611a0557611a0461146f565b5b611a11878288016116b8565b935050604085013567ffffffffffffffff811115611a3257611a3161146f565b5b611a3e878288016116b8565b9250506060611a4f878288016118d8565b91505092959194509250565b7f4e487b7100000000000000000000000000000000000000000000000000000000600052602260045260246000fd5b60006002820490506001821680611aa257607f821691505b602082108103611ab557611ab4611a5b565b5b50919050565b7f4d757369436861696e204f776e65722063616e6e6f7420706572666f6d65207460008201527f6869730000000000000000000000000000000000000000000000000000000000602082015250565b6000611b1760238361150a565b9150611b2282611abb565b604082019050919050565b60006020820190508181036000830152611b4681611b0a565b9050919050565b600081905092915050565b6000611b63826114ff565b611b6d8185611b4d565b9350611b7d81856020860161151b565b80840191505092915050565b6000611b958284611b58565b915081905092915050565b7f4172746973747320616c72656164792065786973747300000000000000000000600082015250565b6000611bd660168361150a565b9150611be182611ba0565b602082019050919050565b60006020820190508181036000830152611c0581611bc9565b9050919050565b7f596f752061726520616c726561647920616e2061727469737400000000000000600082015250565b6000611c4260198361150a565b9150611c4d82611c0c565b602082019050919050565b60006020820190508181036000830152611c7181611c35565b9050919050565b60008190508160005260206000209050919050565b60006020601f8301049050919050565b600082821b905092915050565b600060088302611cda7fffffffffffffffffffffffffffffffffffffffffffffffffffffffffffffffff82611c9d565b611ce48683611c9d565b95508019841693508086168417925050509392505050565b6000819050919050565b6000611d21611d1c611d178461172f565b611cfc565b61172f565b9050919050565b6000819050919050565b611d3b83611d06565b611d4f611d4782611d28565b848454611caa565b825550505050565b600090565b611d64611d57565b611d6f818484611d32565b505050565b5b81811015611d9357611d88600082611d5c565b600181019050611d75565b5050565b601f821115611dd857611da981611c78565b611db284611c8d565b81016020851015611dc1578190505b611dd5611dcd85611c8d565b830182611d74565b50505b505050565b600082821c905092915050565b6000611dfb60001984600802611ddd565b1980831691505092915050565b6000611e148383611dea565b9150826002028217905092915050565b611e2d826114ff565b67ffffffffffffffff811115611e4657611e456115bb565b5b611e508254611a8a565b611e5b828285611d97565b600060209050601f831160018114611e8e5760008415611e7c578287015190505b611e868582611e08565b865550611eee565b601f198416611e9c86611c78565b60005b82811015611ec457848901518255600182019150602085019450602081019050611e9f565b86831015611ee15784890151611edd601f891682611dea565b8355505b6001600288020188555050505b505050505050565b611eff81611494565b82525050565b6000606082019050611f1a6000830186611ef6565b8181036020830152611f2c8185611556565b9050611f3b6040830184611739565b949350505050565b7f4e487b7100000000000000000000000000000000000000000000000000000000600052601160045260246000fd5b6000611f7d8261172f565b91507fffffffffffffffffffffffffffffffffffffffffffffffffffffffffffffffff8203611faf57611fae611f43565b5b600182019050919050565b7f49742773206e6f742074686520726967687420616d6f756e7400000000000000600082015250565b6000611ff060198361150a565b9150611ffb82611fba565b602082019050919050565b6000602082019050818103600083015261201f81611fe3565b9050919050565b7f4e6f7420746865207269676874206f7074696f6e000000000000000000000000600082015250565b600061205c60148361150a565b915061206782612026565b602082019050919050565b6000602082019050818103600083015261208b8161204f565b9050919050565b7f4172746973742063616e6e6f742062757920697473206d757369630000000000600082015250565b60006120c8601b8361150a565b91506120d382612092565b602082019050919050565b600060208201905081810360008301526120f7816120bb565b9050919050565b600081905092915050565b50565b60006121196000836120fe565b915061212482612109565b600082019050919050565b600061213a8261210c565b9150819050919050565b7f4661696c20746f2073656e642045746865720000000000000000000000000000600082015250565b600061217a60128361150a565b915061218582612144565b602082019050919050565b600060208201905081810360008301526121a98161216d565b9050919050565b600060608201905081810360008301526121ca8186611556565b905081810360208301526121de8185611556565b90506121ed6040830184611739565b949350505050565b60006122008261172f565b915061220b8361172f565b925082820190508082111561222357612222611f43565b5b92915050565b600060808201905081810360008301526122438187611556565b905081810360208301526122578186611556565b90506122666040830185611739565b6122736060830184611739565b95945050505050565b7f596f7520617265206e6f7420616e206172746973747300000000000000000000600082015250565b60006122b260168361150a565b91506122bd8261227c565b602082019050919050565b600060208201905081810360008301526122e1816122a5565b9050919050565b600081546122f581611a8a565b6122ff8186611b4d565b9450600182166000811461231a576001811461232f57612362565b60ff1983168652811515820286019350612362565b61233885611c78565b60005b8381101561235a5781548189015260018201915060208101905061233b565b838801955050505b50505092915050565b600061237782846122e8565b915081905092915050565b7f416c72656164792070726573656e740000000000000000000000000000000000600082015250565b60006123b8600f8361150a565b91506123c382612382565b602082019050919050565b600060208201905081810360008301526123e7816123ab565b9050919050565b60006080820190506124036000830187611ef6565b81810360208301526124158186611556565b905081810360408301526124298185611556565b90506124386060830184611739565b9594505050505056fea2646970667358221220cc369487fbdec7dff7bb49ba3114c58eec71b0af90baee651a2ee883e6d760a064736f6c63430008110033",
  "immutableReferences": {},
  "source": "//SPDX-License-Identifier: MIT\r\npragma solidity ^0.8.0;\r\n\r\ncontract MusiChain {\r\n    address payable public owner;\r\n    mapping(string => mapping(string => Song)) public songs; // una canzone  identificata dalla coppia (NomeArtista, NomeCanzone)\r\n    mapping(address => string) public artists; //Per verificare chi richiama la funzione addArtist non abbia gi agggiunto un artista, questo perch un account pu essere associato a solo un artista\r\n    mapping(string => uint) public artistsCheck; //per controllare che il nome dell'artista non sia gi stato usato\r\n\r\n    struct Song{\r\n        address payable songOwner; //l'indirizzo dell'artista\r\n        string genre;\r\n        string album;\r\n        uint year;\r\n        uint purchasingCost;\r\n        uint rent_oneday;\r\n        uint rent_threedays;\r\n        uint rent_oneweek;\r\n        uint rent_onemonth;\r\n        uint rent_oneyear;\r\n    }\r\n    \r\n    uint private idArtist; // id assegnato progressivamente ad ogni artista inserito in MusiChain\r\n\r\n\r\n    constructor(){\r\n        owner = payable(msg.sender);\r\n        idArtist = 1;\r\n    }\r\n\r\n    event purchased(address indexed user, uint indexed idArtist, string artistName, string songName, uint timeOfPurchase); //evento che verr richiamato ad ogni acquisto di una canzone. Avremo quindi la lista di tutti gli acquisti\r\n    event rented(address indexed user, uint indexed idArtist, string artistName, string songName, uint timeOfPurchase, uint expirationTime);\r\n    event artistAdded(address user, uint indexed idArtist, string artistName, uint timeOfInsertion); //evento che verr richiamato all'aggiunta di un nuovo artista in MusiChain\r\n    event songAdded(address user, uint indexed idArtist ,string songName, string artistName, uint timeOfInsertion); //evento che verr richiamato all'aggiunta di una nuova canzone\r\n\r\n    modifier costs(string memory artistName, string memory songName, uint option){ // modificatore per il controllo della quantit di ether per procedere all'acquisto della canzone\r\n        uint amount;\r\n        if(option == 0){\r\n            amount = songs[artistName][songName].purchasingCost;\r\n        }else if(option == 1){\r\n            amount = songs[artistName][songName].rent_oneday;\r\n        }else if(option == 2){\r\n            amount = songs[artistName][songName].rent_threedays;\r\n        }else if(option == 3){\r\n            amount = songs[artistName][songName].rent_oneweek;\r\n        }else if(option == 4){\r\n            amount = songs[artistName][songName].rent_onemonth;\r\n        }else if(option == 5){\r\n            amount = songs[artistName][songName].rent_oneyear;\r\n        }else{\r\n            amount = 0;\r\n        }\r\n        \r\n        require(msg.value == amount, \"It's not the right amount\");\r\n        _;\r\n    }\r\n\r\n    modifier notOwner{ // modificatore per controllare che l'account proprietario di MusiChain non esegua operazioni non consentite come l'aggiunta di un artista o di una canzone\r\n        require(owner != msg.sender, \"MusiChain Owner cannot perfome this\");\r\n        _;\r\n    }\r\n\r\n    function addArtist(string memory artistName) external notOwner{\r\n        require(artistsCheck[artistName] == 0,\"Artists already exists\"); //controllo che l'artista non sia gi stato inserito precedentemente\r\n        require(bytes(artists[msg.sender]).length == 0 ,\"You are already an artist\"); // controllo che l'account che usa questa funzione non sia gi un artista\r\n        artists[msg.sender] = artistName;\r\n        artistsCheck[artistName] = idArtist;\r\n        emit artistAdded(msg.sender, idArtist, artistName ,block.timestamp);\r\n        idArtist++;\r\n    }\r\n    \r\n    function addSong(string memory songName, string memory genre, string memory album, uint year) external notOwner{\r\n        require(bytes(artists[msg.sender]).length > 0 ,\"You are not an artists\"); // controllo che chi utilizzi questa funzione sia un artista\r\n        require((songs[artists[msg.sender]][songName].year == 0),\"Already present\"); // controllo che la canzone non sia gi inserita\r\n        uint purchasingCost = 2000000000000000 wei; // 2,3 euro\r\n        uint rent_oneday = 1000000000000000 wei; // 1,15 euro\r\n        uint rent_threedays = 2500000000000000 wei; //2,87 euro\r\n        uint rent_oneweek = 6000000000000000 wei; //6,89 euro\r\n        uint rent_onemonth = 20000000000000000 wei; //22,98 euro\r\n        uint rent_oneyear = 200000000000000000 wei; //229,75 euro\r\n        songs[artists[msg.sender]][songName] = Song(payable(msg.sender), genre, album, year, purchasingCost, rent_oneday, rent_threedays,rent_oneweek,rent_onemonth,rent_oneyear); //inserisco automaticamente il nome dell'artista, in quanto solo un artista  associato ad un determinato account\r\n        //songs[artists[msg.sender]][songName] = Song(payable(msg.sender), genre, album, year, length, purchasingCost, rent_oneday, rent_threedays,rent_oneweek,rent_onemonth,rent_oneyear); //inserisco automaticamente il nome dell'artista, in quanto solo un artista  associato ad un determinato account\r\n        string memory artistName = artists[msg.sender];\r\n        emit songAdded(msg.sender, artistsCheck[artistName], songName, artistName, block.timestamp);\r\n    }\r\n\r\n    function buySong(string memory artistName, string memory songName, uint amountArtist, uint amountMusiChain, uint option) external payable costs(artistName, songName, option) notOwner{ \r\n        require(option>=0 && option<=5, \"Not the right option\");\r\n        require(songs[artistName][songName].songOwner != msg.sender,\"Artist cannot buy its music\"); // controllo che l'artsta non compri la sua stessa musica\r\n        (bool sentArtist,) = songs[artistName][songName].songOwner.call{value: (amountArtist)}(\"\"); // invio degli ethers all'account dell'artista\r\n        (bool sentMusiChian,) = owner.call{value: (amountMusiChain)}(\"\"); // invio degli ethers all'acount del proprietario di MusiChain\r\n        require(sentArtist && sentMusiChian,\"Fail to send Ether\"); // controllo che le operazioni siano andate a buon fine\r\n        if(option == 0){\r\n            emit purchased(msg.sender, artistsCheck[artistName], artistName, songName, block.timestamp);\r\n        }else if(option == 1){\r\n            emit rented(msg.sender, artistsCheck[artistName], artistName, songName, block.timestamp, block.timestamp + 1 days);\r\n        }else if(option == 2){\r\n            emit rented(msg.sender, artistsCheck[artistName], artistName, songName, block.timestamp, block.timestamp + (3*1 days));\r\n        }else if(option == 3){\r\n            emit rented(msg.sender, artistsCheck[artistName], artistName, songName, block.timestamp, block.timestamp + 1 weeks);\r\n        }else if(option == 4){\r\n            emit rented(msg.sender, artistsCheck[artistName], artistName, songName, block.timestamp, block.timestamp + (31*1 days));\r\n        }else{\r\n            emit rented(msg.sender, artistsCheck[artistName], artistName, songName, block.timestamp, block.timestamp + (365*1 days));\r\n        }\r\n        \r\n    }\r\n\r\n}",
  "sourcePath": "C:\\Users\\sergi\\Documents\\Uni Magistrale\\Secondo Anno\\Primo Semestre\\Ing. SW\\Progetto\\MusiChainWebApp\\musichain\\contracts\\MusiChain.sol",
  "compiler": {
    "name": "solc",
    "version": "0.8.17+commit.8df45f5f.Emscripten.clang"
  },
  "schemaVersion": "3.4.10",
  "updatedAt": "2022-11-30T16:20:25.237Z",
  "networkType": "ethereum",
  "devdoc": {
    "kind": "dev",
    "methods": {},
    "version": 1
  },
  "userdoc": {
    "kind": "user",
    "methods": {},
    "version": 1
  }
}