{
  "contractName": "MusiChain",
  "abi": [
    {
      "inputs": [],
      "stateMutability": "nonpayable",
      "type": "constructor"
    },
    {
      "anonymous": false,
      "inputs": [
        {
          "indexed": false,
          "internalType": "address",
          "name": "user",
          "type": "address"
        },
        {
          "indexed": true,
          "internalType": "uint256",
          "name": "idArtist",
          "type": "uint256"
        },
        {
          "indexed": false,
          "internalType": "string",
          "name": "artistName",
          "type": "string"
        },
        {
          "indexed": false,
          "internalType": "uint256",
          "name": "timeOfInsertion",
          "type": "uint256"
        }
      ],
      "name": "artistAdded",
      "type": "event"
    },
    {
      "anonymous": false,
      "inputs": [
        {
          "indexed": true,
          "internalType": "address",
          "name": "user",
          "type": "address"
        },
        {
          "indexed": false,
          "internalType": "string",
          "name": "artistName",
          "type": "string"
        },
        {
          "indexed": false,
          "internalType": "string",
          "name": "songName",
          "type": "string"
        },
        {
          "indexed": false,
          "internalType": "uint256",
          "name": "timeOfPurchase",
          "type": "uint256"
        }
      ],
      "name": "purchased",
      "type": "event"
    },
    {
      "anonymous": false,
      "inputs": [
        {
          "indexed": true,
          "internalType": "address",
          "name": "user",
          "type": "address"
        },
        {
          "indexed": false,
          "internalType": "string",
          "name": "artistName",
          "type": "string"
        },
        {
          "indexed": false,
          "internalType": "string",
          "name": "songName",
          "type": "string"
        },
        {
          "indexed": false,
          "internalType": "uint256",
          "name": "timeOfPurchase",
          "type": "uint256"
        },
        {
          "indexed": false,
          "internalType": "uint256",
          "name": "expirationTime",
          "type": "uint256"
        }
      ],
      "name": "rented",
      "type": "event"
    },
    {
      "anonymous": false,
      "inputs": [
        {
          "indexed": false,
          "internalType": "address",
          "name": "user",
          "type": "address"
        },
        {
          "indexed": true,
          "internalType": "uint256",
          "name": "idArtist",
          "type": "uint256"
        },
        {
          "indexed": false,
          "internalType": "string",
          "name": "songName",
          "type": "string"
        },
        {
          "indexed": false,
          "internalType": "string",
          "name": "artistName",
          "type": "string"
        },
        {
          "indexed": false,
          "internalType": "uint256",
          "name": "timeOfInsertion",
          "type": "uint256"
        }
      ],
      "name": "songAdded",
      "type": "event"
    },
    {
      "inputs": [
        {
          "internalType": "address",
          "name": "",
          "type": "address"
        }
      ],
      "name": "artists",
      "outputs": [
        {
          "internalType": "string",
          "name": "",
          "type": "string"
        }
      ],
      "stateMutability": "view",
      "type": "function",
      "constant": true
    },
    {
      "inputs": [
        {
          "internalType": "string",
          "name": "",
          "type": "string"
        }
      ],
      "name": "artistsCheck",
      "outputs": [
        {
          "internalType": "uint256",
          "name": "",
          "type": "uint256"
        }
      ],
      "stateMutability": "view",
      "type": "function",
      "constant": true
    },
    {
      "inputs": [],
      "name": "owner",
      "outputs": [
        {
          "internalType": "address payable",
          "name": "",
          "type": "address"
        }
      ],
      "stateMutability": "view",
      "type": "function",
      "constant": true
    },
    {
      "inputs": [
        {
          "internalType": "string",
          "name": "",
          "type": "string"
        },
        {
          "internalType": "string",
          "name": "",
          "type": "string"
        }
      ],
      "name": "songs",
      "outputs": [
        {
          "internalType": "address payable",
          "name": "songOwner",
          "type": "address"
        },
        {
          "internalType": "string",
          "name": "genre",
          "type": "string"
        },
        {
          "internalType": "string",
          "name": "album",
          "type": "string"
        },
        {
          "internalType": "uint256",
          "name": "year",
          "type": "uint256"
        },
        {
          "internalType": "uint256",
          "name": "length",
          "type": "uint256"
        },
        {
          "internalType": "uint256",
          "name": "purchasingCost",
          "type": "uint256"
        },
        {
          "internalType": "uint256",
          "name": "rent_oneday",
          "type": "uint256"
        },
        {
          "internalType": "uint256",
          "name": "rent_threedays",
          "type": "uint256"
        },
        {
          "internalType": "uint256",
          "name": "rent_oneweek",
          "type": "uint256"
        },
        {
          "internalType": "uint256",
          "name": "rent_onemonth",
          "type": "uint256"
        },
        {
          "internalType": "uint256",
          "name": "rent_oneyear",
          "type": "uint256"
        }
      ],
      "stateMutability": "view",
      "type": "function",
      "constant": true
    },
    {
      "inputs": [
        {
          "internalType": "string",
          "name": "artistName",
          "type": "string"
        }
      ],
      "name": "addArtist",
      "outputs": [],
      "stateMutability": "nonpayable",
      "type": "function"
    },
    {
      "inputs": [
        {
          "internalType": "string",
          "name": "songName",
          "type": "string"
        },
        {
          "internalType": "string",
          "name": "genre",
          "type": "string"
        },
        {
          "internalType": "string",
          "name": "album",
          "type": "string"
        },
        {
          "internalType": "uint256",
          "name": "year",
          "type": "uint256"
        },
        {
          "internalType": "uint256",
          "name": "length",
          "type": "uint256"
        }
      ],
      "name": "addSong",
      "outputs": [],
      "stateMutability": "nonpayable",
      "type": "function"
    },
    {
      "inputs": [
        {
          "internalType": "string",
          "name": "artistName",
          "type": "string"
        },
        {
          "internalType": "string",
          "name": "songName",
          "type": "string"
        },
        {
          "internalType": "uint256",
          "name": "amountArtist",
          "type": "uint256"
        },
        {
          "internalType": "uint256",
          "name": "amountMusiChain",
          "type": "uint256"
        },
        {
          "internalType": "uint256",
          "name": "option",
          "type": "uint256"
        }
      ],
      "name": "buySong",
      "outputs": [],
      "stateMutability": "payable",
      "type": "function",
      "payable": true
    }
  ],
  "bytecode": "0x608060405234801561001057600080fd5b50336000806101000a81548173ffffffffffffffffffffffffffffffffffffffff021916908373ffffffffffffffffffffffffffffffffffffffff16021790555060016004819055506123f9806100686000396000f3fe6080604052600436106100705760003560e01c806344bd01191161004e57806344bd0119146101185780638da5cb5b1461015f578063c981c1c51461018a578063de8d3073146101b357610070565b8063069dab8f14610075578063224eb928146100b25780633f75dc61146100ef575b600080fd5b34801561008157600080fd5b5061009c60048036038101906100979190611431565b6101cf565b6040516100a991906114ee565b60405180910390f35b3480156100be57600080fd5b506100d960048036038101906100d49190611645565b61026f565b6040516100e691906116a7565b60405180910390f35b3480156100fb57600080fd5b50610116600480360381019061011191906116ee565b61029d565b005b34801561012457600080fd5b5061013f600480360381019061013a91906117bd565b610799565b6040516101569b9a99989796959493929190611856565b60405180910390f35b34801561016b57600080fd5b5061017461095c565b604051610181919061190f565b60405180910390f35b34801561019657600080fd5b506101b160048036038101906101ac9190611645565b610980565b005b6101cd60048036038101906101c8919061192a565b610bc8565b005b600260205280600052604060002060009150905080546101ee90611a0c565b80601f016020809104026020016040519081016040528092919081815260200182805461021a90611a0c565b80156102675780601f1061023c57610100808354040283529160200191610267565b820191906000526020600020905b81548152906001019060200180831161024a57829003601f168201915b505050505081565b6003818051602081018201805184825260208301602085012081835280955050505050506000915090505481565b3373ffffffffffffffffffffffffffffffffffffffff1660008054906101000a900473ffffffffffffffffffffffffffffffffffffffff1673ffffffffffffffffffffffffffffffffffffffff160361032b576040517f08c379a000000000000000000000000000000000000000000000000000000000815260040161032290611aaf565b60405180910390fd5b6000600260003373ffffffffffffffffffffffffffffffffffffffff1673ffffffffffffffffffffffffffffffffffffffff168152602001908152602001600020805461037790611a0c565b9050116103b9576040517f08c379a00000000000000000000000000000000000000000000000000000000081526004016103b090611b1b565b60405180910390fd5b60006001600260003373ffffffffffffffffffffffffffffffffffffffff1673ffffffffffffffffffffffffffffffffffffffff1681526020019081526020016000206040516104099190611bde565b9081526020016040518091039020866040516104259190611c26565b90815260200160405180910390206004015414610477576040517f08c379a000000000000000000000000000000000000000000000000000000000815260040161046e90611c89565b60405180910390fd5b600066071afd498d00009050600066038d7ea4c68000905060006608e1bc9bf0400090506000661550f7dca700009050600066470de4df820000905060006702c68af0bb14000090506040518061016001604052803373ffffffffffffffffffffffffffffffffffffffff1681526020018b81526020018a8152602001898152602001888152602001878152602001868152602001858152602001848152602001838152602001828152506001600260003373ffffffffffffffffffffffffffffffffffffffff1673ffffffffffffffffffffffffffffffffffffffff1681526020019081526020016000206040516105709190611bde565b90815260200160405180910390208c60405161058c9190611c26565b908152602001604051809103902060008201518160000160006101000a81548173ffffffffffffffffffffffffffffffffffffffff021916908373ffffffffffffffffffffffffffffffffffffffff16021790555060208201518160010190816105f69190611e40565b50604082015181600201908161060c9190611e40565b50606082015181600301556080820151816004015560a0820151816005015560c0820151816006015560e082015181600701556101008201518160080155610120820151816009015561014082015181600a01559050506000600260003373ffffffffffffffffffffffffffffffffffffffff1673ffffffffffffffffffffffffffffffffffffffff16815260200190815260200160002080546106af90611a0c565b80601f01602080910402602001604051908101604052809291908181526020018280546106db90611a0c565b80156107285780601f106106fd57610100808354040283529160200191610728565b820191906000526020600020905b81548152906001019060200180831161070b57829003601f168201915b5050505050905060038160405161073f9190611c26565b9081526020016040518091039020547fdac4a438150ee6ff6d73fea55d88fde3618c09191cecd4345949df33c4b725e1338e84426040516107839493929190611f21565b60405180910390a2505050505050505050505050565b60018280516020810182018051848252602083016020850120818352809550505050505081805160208101820180518482526020830160208501208183528095505050505050600091509150508060000160009054906101000a900473ffffffffffffffffffffffffffffffffffffffff169080600101805461081b90611a0c565b80601f016020809104026020016040519081016040528092919081815260200182805461084790611a0c565b80156108945780601f1061086957610100808354040283529160200191610894565b820191906000526020600020905b81548152906001019060200180831161087757829003601f168201915b5050505050908060020180546108a990611a0c565b80601f01602080910402602001604051908101604052809291908181526020018280546108d590611a0c565b80156109225780601f106108f757610100808354040283529160200191610922565b820191906000526020600020905b81548152906001019060200180831161090557829003601f168201915b50505050509080600301549080600401549080600501549080600601549080600701549080600801549080600901549080600a015490508b565b60008054906101000a900473ffffffffffffffffffffffffffffffffffffffff1681565b3373ffffffffffffffffffffffffffffffffffffffff1660008054906101000a900473ffffffffffffffffffffffffffffffffffffffff1673ffffffffffffffffffffffffffffffffffffffff1603610a0e576040517f08c379a0000000000000000000000000000000000000000000000000000000008152600401610a0590611aaf565b60405180910390fd5b6000600382604051610a209190611c26565b90815260200160405180910390205414610a6f576040517f08c379a0000000000000000000000000000000000000000000000000000000008152600401610a6690611fc0565b60405180910390fd5b6000600260003373ffffffffffffffffffffffffffffffffffffffff1673ffffffffffffffffffffffffffffffffffffffff1681526020019081526020016000208054610abb90611a0c565b905014610afd576040517f08c379a0000000000000000000000000000000000000000000000000000000008152600401610af49061202c565b60405180910390fd5b80600260003373ffffffffffffffffffffffffffffffffffffffff1673ffffffffffffffffffffffffffffffffffffffff1681526020019081526020016000209081610b499190611e40565b50600454600382604051610b5d9190611c26565b90815260200160405180910390208190555060046000815480929190610b829061207b565b91905055506004547f0327b02de13ff68e3ba6d699b67cc673a27b5eecdeae472dbc20051ab1169934338342604051610bbd939291906120c3565b60405180910390a250565b8484826000808203610c1957600184604051610be49190611c26565b908152602001604051809103902083604051610c009190611c26565b9081526020016040518091039020600501549050610da4565b60018203610c6657600184604051610c319190611c26565b908152602001604051809103902083604051610c4d9190611c26565b9081526020016040518091039020600601549050610da3565b60028203610cb357600184604051610c7e9190611c26565b908152602001604051809103902083604051610c9a9190611c26565b9081526020016040518091039020600701549050610da2565b60038203610d0057600184604051610ccb9190611c26565b908152602001604051809103902083604051610ce79190611c26565b9081526020016040518091039020600801549050610da1565b60048203610d4d57600184604051610d189190611c26565b908152602001604051809103902083604051610d349190611c26565b9081526020016040518091039020600901549050610da0565b60058203610d9a57600184604051610d659190611c26565b908152602001604051809103902083604051610d819190611c26565b9081526020016040518091039020600a01549050610d9f565b600090505b5b5b5b5b5b803414610de6576040517f08c379a0000000000000000000000000000000000000000000000000000000008152600401610ddd9061214d565b60405180910390fd5b3373ffffffffffffffffffffffffffffffffffffffff1660008054906101000a900473ffffffffffffffffffffffffffffffffffffffff1673ffffffffffffffffffffffffffffffffffffffff1603610e74576040517f08c379a0000000000000000000000000000000000000000000000000000000008152600401610e6b90611aaf565b60405180910390fd5b60008510158015610e86575060058511155b610ec5576040517f08c379a0000000000000000000000000000000000000000000000000000000008152600401610ebc906121b9565b60405180910390fd5b3373ffffffffffffffffffffffffffffffffffffffff1660018a604051610eec9190611c26565b908152602001604051809103902089604051610f089190611c26565b908152602001604051809103902060000160009054906101000a900473ffffffffffffffffffffffffffffffffffffffff1673ffffffffffffffffffffffffffffffffffffffff1603610f90576040517f08c379a0000000000000000000000000000000000000000000000000000000008152600401610f8790612225565b60405180910390fd5b600060018a604051610fa29190611c26565b908152602001604051809103902089604051610fbe9190611c26565b908152602001604051809103902060000160009054906101000a900473ffffffffffffffffffffffffffffffffffffffff1673ffffffffffffffffffffffffffffffffffffffff168860405161101390612276565b60006040518083038185875af1925050503d8060008114611050576040519150601f19603f3d011682016040523d82523d6000602084013e611055565b606091505b5050905060008060009054906101000a900473ffffffffffffffffffffffffffffffffffffffff1673ffffffffffffffffffffffffffffffffffffffff16886040516110a090612276565b60006040518083038185875af1925050503d80600081146110dd576040519150601f19603f3d011682016040523d82523d6000602084013e6110e2565b606091505b505090508180156110f05750805b61112f576040517f08c379a0000000000000000000000000000000000000000000000000000000008152600401611126906122d7565b60405180910390fd5b6000870361118e573373ffffffffffffffffffffffffffffffffffffffff167f67854bc914bc0e601d38716f4fc3a0abb9b326b1e55ca36570738aee9c082b318c8c42604051611181939291906122f7565b60405180910390a26113b2565b600187036111fd573373ffffffffffffffffffffffffffffffffffffffff167f7cbd7ceee975cdea635991dea816e4dc47f7b4f5e549ecda96c9b6059888dae48c8c4262015180426111e0919061233c565b6040516111f09493929190612370565b60405180910390a26113b1565b6002870361126c573373ffffffffffffffffffffffffffffffffffffffff167f7cbd7ceee975cdea635991dea816e4dc47f7b4f5e549ecda96c9b6059888dae48c8c426203f4804261124f919061233c565b60405161125f9493929190612370565b60405180910390a26113b0565b600387036112db573373ffffffffffffffffffffffffffffffffffffffff167f7cbd7ceee975cdea635991dea816e4dc47f7b4f5e549ecda96c9b6059888dae48c8c4262093a80426112be919061233c565b6040516112ce9493929190612370565b60405180910390a26113af565b6004870361134a573373ffffffffffffffffffffffffffffffffffffffff167f7cbd7ceee975cdea635991dea816e4dc47f7b4f5e549ecda96c9b6059888dae48c8c426228de804261132d919061233c565b60405161133d9493929190612370565b60405180910390a26113ae565b3373ffffffffffffffffffffffffffffffffffffffff167f7cbd7ceee975cdea635991dea816e4dc47f7b4f5e549ecda96c9b6059888dae48c8c426301e1338042611395919061233c565b6040516113a59493929190612370565b60405180910390a25b5b5b5b5b5050505050505050505050565b6000604051905090565b600080fd5b600080fd5b600073ffffffffffffffffffffffffffffffffffffffff82169050919050565b60006113fe826113d3565b9050919050565b61140e816113f3565b811461141957600080fd5b50565b60008135905061142b81611405565b92915050565b600060208284031215611447576114466113c9565b5b60006114558482850161141c565b91505092915050565b600081519050919050565b600082825260208201905092915050565b60005b8381101561149857808201518184015260208101905061147d565b60008484015250505050565b6000601f19601f8301169050919050565b60006114c08261145e565b6114ca8185611469565b93506114da81856020860161147a565b6114e3816114a4565b840191505092915050565b6000602082019050818103600083015261150881846114b5565b905092915050565b600080fd5b600080fd5b7f4e487b7100000000000000000000000000000000000000000000000000000000600052604160045260246000fd5b611552826114a4565b810181811067ffffffffffffffff821117156115715761157061151a565b5b80604052505050565b60006115846113bf565b90506115908282611549565b919050565b600067ffffffffffffffff8211156115b0576115af61151a565b5b6115b9826114a4565b9050602081019050919050565b82818337600083830152505050565b60006115e86115e384611595565b61157a565b90508281526020810184848401111561160457611603611515565b5b61160f8482856115c6565b509392505050565b600082601f83011261162c5761162b611510565b5b813561163c8482602086016115d5565b91505092915050565b60006020828403121561165b5761165a6113c9565b5b600082013567ffffffffffffffff811115611679576116786113ce565b5b61168584828501611617565b91505092915050565b6000819050919050565b6116a18161168e565b82525050565b60006020820190506116bc6000830184611698565b92915050565b6116cb8161168e565b81146116d657600080fd5b50565b6000813590506116e8816116c2565b92915050565b600080600080600060a0868803121561170a576117096113c9565b5b600086013567ffffffffffffffff811115611728576117276113ce565b5b61173488828901611617565b955050602086013567ffffffffffffffff811115611755576117546113ce565b5b61176188828901611617565b945050604086013567ffffffffffffffff811115611782576117816113ce565b5b61178e88828901611617565b935050606061179f888289016116d9565b92505060806117b0888289016116d9565b9150509295509295909350565b600080604083850312156117d4576117d36113c9565b5b600083013567ffffffffffffffff8111156117f2576117f16113ce565b5b6117fe85828601611617565b925050602083013567ffffffffffffffff81111561181f5761181e6113ce565b5b61182b85828601611617565b9150509250929050565b6000611840826113d3565b9050919050565b61185081611835565b82525050565b60006101608201905061186c600083018e611847565b818103602083015261187e818d6114b5565b90508181036040830152611892818c6114b5565b90506118a1606083018b611698565b6118ae608083018a611698565b6118bb60a0830189611698565b6118c860c0830188611698565b6118d560e0830187611698565b6118e3610100830186611698565b6118f1610120830185611698565b6118ff610140830184611698565b9c9b505050505050505050505050565b60006020820190506119246000830184611847565b92915050565b600080600080600060a08688031215611946576119456113c9565b5b600086013567ffffffffffffffff811115611964576119636113ce565b5b61197088828901611617565b955050602086013567ffffffffffffffff811115611991576119906113ce565b5b61199d88828901611617565b94505060406119ae888289016116d9565b93505060606119bf888289016116d9565b92505060806119d0888289016116d9565b9150509295509295909350565b7f4e487b7100000000000000000000000000000000000000000000000000000000600052602260045260246000fd5b60006002820490506001821680611a2457607f821691505b602082108103611a3757611a366119dd565b5b50919050565b7f4d757369436861696e204f776e65722063616e6e6f7420706572666f6d65207460008201527f6869730000000000000000000000000000000000000000000000000000000000602082015250565b6000611a99602383611469565b9150611aa482611a3d565b604082019050919050565b60006020820190508181036000830152611ac881611a8c565b9050919050565b7f596f7520617265206e6f7420616e206172746973747300000000000000000000600082015250565b6000611b05601683611469565b9150611b1082611acf565b602082019050919050565b60006020820190508181036000830152611b3481611af8565b9050919050565b600081905092915050565b60008190508160005260206000209050919050565b60008154611b6881611a0c565b611b728186611b3b565b94506001821660008114611b8d5760018114611ba257611bd5565b60ff1983168652811515820286019350611bd5565b611bab85611b46565b60005b83811015611bcd57815481890152600182019150602081019050611bae565b838801955050505b50505092915050565b6000611bea8284611b5b565b915081905092915050565b6000611c008261145e565b611c0a8185611b3b565b9350611c1a81856020860161147a565b80840191505092915050565b6000611c328284611bf5565b915081905092915050565b7f416c72656164792070726573656e740000000000000000000000000000000000600082015250565b6000611c73600f83611469565b9150611c7e82611c3d565b602082019050919050565b60006020820190508181036000830152611ca281611c66565b9050919050565b60006020601f8301049050919050565b600082821b905092915050565b600060088302611cf67fffffffffffffffffffffffffffffffffffffffffffffffffffffffffffffffff82611cb9565b611d008683611cb9565b95508019841693508086168417925050509392505050565b6000819050919050565b6000611d3d611d38611d338461168e565b611d18565b61168e565b9050919050565b6000819050919050565b611d5783611d22565b611d6b611d6382611d44565b848454611cc6565b825550505050565b600090565b611d80611d73565b611d8b818484611d4e565b505050565b5b81811015611daf57611da4600082611d78565b600181019050611d91565b5050565b601f821115611df457611dc581611b46565b611dce84611ca9565b81016020851015611ddd578190505b611df1611de985611ca9565b830182611d90565b50505b505050565b600082821c905092915050565b6000611e1760001984600802611df9565b1980831691505092915050565b6000611e308383611e06565b9150826002028217905092915050565b611e498261145e565b67ffffffffffffffff811115611e6257611e6161151a565b5b611e6c8254611a0c565b611e77828285611db3565b600060209050601f831160018114611eaa5760008415611e98578287015190505b611ea28582611e24565b865550611f0a565b601f198416611eb886611b46565b60005b82811015611ee057848901518255600182019150602085019450602081019050611ebb565b86831015611efd5784890151611ef9601f891682611e06565b8355505b6001600288020188555050505b505050505050565b611f1b816113f3565b82525050565b6000608082019050611f366000830187611f12565b8181036020830152611f4881866114b5565b90508181036040830152611f5c81856114b5565b9050611f6b6060830184611698565b95945050505050565b7f4172746973747320616c72656164792065786973747300000000000000000000600082015250565b6000611faa601683611469565b9150611fb582611f74565b602082019050919050565b60006020820190508181036000830152611fd981611f9d565b9050919050565b7f596f752061726520616c726561647920616e2061727469737400000000000000600082015250565b6000612016601983611469565b915061202182611fe0565b602082019050919050565b6000602082019050818103600083015261204581612009565b9050919050565b7f4e487b7100000000000000000000000000000000000000000000000000000000600052601160045260246000fd5b60006120868261168e565b91507fffffffffffffffffffffffffffffffffffffffffffffffffffffffffffffffff82036120b8576120b761204c565b5b600182019050919050565b60006060820190506120d86000830186611f12565b81810360208301526120ea81856114b5565b90506120f96040830184611698565b949350505050565b7f49742773206e6f742074686520726967687420616d6f756e7400000000000000600082015250565b6000612137601983611469565b915061214282612101565b602082019050919050565b600060208201905081810360008301526121668161212a565b9050919050565b7f4e6f7420746865207269676874206f7074696f6e000000000000000000000000600082015250565b60006121a3601483611469565b91506121ae8261216d565b602082019050919050565b600060208201905081810360008301526121d281612196565b9050919050565b7f4172746973742063616e6e6f742062757920697473206d757369630000000000600082015250565b600061220f601b83611469565b915061221a826121d9565b602082019050919050565b6000602082019050818103600083015261223e81612202565b9050919050565b600081905092915050565b50565b6000612260600083612245565b915061226b82612250565b600082019050919050565b600061228182612253565b9150819050919050565b7f4661696c20746f2073656e642045746865720000000000000000000000000000600082015250565b60006122c1601283611469565b91506122cc8261228b565b602082019050919050565b600060208201905081810360008301526122f0816122b4565b9050919050565b6000606082019050818103600083015261231181866114b5565b9050818103602083015261232581856114b5565b90506123346040830184611698565b949350505050565b60006123478261168e565b91506123528361168e565b925082820190508082111561236a5761236961204c565b5b92915050565b6000608082019050818103600083015261238a81876114b5565b9050818103602083015261239e81866114b5565b90506123ad6040830185611698565b6123ba6060830184611698565b9594505050505056fea26469706673582212203a6ccd03d610925592e7bcfb9da971feba76793ebf281f040fa6ab94d92a0ece64736f6c63430008110033",
  "immutableReferences": {},
  "source": "//SPDX-License-Identifier: MIT\r\npragma solidity ^0.8.0;\r\n\r\ncontract MusiChain {\r\n    address payable public owner;\r\n    mapping(string => mapping(string => Song)) public songs; // una canzone  identificata dalla coppia (NomeArtista, NomeCanzone)\r\n    mapping(address => string) public artists; //Per verificare chi richiama la funzione addArtist non abbia gi agggiunto un artista, questo perch un account pu essere associato a solo un artista\r\n    mapping(string => uint) public artistsCheck; //per controllare che il nome dell'artista non sia gi stato usato\r\n\r\n    struct Song{\r\n        address payable songOwner; //l'indirizzo dell'artista\r\n        string genre;\r\n        string album;\r\n        uint year;\r\n        uint length;\r\n        uint purchasingCost;\r\n        uint rent_oneday;\r\n        uint rent_threedays;\r\n        uint rent_oneweek;\r\n        uint rent_onemonth;\r\n        uint rent_oneyear;\r\n    }\r\n    \r\n    uint private idArtist; // id assegnato progressivamente ad ogni artista inserito in MusiChain\r\n\r\n\r\n    constructor(){\r\n        owner = payable(msg.sender);\r\n        idArtist = 1;\r\n    }\r\n\r\n    event purchased(address indexed user, string artistName, string songName, uint timeOfPurchase); //evento che verr richiamato ad ogni acquisto di una canzone. Avremo quindi la lista di tutti gli acquisti\r\n    event rented(address indexed user, string artistName, string songName, uint timeOfPurchase, uint expirationTime);\r\n    event artistAdded(address user, uint indexed idArtist, string artistName, uint timeOfInsertion); //evento che verr richiamato all'aggiunta di un nuovo artista in MusiChain\r\n    event songAdded(address user, uint indexed idArtist ,string songName, string artistName, uint timeOfInsertion); //evento che verr richiamato all'aggiunta di una nuova canzone\r\n\r\n    modifier costs(string memory artistName, string memory songName, uint option){ // modificatore per il controllo della quantit di ether per procedere all'acquisto della canzone\r\n        uint amount;\r\n        if(option == 0){\r\n            amount = songs[artistName][songName].purchasingCost;\r\n        }else if(option == 1){\r\n            amount = songs[artistName][songName].rent_oneday;\r\n        }else if(option == 2){\r\n            amount = songs[artistName][songName].rent_threedays;\r\n        }else if(option == 3){\r\n            amount = songs[artistName][songName].rent_oneweek;\r\n        }else if(option == 4){\r\n            amount = songs[artistName][songName].rent_onemonth;\r\n        }else if(option == 5){\r\n            amount = songs[artistName][songName].rent_oneyear;\r\n        }else{\r\n            amount = 0;\r\n        }\r\n        \r\n        require(msg.value == amount, \"It's not the right amount\");\r\n        _;\r\n    }\r\n\r\n    modifier notOwner{ // modificatore per controllare che l'account proprietario di MusiChain non esegua operazioni non consentite come l'aggiunta di un artista o di una canzone\r\n        require(owner != msg.sender, \"MusiChain Owner cannot perfome this\");\r\n        _;\r\n    }\r\n\r\n    function addArtist(string memory artistName) external notOwner{\r\n        require(artistsCheck[artistName] == 0,\"Artists already exists\"); //controllo che l'artista non sia gi stato inserito precedentemente\r\n        require(bytes(artists[msg.sender]).length == 0 ,\"You are already an artist\"); // controllo che l'account che usa questa funzione non sia gi un artista\r\n        artists[msg.sender] = artistName;\r\n        artistsCheck[artistName] = idArtist;\r\n        idArtist++;\r\n        emit artistAdded(msg.sender, idArtist, artistName ,block.timestamp);\r\n    }\r\n    \r\n    function addSong(string memory songName, string memory genre, string memory album, uint year, uint length) external notOwner{\r\n        require(bytes(artists[msg.sender]).length > 0 ,\"You are not an artists\"); // controllo che chi utilizzi questa funzione sia un artista\r\n        require((songs[artists[msg.sender]][songName].length == 0),\"Already present\"); // controllo che la canzone non sia gi inserita\r\n        uint purchasingCost = 2000000000000000 wei; // 2,3 euro\r\n        uint rent_oneday = 1000000000000000 wei; // 1,15 euro\r\n        uint rent_threedays = 2500000000000000 wei; //2,87 euro\r\n        uint rent_oneweek = 6000000000000000 wei; //6,89 euro\r\n        uint rent_onemonth = 20000000000000000 wei; //22,98 euro\r\n        uint rent_oneyear = 200000000000000000 wei; //229,75 euro\r\n        songs[artists[msg.sender]][songName] = Song(payable(msg.sender), genre, album, year, length, purchasingCost, rent_oneday, rent_threedays,rent_oneweek,rent_onemonth,rent_oneyear); //inserisco automaticamente il nome dell'artista, in quanto solo un artista  associato ad un determinato account\r\n        string memory artistName = artists[msg.sender];\r\n        emit songAdded(msg.sender, artistsCheck[artistName], songName, artistName, block.timestamp);\r\n    }\r\n\r\n    function buySong(string memory artistName, string memory songName, uint amountArtist, uint amountMusiChain, uint option) external payable costs(artistName, songName, option) notOwner{ \r\n        require(option>=0 && option<=5, \"Not the right option\");\r\n        require(songs[artistName][songName].songOwner != msg.sender,\"Artist cannot buy its music\"); // controllo che l'artsta non compri la sua stessa musica\r\n        (bool sentArtist,) = songs[artistName][songName].songOwner.call{value: (amountArtist)}(\"\"); // invio degli ethers all'account dell'artista\r\n        (bool sentMusiChian,) = owner.call{value: (amountMusiChain)}(\"\"); // invio degli ethers all'acount del proprietario di MusiChain\r\n        require(sentArtist && sentMusiChian,\"Fail to send Ether\"); // controllo che le operazioni siano andate a buon fine\r\n        if(option == 0){\r\n            emit purchased(msg.sender, artistName, songName, block.timestamp);\r\n        }else if(option == 1){\r\n            emit rented(msg.sender, artistName, songName, block.timestamp, block.timestamp + 1 days);\r\n        }else if(option == 2){\r\n            emit rented(msg.sender, artistName, songName, block.timestamp, block.timestamp + (3*1 days));\r\n        }else if(option == 3){\r\n            emit rented(msg.sender, artistName, songName, block.timestamp, block.timestamp + 1 weeks);\r\n        }else if(option == 4){\r\n            emit rented(msg.sender, artistName, songName, block.timestamp, block.timestamp + (31*1 days));\r\n        }else{\r\n            emit rented(msg.sender, artistName, songName, block.timestamp, block.timestamp + (365*1 days));\r\n        }\r\n        \r\n    }\r\n\r\n}",
  "sourcePath": "C:\\Users\\sergi\\Documents\\Uni Magistrale\\Secondo Anno\\Primo Semestre\\Ing. SW\\Progetto\\MusiChainWebApp\\musichain\\contracts\\MusiChain.sol",
  "compiler": {
    "name": "solc",
    "version": "0.8.17+commit.8df45f5f.Emscripten.clang"
  },
  "schemaVersion": "3.4.10",
  "updatedAt": "2022-11-29T12:55:55.692Z",
  "networkType": "ethereum",
  "devdoc": {
    "kind": "dev",
    "methods": {},
    "version": 1
  },
  "userdoc": {
    "kind": "user",
    "methods": {},
    "version": 1
  }
}