{
  "contractName": "MusiChain",
  "abi": [
    {
      "inputs": [],
      "stateMutability": "nonpayable",
      "type": "constructor"
    },
    {
      "anonymous": false,
      "inputs": [
        {
          "indexed": false,
          "internalType": "address",
          "name": "user",
          "type": "address"
        },
        {
          "indexed": true,
          "internalType": "uint256",
          "name": "idArtist",
          "type": "uint256"
        },
        {
          "indexed": false,
          "internalType": "string",
          "name": "artistName",
          "type": "string"
        },
        {
          "indexed": false,
          "internalType": "uint256",
          "name": "timeOfInsertion",
          "type": "uint256"
        }
      ],
      "name": "artistAdded",
      "type": "event"
    },
    {
      "anonymous": false,
      "inputs": [
        {
          "indexed": true,
          "internalType": "address",
          "name": "user",
          "type": "address"
        },
        {
          "indexed": true,
          "internalType": "uint256",
          "name": "idArtist",
          "type": "uint256"
        },
        {
          "indexed": false,
          "internalType": "string",
          "name": "artistName",
          "type": "string"
        },
        {
          "indexed": false,
          "internalType": "string",
          "name": "songName",
          "type": "string"
        },
        {
          "indexed": false,
          "internalType": "uint256",
          "name": "timeOfPurchase",
          "type": "uint256"
        },
        {
          "indexed": false,
          "internalType": "uint256",
          "name": "expirationTime",
          "type": "uint256"
        }
      ],
      "name": "rented",
      "type": "event"
    },
    {
      "anonymous": false,
      "inputs": [
        {
          "indexed": false,
          "internalType": "address",
          "name": "user",
          "type": "address"
        },
        {
          "indexed": true,
          "internalType": "uint256",
          "name": "idArtist",
          "type": "uint256"
        },
        {
          "indexed": false,
          "internalType": "string",
          "name": "songName",
          "type": "string"
        },
        {
          "indexed": false,
          "internalType": "string",
          "name": "artistName",
          "type": "string"
        },
        {
          "indexed": false,
          "internalType": "uint256",
          "name": "timeOfInsertion",
          "type": "uint256"
        },
        {
          "indexed": false,
          "internalType": "uint256[]",
          "name": "pricing",
          "type": "uint256[]"
        },
        {
          "indexed": false,
          "internalType": "string",
          "name": "link_file",
          "type": "string"
        },
        {
          "indexed": false,
          "internalType": "string",
          "name": "link_cover",
          "type": "string"
        }
      ],
      "name": "songAdded",
      "type": "event"
    },
    {
      "inputs": [
        {
          "internalType": "address",
          "name": "",
          "type": "address"
        }
      ],
      "name": "artists",
      "outputs": [
        {
          "internalType": "string",
          "name": "",
          "type": "string"
        }
      ],
      "stateMutability": "view",
      "type": "function",
      "constant": true
    },
    {
      "inputs": [
        {
          "internalType": "string",
          "name": "",
          "type": "string"
        }
      ],
      "name": "artistsCheck",
      "outputs": [
        {
          "internalType": "uint256",
          "name": "",
          "type": "uint256"
        }
      ],
      "stateMutability": "view",
      "type": "function",
      "constant": true
    },
    {
      "inputs": [],
      "name": "owner",
      "outputs": [
        {
          "internalType": "address payable",
          "name": "",
          "type": "address"
        }
      ],
      "stateMutability": "view",
      "type": "function",
      "constant": true
    },
    {
      "inputs": [
        {
          "internalType": "string",
          "name": "",
          "type": "string"
        },
        {
          "internalType": "string",
          "name": "",
          "type": "string"
        }
      ],
      "name": "songs",
      "outputs": [
        {
          "internalType": "address payable",
          "name": "songOwner",
          "type": "address"
        },
        {
          "internalType": "string",
          "name": "album",
          "type": "string"
        },
        {
          "internalType": "string",
          "name": "genre",
          "type": "string"
        },
        {
          "internalType": "uint256",
          "name": "year",
          "type": "uint256"
        }
      ],
      "stateMutability": "view",
      "type": "function",
      "constant": true
    },
    {
      "inputs": [
        {
          "internalType": "string",
          "name": "artistName",
          "type": "string"
        }
      ],
      "name": "addArtist",
      "outputs": [],
      "stateMutability": "nonpayable",
      "type": "function"
    },
    {
      "inputs": [
        {
          "internalType": "string",
          "name": "songName",
          "type": "string"
        },
        {
          "internalType": "string",
          "name": "album",
          "type": "string"
        },
        {
          "internalType": "string",
          "name": "genre",
          "type": "string"
        },
        {
          "internalType": "uint256",
          "name": "year",
          "type": "uint256"
        },
        {
          "internalType": "uint256[]",
          "name": "pricing",
          "type": "uint256[]"
        },
        {
          "internalType": "string[]",
          "name": "links",
          "type": "string[]"
        }
      ],
      "name": "addSong",
      "outputs": [],
      "stateMutability": "nonpayable",
      "type": "function"
    },
    {
      "inputs": [
        {
          "internalType": "string",
          "name": "artistName",
          "type": "string"
        },
        {
          "internalType": "string",
          "name": "songName",
          "type": "string"
        },
        {
          "internalType": "uint256",
          "name": "amountArtist",
          "type": "uint256"
        },
        {
          "internalType": "uint256",
          "name": "amountMusiChain",
          "type": "uint256"
        },
        {
          "internalType": "uint256",
          "name": "option",
          "type": "uint256"
        }
      ],
      "name": "buySong",
      "outputs": [],
      "stateMutability": "payable",
      "type": "function",
      "payable": true
    }
  ],
  "bytecode": "0x608060405234801561001057600080fd5b50336000806101000a81548173ffffffffffffffffffffffffffffffffffffffff021916908373ffffffffffffffffffffffffffffffffffffffff16021790555060016004819055506125b7806100686000396000f3fe6080604052600436106100705760003560e01c80638da5cb5b1161004e5780638da5cb5b1461012f578063a5f577e71461015a578063c981c1c514610183578063de8d3073146101ac57610070565b8063069dab8f14610075578063224eb928146100b257806344bd0119146100ef575b600080fd5b34801561008157600080fd5b5061009c6004803603810190610097919061137b565b6101c8565b6040516100a99190611438565b60405180910390f35b3480156100be57600080fd5b506100d960048036038101906100d4919061158f565b610268565b6040516100e691906115f1565b60405180910390f35b3480156100fb57600080fd5b506101166004803603810190610111919061160c565b610296565b60405161012694939291906116a5565b60405180910390f35b34801561013b57600080fd5b5061014461042f565b60405161015191906116f8565b60405180910390f35b34801561016657600080fd5b50610181600480360381019061017c91906118e8565b610453565b005b34801561018f57600080fd5b506101aa60048036038101906101a5919061158f565b6108d1565b005b6101c660048036038101906101c19190611a01565b610b19565b005b600260205280600052604060002060009150905080546101e790611ae3565b80601f016020809104026020016040519081016040528092919081815260200182805461021390611ae3565b80156102605780601f1061023557610100808354040283529160200191610260565b820191906000526020600020905b81548152906001019060200180831161024357829003601f168201915b505050505081565b6003818051602081018201805184825260208301602085012081835280955050505050506000915090505481565b60018280516020810182018051848252602083016020850120818352809550505050505081805160208101820180518482526020830160208501208183528095505050505050600091509150508060000160009054906101000a900473ffffffffffffffffffffffffffffffffffffffff169080600101805461031890611ae3565b80601f016020809104026020016040519081016040528092919081815260200182805461034490611ae3565b80156103915780601f1061036657610100808354040283529160200191610391565b820191906000526020600020905b81548152906001019060200180831161037457829003601f168201915b5050505050908060020180546103a690611ae3565b80601f01602080910402602001604051908101604052809291908181526020018280546103d290611ae3565b801561041f5780601f106103f45761010080835404028352916020019161041f565b820191906000526020600020905b81548152906001019060200180831161040257829003601f168201915b5050505050908060030154905084565b60008054906101000a900473ffffffffffffffffffffffffffffffffffffffff1681565b3373ffffffffffffffffffffffffffffffffffffffff1660008054906101000a900473ffffffffffffffffffffffffffffffffffffffff1673ffffffffffffffffffffffffffffffffffffffff16036104e1576040517f08c379a00000000000000000000000000000000000000000000000000000000081526004016104d890611b86565b60405180910390fd5b6000600260003373ffffffffffffffffffffffffffffffffffffffff1673ffffffffffffffffffffffffffffffffffffffff168152602001908152602001600020805461052d90611ae3565b90501161056f576040517f08c379a000000000000000000000000000000000000000000000000000000000815260040161056690611bf2565b60405180910390fd5b60006001600260003373ffffffffffffffffffffffffffffffffffffffff1673ffffffffffffffffffffffffffffffffffffffff1681526020019081526020016000206040516105bf9190611cb5565b9081526020016040518091039020876040516105db9190611cfd565b9081526020016040518091039020600301541461062d576040517f08c379a000000000000000000000000000000000000000000000000000000000815260040161062490611d60565b60405180910390fd5b6000600260003373ffffffffffffffffffffffffffffffffffffffff1673ffffffffffffffffffffffffffffffffffffffff168152602001908152602001600020805461067990611ae3565b80601f01602080910402602001604051908101604052809291908181526020018280546106a590611ae3565b80156106f25780601f106106c7576101008083540402835291602001916106f2565b820191906000526020600020905b8154815290600101906020018083116106d557829003601f168201915b505050505090506040518060c001604052803373ffffffffffffffffffffffffffffffffffffffff1681526020018681526020018781526020018581526020018481526020018381525060018260405161074c9190611cfd565b9081526020016040518091039020886040516107689190611cfd565b908152602001604051809103902060008201518160000160006101000a81548173ffffffffffffffffffffffffffffffffffffffff021916908373ffffffffffffffffffffffffffffffffffffffff16021790555060208201518160010190816107d29190611f17565b5060408201518160020190816107e89190611f17565b5060608201518160030155608082015181600401908051906020019061080f9291906111e2565b5060a082015181600501908051906020019061082c92919061122f565b509050506003816040516108409190611cfd565b9081526020016040518091039020547fab2a3d72618bdf5165cf901d671a1d4a829575ae9ccff3ba23f89ea7d69c120533898442888860008151811061088957610888611fe9565b5b6020026020010151896001815181106108a5576108a4611fe9565b5b60200260200101516040516108c097969594939291906120e5565b60405180910390a250505050505050565b3373ffffffffffffffffffffffffffffffffffffffff1660008054906101000a900473ffffffffffffffffffffffffffffffffffffffff1673ffffffffffffffffffffffffffffffffffffffff160361095f576040517f08c379a000000000000000000000000000000000000000000000000000000000815260040161095690611b86565b60405180910390fd5b60006003826040516109719190611cfd565b908152602001604051809103902054146109c0576040517f08c379a00000000000000000000000000000000000000000000000000000000081526004016109b7906121c3565b60405180910390fd5b6000600260003373ffffffffffffffffffffffffffffffffffffffff1673ffffffffffffffffffffffffffffffffffffffff1681526020019081526020016000208054610a0c90611ae3565b905014610a4e576040517f08c379a0000000000000000000000000000000000000000000000000000000008152600401610a459061222f565b60405180910390fd5b80600260003373ffffffffffffffffffffffffffffffffffffffff1673ffffffffffffffffffffffffffffffffffffffff1681526020019081526020016000209081610a9a9190611f17565b50600454600382604051610aae9190611cfd565b9081526020016040518091039020819055506004547f0327b02de13ff68e3ba6d699b67cc673a27b5eecdeae472dbc20051ab1169934338342604051610af69392919061224f565b60405180910390a260046000815480929190610b11906122bc565b919050555050565b848482600060048211610b8757600184604051610b369190611cfd565b908152602001604051809103902083604051610b529190611cfd565b90815260200160405180910390206004018281548110610b7557610b74611fe9565b5b90600052602060002001549050610b8c565b600090505b803414610bce576040517f08c379a0000000000000000000000000000000000000000000000000000000008152600401610bc590612350565b60405180910390fd5b3373ffffffffffffffffffffffffffffffffffffffff1660008054906101000a900473ffffffffffffffffffffffffffffffffffffffff1673ffffffffffffffffffffffffffffffffffffffff1603610c5c576040517f08c379a0000000000000000000000000000000000000000000000000000000008152600401610c5390611b86565b60405180910390fd5b60008510158015610c6e575060058511155b610cad576040517f08c379a0000000000000000000000000000000000000000000000000000000008152600401610ca4906123bc565b60405180910390fd5b3373ffffffffffffffffffffffffffffffffffffffff1660018a604051610cd49190611cfd565b908152602001604051809103902089604051610cf09190611cfd565b908152602001604051809103902060000160009054906101000a900473ffffffffffffffffffffffffffffffffffffffff1673ffffffffffffffffffffffffffffffffffffffff1603610d78576040517f08c379a0000000000000000000000000000000000000000000000000000000008152600401610d6f90612428565b60405180910390fd5b600060018a604051610d8a9190611cfd565b908152602001604051809103902089604051610da69190611cfd565b908152602001604051809103902060000160009054906101000a900473ffffffffffffffffffffffffffffffffffffffff1673ffffffffffffffffffffffffffffffffffffffff1688604051610dfb90612479565b60006040518083038185875af1925050503d8060008114610e38576040519150601f19603f3d011682016040523d82523d6000602084013e610e3d565b606091505b5050905060008060009054906101000a900473ffffffffffffffffffffffffffffffffffffffff1673ffffffffffffffffffffffffffffffffffffffff1688604051610e8890612479565b60006040518083038185875af1925050503d8060008114610ec5576040519150601f19603f3d011682016040523d82523d6000602084013e610eca565b606091505b50509050818015610ed85750805b610f17576040517f08c379a0000000000000000000000000000000000000000000000000000000008152600401610f0e906124da565b60405180910390fd5b60008703610fa55760038b604051610f2f9190611cfd565b9081526020016040518091039020543373ffffffffffffffffffffffffffffffffffffffff167fec387e146bb52b33215648f715bdb4aa036a470ca15207bf60f69b926277a9cd8d8d426201518042610f8891906124fa565b604051610f98949392919061252e565b60405180910390a36111d5565b600187036110335760038b604051610fbd9190611cfd565b9081526020016040518091039020543373ffffffffffffffffffffffffffffffffffffffff167fec387e146bb52b33215648f715bdb4aa036a470ca15207bf60f69b926277a9cd8d8d426203f4804261101691906124fa565b604051611026949392919061252e565b60405180910390a36111d4565b600287036110c15760038b60405161104b9190611cfd565b9081526020016040518091039020543373ffffffffffffffffffffffffffffffffffffffff167fec387e146bb52b33215648f715bdb4aa036a470ca15207bf60f69b926277a9cd8d8d4262093a80426110a491906124fa565b6040516110b4949392919061252e565b60405180910390a36111d3565b6003870361114f5760038b6040516110d99190611cfd565b9081526020016040518091039020543373ffffffffffffffffffffffffffffffffffffffff167fec387e146bb52b33215648f715bdb4aa036a470ca15207bf60f69b926277a9cd8d8d426228de804261113291906124fa565b604051611142949392919061252e565b60405180910390a36111d2565b60038b60405161115f9190611cfd565b9081526020016040518091039020543373ffffffffffffffffffffffffffffffffffffffff167fec387e146bb52b33215648f715bdb4aa036a470ca15207bf60f69b926277a9cd8d8d426301e13380426111b991906124fa565b6040516111c9949392919061252e565b60405180910390a35b5b5b5b5050505050505050505050565b82805482825590600052602060002090810192821561121e579160200282015b8281111561121d578251825591602001919060010190611202565b5b50905061122b9190611288565b5090565b828054828255906000526020600020908101928215611277579160200282015b828111156112765782518290816112669190611f17565b509160200191906001019061124f565b5b50905061128491906112a5565b5090565b5b808211156112a1576000816000905550600101611289565b5090565b5b808211156112c557600081816112bc91906112c9565b506001016112a6565b5090565b5080546112d590611ae3565b6000825580601f106112e75750611306565b601f0160209004906000526020600020908101906113059190611288565b5b50565b6000604051905090565b600080fd5b600080fd5b600073ffffffffffffffffffffffffffffffffffffffff82169050919050565b60006113488261131d565b9050919050565b6113588161133d565b811461136357600080fd5b50565b6000813590506113758161134f565b92915050565b60006020828403121561139157611390611313565b5b600061139f84828501611366565b91505092915050565b600081519050919050565b600082825260208201905092915050565b60005b838110156113e25780820151818401526020810190506113c7565b60008484015250505050565b6000601f19601f8301169050919050565b600061140a826113a8565b61141481856113b3565b93506114248185602086016113c4565b61142d816113ee565b840191505092915050565b6000602082019050818103600083015261145281846113ff565b905092915050565b600080fd5b600080fd5b7f4e487b7100000000000000000000000000000000000000000000000000000000600052604160045260246000fd5b61149c826113ee565b810181811067ffffffffffffffff821117156114bb576114ba611464565b5b80604052505050565b60006114ce611309565b90506114da8282611493565b919050565b600067ffffffffffffffff8211156114fa576114f9611464565b5b611503826113ee565b9050602081019050919050565b82818337600083830152505050565b600061153261152d846114df565b6114c4565b90508281526020810184848401111561154e5761154d61145f565b5b611559848285611510565b509392505050565b600082601f8301126115765761157561145a565b5b813561158684826020860161151f565b91505092915050565b6000602082840312156115a5576115a4611313565b5b600082013567ffffffffffffffff8111156115c3576115c2611318565b5b6115cf84828501611561565b91505092915050565b6000819050919050565b6115eb816115d8565b82525050565b600060208201905061160660008301846115e2565b92915050565b6000806040838503121561162357611622611313565b5b600083013567ffffffffffffffff81111561164157611640611318565b5b61164d85828601611561565b925050602083013567ffffffffffffffff81111561166e5761166d611318565b5b61167a85828601611561565b9150509250929050565b600061168f8261131d565b9050919050565b61169f81611684565b82525050565b60006080820190506116ba6000830187611696565b81810360208301526116cc81866113ff565b905081810360408301526116e081856113ff565b90506116ef60608301846115e2565b95945050505050565b600060208201905061170d6000830184611696565b92915050565b61171c816115d8565b811461172757600080fd5b50565b60008135905061173981611713565b92915050565b600067ffffffffffffffff82111561175a57611759611464565b5b602082029050602081019050919050565b600080fd5b600061178361177e8461173f565b6114c4565b905080838252602082019050602084028301858111156117a6576117a561176b565b5b835b818110156117cf57806117bb888261172a565b8452602084019350506020810190506117a8565b5050509392505050565b600082601f8301126117ee576117ed61145a565b5b81356117fe848260208601611770565b91505092915050565b600067ffffffffffffffff82111561182257611821611464565b5b602082029050602081019050919050565b600061184661184184611807565b6114c4565b905080838252602082019050602084028301858111156118695761186861176b565b5b835b818110156118b057803567ffffffffffffffff81111561188e5761188d61145a565b5b80860161189b8982611561565b8552602085019450505060208101905061186b565b5050509392505050565b600082601f8301126118cf576118ce61145a565b5b81356118df848260208601611833565b91505092915050565b60008060008060008060c0878903121561190557611904611313565b5b600087013567ffffffffffffffff81111561192357611922611318565b5b61192f89828a01611561565b965050602087013567ffffffffffffffff8111156119505761194f611318565b5b61195c89828a01611561565b955050604087013567ffffffffffffffff81111561197d5761197c611318565b5b61198989828a01611561565b945050606061199a89828a0161172a565b935050608087013567ffffffffffffffff8111156119bb576119ba611318565b5b6119c789828a016117d9565b92505060a087013567ffffffffffffffff8111156119e8576119e7611318565b5b6119f489828a016118ba565b9150509295509295509295565b600080600080600060a08688031215611a1d57611a1c611313565b5b600086013567ffffffffffffffff811115611a3b57611a3a611318565b5b611a4788828901611561565b955050602086013567ffffffffffffffff811115611a6857611a67611318565b5b611a7488828901611561565b9450506040611a858882890161172a565b9350506060611a968882890161172a565b9250506080611aa78882890161172a565b9150509295509295909350565b7f4e487b7100000000000000000000000000000000000000000000000000000000600052602260045260246000fd5b60006002820490506001821680611afb57607f821691505b602082108103611b0e57611b0d611ab4565b5b50919050565b7f4d757369436861696e204f776e65722063616e6e6f7420706572666f6d65207460008201527f6869730000000000000000000000000000000000000000000000000000000000602082015250565b6000611b706023836113b3565b9150611b7b82611b14565b604082019050919050565b60006020820190508181036000830152611b9f81611b63565b9050919050565b7f596f7520617265206e6f7420616e206172746973747300000000000000000000600082015250565b6000611bdc6016836113b3565b9150611be782611ba6565b602082019050919050565b60006020820190508181036000830152611c0b81611bcf565b9050919050565b600081905092915050565b60008190508160005260206000209050919050565b60008154611c3f81611ae3565b611c498186611c12565b94506001821660008114611c645760018114611c7957611cac565b60ff1983168652811515820286019350611cac565b611c8285611c1d565b60005b83811015611ca457815481890152600182019150602081019050611c85565b838801955050505b50505092915050565b6000611cc18284611c32565b915081905092915050565b6000611cd7826113a8565b611ce18185611c12565b9350611cf18185602086016113c4565b80840191505092915050565b6000611d098284611ccc565b915081905092915050565b7f416c72656164792070726573656e740000000000000000000000000000000000600082015250565b6000611d4a600f836113b3565b9150611d5582611d14565b602082019050919050565b60006020820190508181036000830152611d7981611d3d565b9050919050565b60006020601f8301049050919050565b600082821b905092915050565b600060088302611dcd7fffffffffffffffffffffffffffffffffffffffffffffffffffffffffffffffff82611d90565b611dd78683611d90565b95508019841693508086168417925050509392505050565b6000819050919050565b6000611e14611e0f611e0a846115d8565b611def565b6115d8565b9050919050565b6000819050919050565b611e2e83611df9565b611e42611e3a82611e1b565b848454611d9d565b825550505050565b600090565b611e57611e4a565b611e62818484611e25565b505050565b5b81811015611e8657611e7b600082611e4f565b600181019050611e68565b5050565b601f821115611ecb57611e9c81611c1d565b611ea584611d80565b81016020851015611eb4578190505b611ec8611ec085611d80565b830182611e67565b50505b505050565b600082821c905092915050565b6000611eee60001984600802611ed0565b1980831691505092915050565b6000611f078383611edd565b9150826002028217905092915050565b611f20826113a8565b67ffffffffffffffff811115611f3957611f38611464565b5b611f438254611ae3565b611f4e828285611e8a565b600060209050601f831160018114611f815760008415611f6f578287015190505b611f798582611efb565b865550611fe1565b601f198416611f8f86611c1d565b60005b82811015611fb757848901518255600182019150602085019450602081019050611f92565b86831015611fd45784890151611fd0601f891682611edd565b8355505b6001600288020188555050505b505050505050565b7f4e487b7100000000000000000000000000000000000000000000000000000000600052603260045260246000fd5b6120218161133d565b82525050565b600081519050919050565b600082825260208201905092915050565b6000819050602082019050919050565b61205c816115d8565b82525050565b600061206e8383612053565b60208301905092915050565b6000602082019050919050565b600061209282612027565b61209c8185612032565b93506120a783612043565b8060005b838110156120d85781516120bf8882612062565b97506120ca8361207a565b9250506001810190506120ab565b5085935050505092915050565b600060e0820190506120fa600083018a612018565b818103602083015261210c81896113ff565b9050818103604083015261212081886113ff565b905061212f60608301876115e2565b81810360808301526121418186612087565b905081810360a083015261215581856113ff565b905081810360c083015261216981846113ff565b905098975050505050505050565b7f4172746973747320616c72656164792065786973747300000000000000000000600082015250565b60006121ad6016836113b3565b91506121b882612177565b602082019050919050565b600060208201905081810360008301526121dc816121a0565b9050919050565b7f596f752061726520616c726561647920616e2061727469737400000000000000600082015250565b60006122196019836113b3565b9150612224826121e3565b602082019050919050565b600060208201905081810360008301526122488161220c565b9050919050565b60006060820190506122646000830186612018565b818103602083015261227681856113ff565b905061228560408301846115e2565b949350505050565b7f4e487b7100000000000000000000000000000000000000000000000000000000600052601160045260246000fd5b60006122c7826115d8565b91507fffffffffffffffffffffffffffffffffffffffffffffffffffffffffffffffff82036122f9576122f861228d565b5b600182019050919050565b7f49742773206e6f742074686520726967687420616d6f756e7400000000000000600082015250565b600061233a6019836113b3565b915061234582612304565b602082019050919050565b600060208201905081810360008301526123698161232d565b9050919050565b7f4e6f7420746865207269676874206f7074696f6e000000000000000000000000600082015250565b60006123a66014836113b3565b91506123b182612370565b602082019050919050565b600060208201905081810360008301526123d581612399565b9050919050565b7f4172746973742063616e6e6f742062757920697473206d757369630000000000600082015250565b6000612412601b836113b3565b915061241d826123dc565b602082019050919050565b6000602082019050818103600083015261244181612405565b9050919050565b600081905092915050565b50565b6000612463600083612448565b915061246e82612453565b600082019050919050565b600061248482612456565b9150819050919050565b7f4661696c20746f2073656e642045746865720000000000000000000000000000600082015250565b60006124c46012836113b3565b91506124cf8261248e565b602082019050919050565b600060208201905081810360008301526124f3816124b7565b9050919050565b6000612505826115d8565b9150612510836115d8565b92508282019050808211156125285761252761228d565b5b92915050565b6000608082019050818103600083015261254881876113ff565b9050818103602083015261255c81866113ff565b905061256b60408301856115e2565b61257860608301846115e2565b9594505050505056fea2646970667358221220f1de31b36fe0f0d0dcdff6eaf1b3c3b605b49d518c2a7084d7d676e1e7bf541e64736f6c63430008110033",
  "immutableReferences": {},
  "source": "//SPDX-License-Identifier: MIT\r\npragma solidity ^0.8.0;\r\n\r\ncontract MusiChain {\r\n    address payable public owner;\r\n    mapping(string => mapping(string => Song)) public songs; // una canzone  identificata dalla coppia (NomeArtista, NomeCanzone)\r\n    mapping(address => string) public artists; //Per verificare chi richiama la funzione addArtist non abbia gi agggiunto un artista, questo perch un account pu essere associato a solo un artista\r\n    mapping(string => uint) public artistsCheck; //per controllare che il nome dell'artista non sia gi stato usato\r\n\r\n    struct Song{\r\n        address payable songOwner; //l'indirizzo dell'artista\r\n        string album;\r\n        string genre;\r\n        uint year;\r\n        uint[] pricing;\r\n        string[] links;\r\n    }\r\n    \r\n    uint private idArtist; // id assegnato progressivamente ad ogni artista inserito in MusiChain\r\n\r\n\r\n    constructor(){\r\n        owner = payable(msg.sender);\r\n        idArtist = 1;\r\n    }\r\n\r\n    event rented(address indexed user, uint indexed idArtist, string artistName, string songName, uint timeOfPurchase, uint expirationTime);\r\n    event artistAdded(address user, uint indexed idArtist, string artistName, uint timeOfInsertion); //evento che verr richiamato all'aggiunta di un nuovo artista in MusiChain\r\n    event songAdded(address user, uint indexed idArtist ,string songName, string artistName, uint timeOfInsertion, uint[] pricing, string link_file, string link_cover); //evento che verr richiamato all'aggiunta di una nuova canzone\r\n\r\n    modifier costs(string memory artistName, string memory songName, uint option){ // modificatore per il controllo della quantit di ether per procedere all'acquisto della canzone\r\n        uint amount;\r\n        if(option <=4){\r\n            amount = songs[artistName][songName].pricing[option];\r\n        }else{\r\n            amount = 0;\r\n        }\r\n        \r\n        require(msg.value == amount, \"It's not the right amount\");\r\n        _;\r\n    }\r\n\r\n    modifier notOwner{ // modificatore per controllare che l'account proprietario di MusiChain non esegua operazioni non consentite come l'aggiunta di un artista o di una canzone\r\n        require(owner != msg.sender, \"MusiChain Owner cannot perfome this\");\r\n        _;\r\n    }\r\n\r\n\r\n    function addArtist(string memory artistName) external notOwner{\r\n        require(artistsCheck[artistName] == 0,\"Artists already exists\"); //controllo che l'artista non sia gi stato inserito precedentemente\r\n        require(bytes(artists[msg.sender]).length == 0 ,\"You are already an artist\"); // controllo che l'account che usa questa funzione non sia gi un artista\r\n        artists[msg.sender] = artistName;\r\n        artistsCheck[artistName] = idArtist;\r\n        emit artistAdded(msg.sender, idArtist, artistName ,block.timestamp);\r\n        idArtist++;\r\n    }\r\n    \r\n    function addSong(string memory songName, string memory album, string memory genre, uint year, uint[] memory pricing, string[] memory links) external notOwner{\r\n        require(bytes(artists[msg.sender]).length > 0 ,\"You are not an artists\"); // controllo che chi utilizzi questa funzione sia un artista\r\n        require((songs[artists[msg.sender]][songName].year == 0),\"Already present\"); // controllo che la canzone non sia gi inserita\r\n        string memory artistName = artists[msg.sender];\r\n        songs[artistName][songName] = Song(payable(msg.sender), genre, album, year, pricing, links); //inserisco automaticamente il nome dell'artista, in quanto solo un artista  associato ad un determinato account\r\n\r\n        emit songAdded(msg.sender, artistsCheck[artistName], songName, artistName, block.timestamp, pricing, links[0], links[1]);\r\n    }\r\n\r\n    function buySong(string memory artistName, string memory songName, uint amountArtist, uint amountMusiChain, uint option) external payable costs(artistName, songName, option) notOwner{ \r\n        require(option>=0 && option<=5, \"Not the right option\");\r\n        require(songs[artistName][songName].songOwner != msg.sender,\"Artist cannot buy its music\"); // controllo che l'artsta non compri la sua stessa musica\r\n        (bool sentArtist,) = songs[artistName][songName].songOwner.call{value: (amountArtist)}(\"\"); // invio degli ethers all'account dell'artista\r\n        (bool sentMusiChian,) = owner.call{value: (amountMusiChain)}(\"\"); // invio degli ethers all'acount del proprietario di MusiChain\r\n        require(sentArtist && sentMusiChian,\"Fail to send Ether\"); // controllo che le operazioni siano andate a buon fine\r\n        if(option == 0){\r\n            emit rented(msg.sender, artistsCheck[artistName], artistName, songName, block.timestamp, block.timestamp + 1 days);\r\n        }else if(option == 1){\r\n            emit rented(msg.sender, artistsCheck[artistName], artistName, songName, block.timestamp, block.timestamp + (3*1 days));\r\n        }else if(option == 2){\r\n            emit rented(msg.sender, artistsCheck[artistName], artistName, songName, block.timestamp, block.timestamp + 1 weeks);\r\n        }else if(option == 3){\r\n            emit rented(msg.sender, artistsCheck[artistName], artistName, songName, block.timestamp, block.timestamp + (31*1 days));\r\n        }else{\r\n            emit rented(msg.sender, artistsCheck[artistName], artistName, songName, block.timestamp, block.timestamp + (365*1 days));\r\n        }\r\n        \r\n    }\r\n\r\n}",
  "sourcePath": "C:\\Users\\sergi\\Documents\\Uni Magistrale\\Secondo Anno\\Primo Semestre\\Ing. SW\\Progetto\\MusiChainWebApp\\musichain\\contracts\\MusiChain.sol",
  "compiler": {
    "name": "solc",
    "version": "0.8.17+commit.8df45f5f.Emscripten.clang"
  },
  "schemaVersion": "3.4.10",
  "updatedAt": "2022-12-05T12:13:35.483Z",
  "networkType": "ethereum",
  "devdoc": {
    "kind": "dev",
    "methods": {},
    "version": 1
  },
  "userdoc": {
    "kind": "user",
    "methods": {},
    "version": 1
  }
}