{
  "contractName": "MusiChain",
  "abi": [
    {
      "inputs": [],
      "stateMutability": "nonpayable",
      "type": "constructor"
    },
    {
      "anonymous": false,
      "inputs": [
        {
          "indexed": false,
          "internalType": "address",
          "name": "user",
          "type": "address"
        },
        {
          "indexed": true,
          "internalType": "uint256",
          "name": "idArtist",
          "type": "uint256"
        },
        {
          "indexed": false,
          "internalType": "string",
          "name": "artistName",
          "type": "string"
        },
        {
          "indexed": false,
          "internalType": "string",
          "name": "link_avatar",
          "type": "string"
        },
        {
          "indexed": false,
          "internalType": "uint256",
          "name": "timeOfInsertion",
          "type": "uint256"
        }
      ],
      "name": "artistAdded",
      "type": "event"
    },
    {
      "anonymous": false,
      "inputs": [
        {
          "indexed": true,
          "internalType": "address",
          "name": "user",
          "type": "address"
        },
        {
          "indexed": false,
          "internalType": "string",
          "name": "artistName",
          "type": "string"
        },
        {
          "indexed": false,
          "internalType": "string",
          "name": "songName",
          "type": "string"
        },
        {
          "indexed": false,
          "internalType": "uint256",
          "name": "timeOfPurchase",
          "type": "uint256"
        },
        {
          "indexed": false,
          "internalType": "uint256",
          "name": "expirationTime",
          "type": "uint256"
        },
        {
          "indexed": false,
          "internalType": "string",
          "name": "link_cover",
          "type": "string"
        }
      ],
      "name": "rented",
      "type": "event"
    },
    {
      "anonymous": false,
      "inputs": [
        {
          "indexed": true,
          "internalType": "address",
          "name": "user",
          "type": "address"
        },
        {
          "indexed": true,
          "internalType": "uint256",
          "name": "idArtist",
          "type": "uint256"
        },
        {
          "indexed": true,
          "internalType": "uint256",
          "name": "id_song",
          "type": "uint256"
        },
        {
          "indexed": false,
          "internalType": "string",
          "name": "songName",
          "type": "string"
        },
        {
          "indexed": false,
          "internalType": "string",
          "name": "artistName",
          "type": "string"
        },
        {
          "indexed": false,
          "internalType": "string",
          "name": "album",
          "type": "string"
        },
        {
          "indexed": false,
          "internalType": "string",
          "name": "genre",
          "type": "string"
        },
        {
          "indexed": false,
          "internalType": "uint256",
          "name": "year",
          "type": "uint256"
        },
        {
          "indexed": false,
          "internalType": "uint256",
          "name": "timeOfInsertion",
          "type": "uint256"
        },
        {
          "indexed": false,
          "internalType": "uint256[]",
          "name": "pricing",
          "type": "uint256[]"
        },
        {
          "indexed": false,
          "internalType": "string",
          "name": "link_file",
          "type": "string"
        },
        {
          "indexed": false,
          "internalType": "string",
          "name": "link_cover",
          "type": "string"
        }
      ],
      "name": "songAdded",
      "type": "event"
    },
    {
      "inputs": [
        {
          "internalType": "address",
          "name": "",
          "type": "address"
        }
      ],
      "name": "artists",
      "outputs": [
        {
          "internalType": "string",
          "name": "",
          "type": "string"
        }
      ],
      "stateMutability": "view",
      "type": "function",
      "constant": true
    },
    {
      "inputs": [
        {
          "internalType": "string",
          "name": "",
          "type": "string"
        }
      ],
      "name": "artistsCheck",
      "outputs": [
        {
          "internalType": "uint256",
          "name": "",
          "type": "uint256"
        }
      ],
      "stateMutability": "view",
      "type": "function",
      "constant": true
    },
    {
      "inputs": [],
      "name": "owner",
      "outputs": [
        {
          "internalType": "address payable",
          "name": "",
          "type": "address"
        }
      ],
      "stateMutability": "view",
      "type": "function",
      "constant": true
    },
    {
      "inputs": [
        {
          "internalType": "string",
          "name": "",
          "type": "string"
        },
        {
          "internalType": "string",
          "name": "",
          "type": "string"
        }
      ],
      "name": "songs",
      "outputs": [
        {
          "internalType": "address payable",
          "name": "songOwner",
          "type": "address"
        },
        {
          "internalType": "uint256",
          "name": "idSong",
          "type": "uint256"
        }
      ],
      "stateMutability": "view",
      "type": "function",
      "constant": true
    },
    {
      "inputs": [
        {
          "internalType": "address",
          "name": "",
          "type": "address"
        }
      ],
      "name": "users",
      "outputs": [
        {
          "internalType": "string",
          "name": "",
          "type": "string"
        }
      ],
      "stateMutability": "view",
      "type": "function",
      "constant": true
    },
    {
      "inputs": [
        {
          "internalType": "address",
          "name": "userAddress",
          "type": "address"
        },
        {
          "internalType": "string",
          "name": "randomKey",
          "type": "string"
        }
      ],
      "name": "addUser",
      "outputs": [],
      "stateMutability": "nonpayable",
      "type": "function"
    },
    {
      "inputs": [
        {
          "internalType": "string",
          "name": "artistName",
          "type": "string"
        },
        {
          "internalType": "string",
          "name": "link_avatar",
          "type": "string"
        }
      ],
      "name": "addArtist",
      "outputs": [],
      "stateMutability": "nonpayable",
      "type": "function"
    },
    {
      "inputs": [
        {
          "internalType": "string",
          "name": "songName",
          "type": "string"
        },
        {
          "internalType": "string",
          "name": "album",
          "type": "string"
        },
        {
          "internalType": "string",
          "name": "genre",
          "type": "string"
        },
        {
          "internalType": "uint256",
          "name": "year",
          "type": "uint256"
        },
        {
          "internalType": "uint256[]",
          "name": "pricing",
          "type": "uint256[]"
        },
        {
          "internalType": "string[]",
          "name": "links",
          "type": "string[]"
        }
      ],
      "name": "addSong",
      "outputs": [],
      "stateMutability": "nonpayable",
      "type": "function"
    },
    {
      "inputs": [
        {
          "internalType": "string",
          "name": "artistName",
          "type": "string"
        },
        {
          "internalType": "string",
          "name": "songName",
          "type": "string"
        },
        {
          "internalType": "uint256",
          "name": "amountArtist",
          "type": "uint256"
        },
        {
          "internalType": "uint256",
          "name": "amountMusiChain",
          "type": "uint256"
        },
        {
          "internalType": "uint256",
          "name": "option",
          "type": "uint256"
        },
        {
          "internalType": "string",
          "name": "link_cover",
          "type": "string"
        }
      ],
      "name": "buySong",
      "outputs": [],
      "stateMutability": "payable",
      "type": "function",
      "payable": true
    }
  ],
  "bytecode": "0x608060405234801561001057600080fd5b50336000806101000a81548173ffffffffffffffffffffffffffffffffffffffff021916908373ffffffffffffffffffffffffffffffffffffffff160217905550600160058190555060016006819055506125dd806100706000396000f3fe6080604052600436106100865760003560e01c80638da5cb5b116100595780638da5cb5b1461016c5780639e6685c714610197578063a5f577e7146101c0578063a87430ba146101e9578063b0430e8a1461022657610086565b8063069dab8f1461008b578063224eb928146100c857806344bd0119146101055780634b68d43114610143575b600080fd5b34801561009757600080fd5b506100b260048036038101906100ad91906112eb565b610242565b6040516100bf91906113a8565b60405180910390f35b3480156100d457600080fd5b506100ef60048036038101906100ea91906114ff565b6102e2565b6040516100fc9190611561565b60405180910390f35b34801561011157600080fd5b5061012c6004803603810190610127919061157c565b610310565b60405161013a929190611615565b60405180910390f35b34801561014f57600080fd5b5061016a6004803603810190610165919061163e565b61038d565b005b34801561017857600080fd5b5061018161046c565b60405161018e919061169a565b60405180910390f35b3480156101a357600080fd5b506101be60048036038101906101b9919061157c565b610490565b005b3480156101cc57600080fd5b506101e760048036038101906101e2919061188a565b6106db565b005b3480156101f557600080fd5b50610210600480360381019061020b91906112eb565b610b36565b60405161021d91906113a8565b60405180910390f35b610240600480360381019061023b91906119a3565b610bd6565b005b6002602052806000526040600020600091509050805461026190611ab3565b80601f016020809104026020016040519081016040528092919081815260200182805461028d90611ab3565b80156102da5780601f106102af576101008083540402835291602001916102da565b820191906000526020600020905b8154815290600101906020018083116102bd57829003601f168201915b505050505081565b6003818051602081018201805184825260208301602085012081835280955050505050506000915090505481565b60018280516020810182018051848252602083016020850120818352809550505050505081805160208101820180518482526020830160208501208183528095505050505050600091509150508060000160009054906101000a900473ffffffffffffffffffffffffffffffffffffffff16908060020154905082565b3373ffffffffffffffffffffffffffffffffffffffff1660008054906101000a900473ffffffffffffffffffffffffffffffffffffffff1673ffffffffffffffffffffffffffffffffffffffff160361041b576040517f08c379a000000000000000000000000000000000000000000000000000000000815260040161041290611b56565b60405180910390fd5b80600460008473ffffffffffffffffffffffffffffffffffffffff1673ffffffffffffffffffffffffffffffffffffffff16815260200190815260200160002090816104679190611d22565b505050565b60008054906101000a900473ffffffffffffffffffffffffffffffffffffffff1681565b3373ffffffffffffffffffffffffffffffffffffffff1660008054906101000a900473ffffffffffffffffffffffffffffffffffffffff1673ffffffffffffffffffffffffffffffffffffffff160361051e576040517f08c379a000000000000000000000000000000000000000000000000000000000815260040161051590611b56565b60405180910390fd5b60006003836040516105309190611e30565b9081526020016040518091039020541461057f576040517f08c379a000000000000000000000000000000000000000000000000000000000815260040161057690611e93565b60405180910390fd5b6000600260003373ffffffffffffffffffffffffffffffffffffffff1673ffffffffffffffffffffffffffffffffffffffff16815260200190815260200160002080546105cb90611ab3565b90501461060d576040517f08c379a000000000000000000000000000000000000000000000000000000000815260040161060490611eff565b60405180910390fd5b81600260003373ffffffffffffffffffffffffffffffffffffffff1673ffffffffffffffffffffffffffffffffffffffff16815260200190815260200160002090816106599190611d22565b5060055460038360405161066d9190611e30565b9081526020016040518091039020819055506005547f96148d6025c63f9808b7d027cb8e5589788cdcc95d0318b0424f0b7162072268338484426040516106b79493929190611f2e565b60405180910390a2600560008154809291906106d290611fb0565b91905055505050565b3373ffffffffffffffffffffffffffffffffffffffff1660008054906101000a900473ffffffffffffffffffffffffffffffffffffffff1673ffffffffffffffffffffffffffffffffffffffff1603610769576040517f08c379a000000000000000000000000000000000000000000000000000000000815260040161076090611b56565b60405180910390fd5b6000600260003373ffffffffffffffffffffffffffffffffffffffff1673ffffffffffffffffffffffffffffffffffffffff16815260200190815260200160002080546107b590611ab3565b9050116107f7576040517f08c379a00000000000000000000000000000000000000000000000000000000081526004016107ee90612044565b60405180910390fd5b60006001600260003373ffffffffffffffffffffffffffffffffffffffff1673ffffffffffffffffffffffffffffffffffffffff16815260200190815260200160002060405161084791906120e7565b9081526020016040518091039020876040516108639190611e30565b908152602001604051809103902060020154146108b5576040517f08c379a00000000000000000000000000000000000000000000000000000000081526004016108ac9061214a565b60405180910390fd5b6000600260003373ffffffffffffffffffffffffffffffffffffffff1673ffffffffffffffffffffffffffffffffffffffff168152602001908152602001600020805461090190611ab3565b80601f016020809104026020016040519081016040528092919081815260200182805461092d90611ab3565b801561097a5780601f1061094f5761010080835404028352916020019161097a565b820191906000526020600020905b81548152906001019060200180831161095d57829003601f168201915b5050505050905060405180606001604052803373ffffffffffffffffffffffffffffffffffffffff1681526020018481526020016006548152506001826040516109c49190611e30565b9081526020016040518091039020886040516109e09190611e30565b908152602001604051809103902060008201518160000160006101000a81548173ffffffffffffffffffffffffffffffffffffffff021916908373ffffffffffffffffffffffffffffffffffffffff1602179055506020820151816001019080519060200190610a5192919061120f565b5060408201518160020155905050600654600382604051610a729190611e30565b9081526020016040518091039020543373ffffffffffffffffffffffffffffffffffffffff167f4c2f81b35bc44c04beb1b9a357ace7a137730db4bb89fe70c3854f98a4a916608a858b8b8b428c8c600081518110610ad457610ad361216a565b5b60200260200101518d600181518110610af057610aef61216a565b5b6020026020010151604051610b0d99989796959493929190612257565b60405180910390a460066000815480929190610b2890611fb0565b919050555050505050505050565b60046020528060005260406000206000915090508054610b5590611ab3565b80601f0160208091040260200160405190810160405280929190818152602001828054610b8190611ab3565b8015610bce5780601f10610ba357610100808354040283529160200191610bce565b820191906000526020600020905b815481529060010190602001808311610bb157829003601f168201915b505050505081565b858583600060048211610c4457600184604051610bf39190611e30565b908152602001604051809103902083604051610c0f9190611e30565b90815260200160405180910390206001018281548110610c3257610c3161216a565b5b90600052602060002001549050610c49565b600090505b803414610c8b576040517f08c379a0000000000000000000000000000000000000000000000000000000008152600401610c8290612361565b60405180910390fd5b3373ffffffffffffffffffffffffffffffffffffffff1660008054906101000a900473ffffffffffffffffffffffffffffffffffffffff1673ffffffffffffffffffffffffffffffffffffffff1603610d19576040517f08c379a0000000000000000000000000000000000000000000000000000000008152600401610d1090611b56565b60405180910390fd5b60008610158015610d2b575060058611155b610d6a576040517f08c379a0000000000000000000000000000000000000000000000000000000008152600401610d61906123cd565b60405180910390fd5b3373ffffffffffffffffffffffffffffffffffffffff1660018b604051610d919190611e30565b90815260200160405180910390208a604051610dad9190611e30565b908152602001604051809103902060000160009054906101000a900473ffffffffffffffffffffffffffffffffffffffff1673ffffffffffffffffffffffffffffffffffffffff1603610e35576040517f08c379a0000000000000000000000000000000000000000000000000000000008152600401610e2c90612439565b60405180910390fd5b600060018b604051610e479190611e30565b90815260200160405180910390208a604051610e639190611e30565b908152602001604051809103902060000160009054906101000a900473ffffffffffffffffffffffffffffffffffffffff1673ffffffffffffffffffffffffffffffffffffffff1689604051610eb89061248a565b60006040518083038185875af1925050503d8060008114610ef5576040519150601f19603f3d011682016040523d82523d6000602084013e610efa565b606091505b5050905060008060009054906101000a900473ffffffffffffffffffffffffffffffffffffffff1673ffffffffffffffffffffffffffffffffffffffff1689604051610f459061248a565b60006040518083038185875af1925050503d8060008114610f82576040519150601f19603f3d011682016040523d82523d6000602084013e610f87565b606091505b50509050818015610f955750805b610fd4576040517f08c379a0000000000000000000000000000000000000000000000000000000008152600401610fcb906124eb565b60405180910390fd5b60008803611045573373ffffffffffffffffffffffffffffffffffffffff167f683c5f4d026c1c8682bf2c365add34f6b447e71fdcfb005be8c719d4f732cd188d8d426201518042611026919061250b565b8c60405161103895949392919061253f565b60405180910390a2611201565b600188036110b6573373ffffffffffffffffffffffffffffffffffffffff167f683c5f4d026c1c8682bf2c365add34f6b447e71fdcfb005be8c719d4f732cd188d8d426203f48042611097919061250b565b8c6040516110a995949392919061253f565b60405180910390a2611200565b60028803611127573373ffffffffffffffffffffffffffffffffffffffff167f683c5f4d026c1c8682bf2c365add34f6b447e71fdcfb005be8c719d4f732cd188d8d4262093a8042611108919061250b565b8c60405161111a95949392919061253f565b60405180910390a26111ff565b60038803611198573373ffffffffffffffffffffffffffffffffffffffff167f683c5f4d026c1c8682bf2c365add34f6b447e71fdcfb005be8c719d4f732cd188d8d426228de8042611179919061250b565b8c60405161118b95949392919061253f565b60405180910390a26111fe565b3373ffffffffffffffffffffffffffffffffffffffff167f683c5f4d026c1c8682bf2c365add34f6b447e71fdcfb005be8c719d4f732cd188d8d426301e13380426111e3919061250b565b8c6040516111f595949392919061253f565b60405180910390a25b5b5b5b505050505050505050505050565b82805482825590600052602060002090810192821561124b579160200282015b8281111561124a57825182559160200191906001019061122f565b5b509050611258919061125c565b5090565b5b8082111561127557600081600090555060010161125d565b5090565b6000604051905090565b600080fd5b600080fd5b600073ffffffffffffffffffffffffffffffffffffffff82169050919050565b60006112b88261128d565b9050919050565b6112c8816112ad565b81146112d357600080fd5b50565b6000813590506112e5816112bf565b92915050565b60006020828403121561130157611300611283565b5b600061130f848285016112d6565b91505092915050565b600081519050919050565b600082825260208201905092915050565b60005b83811015611352578082015181840152602081019050611337565b60008484015250505050565b6000601f19601f8301169050919050565b600061137a82611318565b6113848185611323565b9350611394818560208601611334565b61139d8161135e565b840191505092915050565b600060208201905081810360008301526113c2818461136f565b905092915050565b600080fd5b600080fd5b7f4e487b7100000000000000000000000000000000000000000000000000000000600052604160045260246000fd5b61140c8261135e565b810181811067ffffffffffffffff8211171561142b5761142a6113d4565b5b80604052505050565b600061143e611279565b905061144a8282611403565b919050565b600067ffffffffffffffff82111561146a576114696113d4565b5b6114738261135e565b9050602081019050919050565b82818337600083830152505050565b60006114a261149d8461144f565b611434565b9050828152602081018484840111156114be576114bd6113cf565b5b6114c9848285611480565b509392505050565b600082601f8301126114e6576114e56113ca565b5b81356114f684826020860161148f565b91505092915050565b60006020828403121561151557611514611283565b5b600082013567ffffffffffffffff81111561153357611532611288565b5b61153f848285016114d1565b91505092915050565b6000819050919050565b61155b81611548565b82525050565b60006020820190506115766000830184611552565b92915050565b6000806040838503121561159357611592611283565b5b600083013567ffffffffffffffff8111156115b1576115b0611288565b5b6115bd858286016114d1565b925050602083013567ffffffffffffffff8111156115de576115dd611288565b5b6115ea858286016114d1565b9150509250929050565b60006115ff8261128d565b9050919050565b61160f816115f4565b82525050565b600060408201905061162a6000830185611606565b6116376020830184611552565b9392505050565b6000806040838503121561165557611654611283565b5b6000611663858286016112d6565b925050602083013567ffffffffffffffff81111561168457611683611288565b5b611690858286016114d1565b9150509250929050565b60006020820190506116af6000830184611606565b92915050565b6116be81611548565b81146116c957600080fd5b50565b6000813590506116db816116b5565b92915050565b600067ffffffffffffffff8211156116fc576116fb6113d4565b5b602082029050602081019050919050565b600080fd5b6000611725611720846116e1565b611434565b905080838252602082019050602084028301858111156117485761174761170d565b5b835b81811015611771578061175d88826116cc565b84526020840193505060208101905061174a565b5050509392505050565b600082601f8301126117905761178f6113ca565b5b81356117a0848260208601611712565b91505092915050565b600067ffffffffffffffff8211156117c4576117c36113d4565b5b602082029050602081019050919050565b60006117e86117e3846117a9565b611434565b9050808382526020820190506020840283018581111561180b5761180a61170d565b5b835b8181101561185257803567ffffffffffffffff8111156118305761182f6113ca565b5b80860161183d89826114d1565b8552602085019450505060208101905061180d565b5050509392505050565b600082601f830112611871576118706113ca565b5b81356118818482602086016117d5565b91505092915050565b60008060008060008060c087890312156118a7576118a6611283565b5b600087013567ffffffffffffffff8111156118c5576118c4611288565b5b6118d189828a016114d1565b965050602087013567ffffffffffffffff8111156118f2576118f1611288565b5b6118fe89828a016114d1565b955050604087013567ffffffffffffffff81111561191f5761191e611288565b5b61192b89828a016114d1565b945050606061193c89828a016116cc565b935050608087013567ffffffffffffffff81111561195d5761195c611288565b5b61196989828a0161177b565b92505060a087013567ffffffffffffffff81111561198a57611989611288565b5b61199689828a0161185c565b9150509295509295509295565b60008060008060008060c087890312156119c0576119bf611283565b5b600087013567ffffffffffffffff8111156119de576119dd611288565b5b6119ea89828a016114d1565b965050602087013567ffffffffffffffff811115611a0b57611a0a611288565b5b611a1789828a016114d1565b9550506040611a2889828a016116cc565b9450506060611a3989828a016116cc565b9350506080611a4a89828a016116cc565b92505060a087013567ffffffffffffffff811115611a6b57611a6a611288565b5b611a7789828a016114d1565b9150509295509295509295565b7f4e487b7100000000000000000000000000000000000000000000000000000000600052602260045260246000fd5b60006002820490506001821680611acb57607f821691505b602082108103611ade57611add611a84565b5b50919050565b7f4d757369436861696e204f776e65722063616e6e6f7420706572666f6d65207460008201527f6869730000000000000000000000000000000000000000000000000000000000602082015250565b6000611b40602383611323565b9150611b4b82611ae4565b604082019050919050565b60006020820190508181036000830152611b6f81611b33565b9050919050565b60008190508160005260206000209050919050565b60006020601f8301049050919050565b600082821b905092915050565b600060088302611bd87fffffffffffffffffffffffffffffffffffffffffffffffffffffffffffffffff82611b9b565b611be28683611b9b565b95508019841693508086168417925050509392505050565b6000819050919050565b6000611c1f611c1a611c1584611548565b611bfa565b611548565b9050919050565b6000819050919050565b611c3983611c04565b611c4d611c4582611c26565b848454611ba8565b825550505050565b600090565b611c62611c55565b611c6d818484611c30565b505050565b5b81811015611c9157611c86600082611c5a565b600181019050611c73565b5050565b601f821115611cd657611ca781611b76565b611cb084611b8b565b81016020851015611cbf578190505b611cd3611ccb85611b8b565b830182611c72565b50505b505050565b600082821c905092915050565b6000611cf960001984600802611cdb565b1980831691505092915050565b6000611d128383611ce8565b9150826002028217905092915050565b611d2b82611318565b67ffffffffffffffff811115611d4457611d436113d4565b5b611d4e8254611ab3565b611d59828285611c95565b600060209050601f831160018114611d8c5760008415611d7a578287015190505b611d848582611d06565b865550611dec565b601f198416611d9a86611b76565b60005b82811015611dc257848901518255600182019150602085019450602081019050611d9d565b86831015611ddf5784890151611ddb601f891682611ce8565b8355505b6001600288020188555050505b505050505050565b600081905092915050565b6000611e0a82611318565b611e148185611df4565b9350611e24818560208601611334565b80840191505092915050565b6000611e3c8284611dff565b915081905092915050565b7f4172746973747320616c72656164792065786973747300000000000000000000600082015250565b6000611e7d601683611323565b9150611e8882611e47565b602082019050919050565b60006020820190508181036000830152611eac81611e70565b9050919050565b7f596f752061726520616c726561647920616e2061727469737400000000000000600082015250565b6000611ee9601983611323565b9150611ef482611eb3565b602082019050919050565b60006020820190508181036000830152611f1881611edc565b9050919050565b611f28816112ad565b82525050565b6000608082019050611f436000830187611f1f565b8181036020830152611f55818661136f565b90508181036040830152611f69818561136f565b9050611f786060830184611552565b95945050505050565b7f4e487b7100000000000000000000000000000000000000000000000000000000600052601160045260246000fd5b6000611fbb82611548565b91507fffffffffffffffffffffffffffffffffffffffffffffffffffffffffffffffff8203611fed57611fec611f81565b5b600182019050919050565b7f596f7520617265206e6f7420616e206172746973747300000000000000000000600082015250565b600061202e601683611323565b915061203982611ff8565b602082019050919050565b6000602082019050818103600083015261205d81612021565b9050919050565b6000815461207181611ab3565b61207b8186611df4565b9450600182166000811461209657600181146120ab576120de565b60ff19831686528115158202860193506120de565b6120b485611b76565b60005b838110156120d6578154818901526001820191506020810190506120b7565b838801955050505b50505092915050565b60006120f38284612064565b915081905092915050565b7f416c72656164792070726573656e740000000000000000000000000000000000600082015250565b6000612134600f83611323565b915061213f826120fe565b602082019050919050565b6000602082019050818103600083015261216381612127565b9050919050565b7f4e487b7100000000000000000000000000000000000000000000000000000000600052603260045260246000fd5b600081519050919050565b600082825260208201905092915050565b6000819050602082019050919050565b6121ce81611548565b82525050565b60006121e083836121c5565b60208301905092915050565b6000602082019050919050565b600061220482612199565b61220e81856121a4565b9350612219836121b5565b8060005b8381101561224a57815161223188826121d4565b975061223c836121ec565b92505060018101905061221d565b5085935050505092915050565b6000610120820190508181036000830152612272818c61136f565b90508181036020830152612286818b61136f565b9050818103604083015261229a818a61136f565b905081810360608301526122ae818961136f565b90506122bd6080830188611552565b6122ca60a0830187611552565b81810360c08301526122dc81866121f9565b905081810360e08301526122f0818561136f565b9050818103610100830152612305818461136f565b90509a9950505050505050505050565b7f49742773206e6f742074686520726967687420616d6f756e7400000000000000600082015250565b600061234b601983611323565b915061235682612315565b602082019050919050565b6000602082019050818103600083015261237a8161233e565b9050919050565b7f4e6f7420746865207269676874206f7074696f6e000000000000000000000000600082015250565b60006123b7601483611323565b91506123c282612381565b602082019050919050565b600060208201905081810360008301526123e6816123aa565b9050919050565b7f4172746973742063616e6e6f742062757920697473206d757369630000000000600082015250565b6000612423601b83611323565b915061242e826123ed565b602082019050919050565b6000602082019050818103600083015261245281612416565b9050919050565b600081905092915050565b50565b6000612474600083612459565b915061247f82612464565b600082019050919050565b600061249582612467565b9150819050919050565b7f4661696c20746f2073656e642045746865720000000000000000000000000000600082015250565b60006124d5601283611323565b91506124e08261249f565b602082019050919050565b60006020820190508181036000830152612504816124c8565b9050919050565b600061251682611548565b915061252183611548565b925082820190508082111561253957612538611f81565b5b92915050565b600060a0820190508181036000830152612559818861136f565b9050818103602083015261256d818761136f565b905061257c6040830186611552565b6125896060830185611552565b818103608083015261259b818461136f565b9050969550505050505056fea2646970667358221220efa9e1de16f063ba0f7082f5a7f01d8aca6162a2988337a3b394d1c278f0e33964736f6c63430008110033",
  "immutableReferences": {},
  "source": "//SPDX-License-Identifier: MIT\r\npragma solidity ^0.8.0;\r\n\r\ncontract MusiChain {\r\n    address payable public owner;\r\n    mapping(string => mapping(string => Song)) public songs; // una canzone  identificata dalla coppia (NomeArtista, NomeCanzone)\r\n    mapping(address => string) public artists; //Per verificare chi richiama la funzione addArtist non abbia gi agggiunto un artista, questo perch un account pu essere associato a solo un artista\r\n    mapping(string => uint) public artistsCheck; //per controllare che il nome dell'artista non sia gi stato usato\r\n    mapping(address => string) public users;\r\n    struct Song{\r\n        address payable songOwner; //l'indirizzo dell'artista\r\n        uint[] pricing;\r\n        uint idSong;\r\n    }\r\n    \r\n    uint private idArtist; // id assegnato progressivamente ad ogni artista inserito in MusiChain\r\n    uint private idSong;\r\n\r\n    constructor(){\r\n        owner = payable(msg.sender);\r\n        idArtist = 1;\r\n        idSong = 1;\r\n    }\r\n\r\n    event rented(address indexed user, string artistName, string songName, uint timeOfPurchase, uint expirationTime, string link_cover);\r\n    event artistAdded(address user, uint indexed idArtist, string artistName, string link_avatar, uint timeOfInsertion); //evento che verr richiamato all'aggiunta di un nuovo artista in MusiChain\r\n    event songAdded(address indexed user, uint indexed idArtist, uint indexed id_song, string songName, string artistName, string album, string genre, uint year, uint timeOfInsertion, uint[] pricing, string link_file, string link_cover); //evento che verr richiamato all'aggiunta di una nuova canzone\r\n\r\n    modifier costs(string memory artistName, string memory songName, uint option){ // modificatore per il controllo della quantit di ether per procedere all'acquisto della canzone\r\n        uint amount;\r\n        if(option <=4){\r\n            amount = songs[artistName][songName].pricing[option];\r\n        }else{\r\n            amount = 0;\r\n        }\r\n        \r\n        require(msg.value == amount, \"It's not the right amount\");\r\n        _;\r\n    }\r\n\r\n    modifier notOwner{ // modificatore per controllare che l'account proprietario di MusiChain non esegua operazioni non consentite come l'aggiunta di un artista o di una canzone\r\n        require(owner != msg.sender, \"MusiChain Owner cannot perfome this\");\r\n        _;\r\n    }\r\n\r\n    function addUser(address userAddress, string memory randomKey) external notOwner{\r\n        users[userAddress] = randomKey;\r\n    }\r\n\r\n    function addArtist(string memory artistName, string memory link_avatar) external notOwner{\r\n        require(artistsCheck[artistName] == 0,\"Artists already exists\"); //controllo che l'artista non sia gi stato inserito precedentemente\r\n        require(bytes(artists[msg.sender]).length == 0 ,\"You are already an artist\"); // controllo che l'account che usa questa funzione non sia gi un artista\r\n        artists[msg.sender] = artistName;\r\n        artistsCheck[artistName] = idArtist;\r\n        emit artistAdded(msg.sender, idArtist, artistName , link_avatar, block.timestamp);\r\n        idArtist++;\r\n    }\r\n    \r\n    function addSong(string memory songName, string memory album, string memory genre, uint year, uint[] memory pricing, string[] memory links) external notOwner{\r\n        require(bytes(artists[msg.sender]).length > 0 ,\"You are not an artists\"); // controllo che chi utilizzi questa funzione sia un artista\r\n        require((songs[artists[msg.sender]][songName].idSong == 0),\"Already present\"); // controllo che la canzone non sia gi inserita\r\n        string memory artistName = artists[msg.sender];\r\n        songs[artistName][songName] = Song(payable(msg.sender), pricing, idSong); //inserisco automaticamente il nome dell'artista, in quanto solo un artista  associato ad un determinato account\r\n\r\n        emit songAdded(msg.sender, artistsCheck[artistName],idSong, songName, artistName, album, genre, year, block.timestamp, pricing, links[0], links[1]);\r\n        idSong++;\r\n    }\r\n\r\n    function buySong(string memory artistName, string memory songName, uint amountArtist, uint amountMusiChain, uint option, string memory link_cover) external payable costs(artistName, songName, option) notOwner{ \r\n        require(option>=0 && option<=5, \"Not the right option\");\r\n        require(songs[artistName][songName].songOwner != msg.sender,\"Artist cannot buy its music\"); // controllo che l'artsta non compri la sua stessa musica\r\n        (bool sentArtist,) = songs[artistName][songName].songOwner.call{value: (amountArtist)}(\"\"); // invio degli ethers all'account dell'artista\r\n        (bool sentMusiChian,) = owner.call{value: (amountMusiChain)}(\"\"); // invio degli ethers all'acount del proprietario di MusiChain\r\n        require(sentArtist && sentMusiChian,\"Fail to send Ether\"); // controllo che le operazioni siano andate a buon fine\r\n        if(option == 0){\r\n            emit rented(msg.sender, artistName, songName, block.timestamp, block.timestamp + 1 days, link_cover);\r\n        }else if(option == 1){\r\n            emit rented(msg.sender, artistName, songName, block.timestamp, block.timestamp + (3*1 days), link_cover);\r\n        }else if(option == 2){\r\n            emit rented(msg.sender, artistName, songName, block.timestamp, block.timestamp + 1 weeks, link_cover);\r\n        }else if(option == 3){\r\n            emit rented(msg.sender, artistName, songName, block.timestamp, block.timestamp + (31*1 days), link_cover);\r\n        }else{\r\n            emit rented(msg.sender, artistName, songName, block.timestamp, block.timestamp + (365*1 days), link_cover);\r\n        }\r\n        \r\n    }\r\n\r\n}",
  "sourcePath": "C:\\Users\\sergi\\Documents\\Uni Magistrale\\Secondo Anno\\Primo Semestre\\Ing. SW\\Progetto\\MusiChainWebApp\\musichain\\contracts\\MusiChain.sol",
  "compiler": {
    "name": "solc",
    "version": "0.8.17+commit.8df45f5f.Emscripten.clang"
  },
  "schemaVersion": "3.4.10",
  "updatedAt": "2022-12-17T11:38:20.003Z",
  "networkType": "ethereum",
  "devdoc": {
    "kind": "dev",
    "methods": {},
    "version": 1
  },
  "userdoc": {
    "kind": "user",
    "methods": {},
    "version": 1
  }
}